:020000040000FA
:10000000021BC6022003FFFFFFFFFF02200BFFFFC2
:10001000FFFFFF022013FFFFFFFFFF02201BFFFF78
:10002000FFFFFF022023FFFFFFFFFF02202BFFFF48
:10003000FFFFFF021305FFFFFFFFFF02203BFFFF53
:10004000FFFFFF022043FFFFFFFFFF02204BFFFFE8
:10005000FFFFFF022053FFFFFFFFFF02205BFFFFB8
:10006000FFFFFF022063FFFFFFFFFF02206BFFFF88
:10007000FFFFFF022073FFFFFFFFFF02207BFFFF58
:10008000FFFFFF022083FFFFFFFFFF02208B002006
:10009000000090200000932000000100000000C834
:1000A00003000000000000000400FFFFFFFF00C28B
:1000B000010000002600FFFFFFFFFFFFFFFF04031A
:1000C00009042403540065007800610073002000D7
:1000D00049006E0073007400720075006D006500C9
:1000E0006E00740073002403540049002000430094
:1000F000430032003500330031002000550053002A
:100100004200200043004400430000035F005F0002
:100110003000580000000000000000000000000057
:1001200000000000000000000000000000000000CF
:10013000000000003031323334353637383941422F
:10014000434445467F18D418D418D418D418DC1862
:1001500074F71217BA1207A3700FA3A3E0700AA3D3
:10016000E064027002A3E060089005A47404020237
:10017000119005B6E02480600814602D14603A8068
:10018000E89005BAE070E29005B0E0600478018084
:100190000278009005BEE8F0A3E4F09005AFE060BF
:1001A000559005BEE04402804990059DE0640470CE
:1001B000B89005BEE4F0A3803C9005BAE0547FF50A
:1001C0000890059DE0640470A0E508C3940650996A
:1001D0009005BAE05480600C1202FBE06403700CDE
:1001E0007801800A1202EEE0640360F47800900562
:1001F000BEE8F0A3E4F09005A4E064046014900568
:10020000B174BEF0A37405F0A3E4F0A37402120865
:1002100002F07F02021A2674F71217BAE9FE90055F
:10022000BC1207A6701090059DE064046010900554
:10023000BA1207A660089005A474040202E89005AB
:10024000B6E0541F600814600D14602380E8900528
:10025000B8E06401600579000202EBEE9005AFF0B2
:1002600060047905800279067A001217B8807A90C6
:1002700005BAE0547FFA9005B8E070DAEAC3940654
:1002800050B4EA90620EF09005BAE05480602AEE15
:100290006004741080027440906211F0EE60047487
:1002A000038001E4C0E08A081202FBD0E0F0EE60B7
:1002B000047908802C79078028EE6004742080027D
:1002C0007480906214F0EE600474038001E4C0E076
:1002D0008A081202EED0E0F0EE6004790A8002791A
:1002E000091217B890620EE4F0790102021274A9A3
:1002F0002508F58274053400F5832274A42508F5D9
:100300008274053400F583227900120217E9700324
:100310001217A7227901120217E970031217B622E9
:10032000C082C0839005BA1207A67014A31207A654
:10033000700E9005B8E05480F8A3E0F9E849600732
:100340009005A47404801D9005B8E0906200F090C0
:10035000059D6009E06402700C74038007E064038B
:1003600070037402F0D083D0822274F51217BA9011
:1003700005B9E014600814601914604C806412130D
:100380009C120527A37B80121AEEA3F0A3E4F002CF
:1003900004DE9005B8E0FA79001213BE1205277B3F
:1003A00080E924020909EA3400FA121AEEFC19194C
:1003B000E0FAA3E92403090909EA3400FA121AEE63
:1003C000F9ECA3F0A3E980C69005B8E0F912142C6B
:1003D0009005B1EAF0A3EBF0A3E4120536A37B008D
:1003E00080A59005B1E4F0A3F0A3F0FA0204B27581
:1003F000090074037808121B91120540E493C0E0D1
:100400009005B9E0F8D0E06860030204B18A08758D
:10041000090074037808121B91120540A3E493C0ED
:10042000E09005B8E0F8D0E06860030204B18A0803
:1004300075090074037808121B91120558E493C0E3
:10044000E09005BBE0F8D0E06870668A08750900A6
:1004500074037808121B91120558A3E493C0E0902E
:1004600005BAE0F8D0E06870488A0875090074039E
:100470007808121B9112054CF988828983A3A3A3E3
:10048000A3E493F508740193F5099005B1E508F02C
:10049000A3E509F0A37480F088828983A3A3A3A3B2
:1004A000A3A3E493F8740193F99005B4E8F0A3E9E9
:1004B000F00A8A0890067A1206AC75830675827C6B
:1004C000E0C398F50AA3E099F50B7403780A121BB0
:1004D000B7C3E508950AE4950B50030203EF9005B6
:1004E000B1E0FCA3E0FDA3E0FEEC4D4E9005A4704E
:1004F000047404802CE0640460289005B41206ACF7
:100500007583057582BCC3E098A3E099500E9005F1
:10051000BC1206AC9005B4E8F0A3E9F09005A47411
:1005200001F07F04021A269005B1EAF0A3EBF0A3D4
:10053000748012053622F09005B1E0F9A3E0FA22AA
:100540001205442212054C8882F5832290067AE037
:100550002508F8A3E0350922120544A3A32274EF6D
:100560001217BA8A088B098A828B83A3A3A3A3E4F8
:1005700093602690067E1206ACE8FEE98007EE2422
:1005800004FEEF3400FF8E828F83E493F8740193AE
:10059000F9EA687002EB6970E5750C00804A9062B8
:1005A000147490F0741012069C70027940750A0160
:1005B000750B00E50E780A121B918E828F83A3A320
:1005C000A393550A6004E9D2E0F9E9906215F0EAD4
:1005D000906213F074A9250EF58274053400F5833A
:1005E000E4F090620EF0050C850882850983A3A3D0
:1005F000A3A3E493F8E50CC39840030206977A009E
:10060000790512132E8A0A8B0BEA450B60D8EA246F
:1006100002F8EB3400F9E8FCE9FD8C828D83E49369
:10062000540FF50E90620EF079008A828B83A3A39B
:10063000A3A3E4932407F510A3E4933400F5117405
:10064000037810121BB7AA108C828D8393A2E74007
:100650000302059E9062117448F0740812069C70A3
:10066000027940750A01750B00E50E780A121B919C
:100670008E828F83A3A393550A6004E9D2E0F9E93F
:10068000906212F0EA906210F0850E0A74A4250AB6
:10069000F58274050205DC7F0A021A26F0850A82BB
:1006A0008B83A3A3A3E4935403640122E0F8A3E0A3
:1006B000F922C082C0831207A37010A31207A6708C
:1006C0000AA3E064017002A3E060079005A474042B
:1006D000800C9005B1749EF0A374051207F8F00227
:1006E000036574F61217BA90059DE06402601490D9
:1006F00005BA1207A6700CA31207A670069005B9DA
:10070000E060099005A47404F00207917A00790171
:100710001217B89005B8E060637A00F91213BE8A28
:10072000088B09AE08AF09EE4F604990059D74042F
:10073000F09005B8E090059EF0750A008E828F83D8
:10074000A3A3A3A3E493F8E50AC398503D850A0840
:10075000120796E4F07A00790412132E8A828B83B2
:10076000A3A3A3E493F8120796E06870E812055E6D
:10077000050A80C89005A47404F0800E90059EF0D0
:1007800090059D7403F0F9120F5E7A00790212173A
:10079000B87F03021A26749F2508F5827405340079
:1007A000F583229005B8E0F8A3E0F9E8492274F651
:1007B0001217BA90059DE0640470199005B6E064C4
:1007C0008170111207A3700C9005BCE064017002E7
:1007D000A3E060079005A47404801A9005BAE02491
:1007E0009FF508A3E03405F5099005B1E508F0A3ED
:1007F000E5091207F8F08099F0A3E4F0A3041208C9
:100800000222F0A3E4F09005A4042274F71217BAB0
:1008100090059DE0640470109005B6E064017008D6
:100820009005BC1207A660089005A47404F08052DD
:100830009005B8E0FB9005BAE0FA90059EE0F91249
:1008400013F68A088B09AE08AF09EE4F60DA9005FF
:10085000BAE0FA79031217B89005B8E0C0E0900545
:10086000BAE0249FF8A3E03405F988828983D0E0B8
:10087000F0EEFAEFFB12055E9005BAE0FA79041289
:1008800017B802021274F81217BA74FF121B517EC5
:10089000008033900384E0F8851882851983E0682E
:1008A000700D900382E0644D7005120AD2E9FE904B
:1008B0000385E4F0900387F0851882851983E0F8BA
:1008C000900384E068F07901851882851983AA82F3
:1008D000AB831210D5E97003020983E0C0E09003F6
:1008E00087E0F8900385E0FAE82AF8E43400120C77
:1008F00086D0E0F0900387E0601114602014603E21
:1009000014604E14606414608A80AD851882851965
:1009100083E064FE70A29003877401809A90038440
:10092000E4F0851882851983E0900386F0C39480F3
:100930009003874004E40208B774020208B78518E0
:1009400082851983E0900382F09003877403020884
:10095000B7851882851983E0900383F0900386E0C1
:10096000601990038774040208B7900385E004F0CF
:10097000F8900386E06860030208B8900387740566
:100980000208B7EEF97401121B087F01021A2674DF
:10099000ED1217BA74FB121B517508047509007823
:1009A00008121B6B7402121C09120C73121B0885AF
:1009B0001882E0F47003A3E0F4600F8518828519B3
:1009C00083E0F8A3E0F9E8497003020AC674021252
:1009D0001C09E0687003A3E0697003020AA07508AF
:1009E000009005C07810121BD5800A9005C47810BD
:1009F000121B7C604A750A01750B00780A121B6B8A
:100A00007406121C09AC82AD8385100A85110BAAED
:100A10000AE50B5407FB8A0C85110D85120E851310
:100A20000F740B780C121B22A90C120C7D121B08E0
:100A3000E0F9AA08AB09120C928A088B0980089089
:100A400005C87810121BD59005CC7810121BA49005
:100A500005D07810121AB45092E4F9120C92E4F90D
:100A6000120C927402121C09EAF0A3EBF075080153
:100A70007509007808121B6B7402121C09AC82AD58
:100A8000837A247B081215D47402121B087508049B
:100A90007808121B6B7402121C09120C73121B08CB
:100AA000120C65121C09E0687003A3E069701785D9
:100AB0001882851983E0F47003A3E0F46008E84924
:100AC00060047901800279007405121B087F0C0212
:100AD0001A2674F31217BA74FC121B51900306E025
:100AE000FAA3E0F9EA2400F8F508E93408F50975F5
:100AF0000A017F007E00900383E014600C146040C4
:100B0000147003020B99020C16E5095401F9E84927
:100B10007011880C85090D7409780C121BB7A90C8B
:100B2000121638750C108E0D780C121B6B7C087D1C
:100B300003AA08AB091215D47402121B08020C1682
:100B4000880C85090D7409780C121BB7E50CC39449
:100B50007940040F020C16750A408E0B780A121B9E
:100B60006B7C097D03EAF50AE5095401F50B740273
:100B7000780A121B91AA0AAB0B74097808121BB7EA
:100B8000A908120C7D121B08900307E0A3F0900344
:100B900006E0A3F0750A43807D7508048E09780885
:100BA000121B6B7402121C09120C73121B087402C4
:100BB000121C09E0F8A3E0F9851882851983E06822
:100BC0007003A3E069603B120C65121C09E8F0A3F6
:100BD000E9F07508017808121B6B7402121C09AC4D
:100BE00082AD837A247B081215D47402121B087517
:100BF00008047808121B6B7402121C09120C731281
:100C00001B08120C65121C09E0687003A3E06970F0
:100C1000030E80027F07900305E0D2E7F0EFA3F018
:100C2000E50A900303F0744D650AF5087404250A7B
:100C3000FB7A038007120C83E062080AEAC39BA2D6
:100C4000D265D033EAF840ED120C83E508F0740168
:100C50002AF97A027B03121115EEF97404121B08AB
:100C60007F06021A26851882851983E0F8A3E0F929
:100C7000740222AC82AD837A907B00790412154F06
:100C80007402223395E0F9740228F582740339F571
:100C90008322C008C0097C088A088B09740F780871
:100CA000121BB7EAC333FAEB33FBE9A2E750047433
:100CB000014AFAE508A2E0500874216AFA74106B40
:100CC000FBE9C333F91CEC70CFD009D00822C082F5
:100CD000C0837A0079011213BE8A828B83A3A3A3F7
:100CE000A3A3A3A3E493A2E69005B05004740180EB
:100CF00001E4F09005AFE4F090620F7403F0E0A21D
:100D0000E750FB90620BE0D2E1F0D083D08222C0AA
:100D100082C08390059D7402F0A3E4F09005A4F0D6
:100D20007903120F5E75210075220080DD74F612C2
:100D300017BA90620EE0FEE4F0906211E0F50AA2AC
:100D4000E4501D7480F09005A47407F0E52145225D
:100D50006009852182852283121C1B9005A4E4F082
:100D6000E50AA2E2500B906211E4F09005A4F08035
:100D7000769005A4E064027057906216E0FF90053B
:100D8000B1121A66EFF97A207B62120F9674031281
:100D90001B088F089005B4120F33120F3EE0F8A322
:100DA000E0F9E8496004744080027448906211F0F0
:100DB000E8497014E5214522600985218285228356
:100DC000121C1B9005A4E4F0EE90620EF0020FDC02
:100DD000E064067009852182852283121C1B900520
:100DE000A4E06003020ECDE50AA2E050DB7508B670
:100DF000750905750A007808121B6779087A207B47
:100E000062120F967403121B087521007522009060
:100E100005B6E054E0601C24E07003020EA724E055
:100E2000606F24C0604524E07003020EB224E060CD
:100E30006B8030A3E014601C24FE601324FE600A63
:100E400024FC601524FE60168019120320806C12A9
:100E50000314806712030880621206E2805D1208A4
:100E60000B80589005A47404F08058A3E0600E2411
:100E7000FA600F24FE601024FE601180E61201501B
:100E8000803912036A80341206B2802F1207AE80B6
:100E90002A7521A37522171217A3801F7521A57526
:100EA00022171217A58014752140752217121740BA
:100EB000800975216E75221712176E9005A4E064E3
:100EC000047004746080027440906211F09005A474
:100ED000E06401704A750A029005B4C3E09420A34F
:100EE000E09400500A9005B4E0FF750A0A80027F82
:100EF000209005B1121A66EFF97A207B62120FBAC0
:100F00007403121B088F08120F3E120F33E50A906C
:100F10006211F0EFC394204003020DC8020DB4E04B
:100F200064056003020DC8852182852283121C1B83
:100F3000020DC8C3E09508F0A3E09400F0229005EC
:100F4000B1E0F9A3E0FAA3E0FBE92508F9EA3400EF
:100F5000FA9005B1E9F0A3EAF0A3EBF0A32274F74D
:100F60001217BA7800880874A52508F5827405124E
:100F70000F8A40F17800880874AA2508F582740564
:100F8000120F8A40F17F02021A263400F583E9F03D
:100F900008E8C394052274F61217BAEAFCEBFDE9DF
:100FA000F8740A121C09120FEC600D8C828D83E01C
:100FB000121B3B120FE170F3802274F61217BAEA8B
:100FC000FCEBFDE9F8740A121C09120FEC600D121B
:100FD0001AEE8C828D83F0120FE170F37F03021AF8
:100FE00026E9240109EA3400FA18E822E0F508A30A
:100FF000E0F509A3E0A908AA09FBE822C082C083A2
:10100000A823E8540460097823E654FBF6120D0F78
:10101000A823E8541060097823E654EFF6120D2D4A
:10102000A823E8A2E05005782354FCF690620EE075
:10103000FA7404F0906214E0A2E05042E5A8F8C20D
:10104000AF906216E0F9A3E0E9FBE8A2E792AF8077
:101050001F906228E0C0E0900391E0F8749228F5B8
:101060008274033400F583D0E0F0900391E004F043
:10107000EBFC74FF2C1B0470D8906214E4F0EA902F
:10108000620EF0E0FD7404F0906211E0A2E0403BDB
:10109000900493E0F8900492E068602F7A40900406
:1010A00092E0F8749428F58274043400F583E0909B
:1010B0006228F0900492E004F008900493E06860E5
:1010C000041AEA70D99062117401F0ED90620EF08A
:1010D000D083D0822274F81217BAE9FE7900801FFB
:1010E000900390E0FC74922CF58274033400F58335
:1010F000E08A828B83F0900390E0041211480990FB
:101100000390E0F8900391E0686005E9C39E40D049
:101110007F01021A26C082C08380228A828B83E0EC
:10112000C0E0900493E0FC74942CF58274043400C5
:10113000F583D0E0121148900493E004F0E9F874CC
:10114000FF28190470D58088F08A828B83A3AA8235
:10115000AB832212120112098FE9603112127AE96F
:10116000602B75AC00759A0053F4FEC29043FE01EB
:1011700090620FE4F0E0A2E740FB90000174CDF034
:10118000022000C2AF75C9AB75C95B80FE9005D463
:10119000780C121BD5794E1211EBD2AF850D099048
:1011A00005CC780C121BA4E5095440600AA28050BB
:1011B00004C2808002D280120FFC120885E960DC34
:1011C000C280D2919005D87808121BD5120FFC90DE
:1011D00005DC7808121BA4E5084509450A450B7093
:1011E000EBC2AF75C9AB75C95B80FE781075B60FE1
:1011F000E5B4A2E750FAE5BBC39940F118E870EDF9
:1012000022C082C08353BEFBE59DA2E650FA00785F
:10121000F8790100E824FF18E934FFF9E84970F390
:1012200075C6807480659E70FA43BE0490627074C7
:1012300008F0D28043FD01C29143FE02794A1211A7
:10124000EB90000174F5F07403F5D575D488900522
:10125000E0121BFD900594121BF1900598E4F0A399
:10126000F0A37408F0120CCE7AFF7BFF12164F53D6
:10127000F4FED29043FE010210D074F11217BA743A
:10128000FF121B519005E4780C121BD57E00D2AFE3
:101290008004C291C280120FFC79018518828519E1
:1012A00083AA82AB831210D5E96012E064F860343F
:1012B000E0640770089005D4780C121BD5A29250F8
:1012C00023A293501E850C08850D09850E0A850FF3
:1012D0000B9005DC780C121BA4E5084509450A456E
:1012E0000B70130EC2AFD280C291EEF97401121BC3
:1012F000087F08021A26850D09E50954207093D24B
:1013000080D2918091C0E074F2121820900001E028
:1013100064CD7005122033800BE064F57005121661
:101320009A8001007F010218DCD083D08222C08223
:10133000C083E9FCEAFD7A007B00800790059CE011
:1013400012138190059BE0F8A3E0F9900678E0681D
:101350007003A3E069601C1213756C700D90059BFF
:10136000E0FAA3E0FB12138180091213756D70CCB3
:10137000ED60C980B490059CE0F5838882A3E49376
:1013800022F5838882E493F890059BE028F8A3E097
:101390003400F990059BE8F0A3E9F022C082C083F5
:1013A0001213AD7A00790112132E021329900676DA
:1013B000E0F8A3E0F990059BE8F0A3E9F02274F7C8
:1013C0001217BAE9FEEAFF1213AD7A00790212137E
:1013D0002EEA4B601CEE60108A828B83A3A3A3A32A
:1013E000A3E4936E70E48009EFF874FF281F047083
:1013F000D97F02021A2674F51217BAEAFF8B087A0F
:10140000001213BE7A02790412132EEA4B60188A76
:10141000828B83A3A3E4936F70EA8A828B83A3A356
:10142000A3E493650870DD7F04021A2674F712178F
:10143000BA74F0121B51E97A007B00600C14601042
:101440001460141460180215377AF07B0502153702
:101450007AF47B050215377A187B06021537900659
:101460003CE060030215337408121C09AC82AD83A2
:101470007583057582E87408121A93750808F509D2
:101480007808121B6B7402121C09AC82AD837AE8D7
:101490007B07797F12154F7402121B087808121B04
:1014A0006B740A121C09AC82AD837402121C09AA67
:1014B00082AB831219347402121B088B09EA4509A6
:1014C000701D7509007808121B6B7C0C7D78740206
:1014D000121C09AA82AB831219E07402121B087C49
:1014E000287D008D08851882851983E5822508F5F9
:1014F00082E5833400F583E0FF8C08743C2508F80E
:1015000074063400F9EF12153F88828983F0EFC426
:1015100012153FC0E0E824FEF582E934FFF583D0E0
:10152000E0F00D74FC2CFCEDC3940840B690063C32
:10153000742AF07A3C7B067410121B080213F154D3
:101540000FFA74662AF58274063400F583E022747B
:10155000F51217BA8908740B121C09E0FEA3E0FF0C
:10156000740F5508F50A750B00740B780A121B915D
:10157000EA2400F8EB3480F9E82400E9350BF9E5BA
:10158000C7F509A2AFE433F50AC2AFE508C4540FAA
:10159000FAE5C754F84AF5C7801C88828983E08C35
:1015A000828D83F088828983A3A882A9838C828D0F
:1015B00083A3AC82AD83EEFAEFFBEA24FF1EEB348B
:1015C000FFFFEA4B70D48509C7E50AA2E092AF7F1E
:1015D00004021A2674F71217BA7409121C09E0F5EE
:1015E00008A3E0F509ED900388F0ECA3F0A3746282
:1015F000F0A37473F0A3E0541FF0E508333354FCF8
:10160000A3F074067808121BB7E50890038CF090DD
:10161000038E7412F0A37442F075D1FE75D601EA00
:10162000906271F0EBA3F0906270E0D2E1F0E0A282
:10163000E740FB7F02021A26C082C083E9C33390D1
:101640006272F0906270E0D2E0F0D083D0822274B7
:10165000F71217BA7523007524007525008A268BAA
:1016600027EA90620BF08A088B0974047808121B31
:10167000B7E508906207F08A088B097409780812A8
:101680001BB7E508543E906209F0758B00C2E84331
:10169000AC20439A027F02021A2674F71217BAE5A9
:1016A0009DA2E650FA906206E0FAA2E25035A82622
:1016B000E890620BF0F50885270974047808121B7E
:1016C000B7E508906207F085260885270974097830
:1016D00008121BB7E508543E906209F0906201E0E1
:1016E000D2E0F07823EA46F6906202E0F508750948
:1016F0000074047808121B917823E50846F608E583
:101700000946F6906204E0F5087509007409780846
:10171000121B917824E50946F6EAA2E050037525EC
:101720000174065A6003752500E58BA2E550067525
:101730008BDF7525001217B9758B00C2E80216956C
:10174000C082C0839005B7E06422700A9005A4E0CF
:10175000701A74028015E064209005A4700BE0708C
:101760000B1217959005A480E97404F08043C082A1
:10177000C0839005B7E064219005A47013E0701356
:10178000121795A37407F0A3E4F09005A404800257
:101790007404F0801C9005B17494F0A37405F0A358
:1017A000E4F02280028000C082C0839005A474040B
:1017B000F0D083D0822280EF22222518C582C0E09B
:1017C000E51934FFC583C0E0E518C3958224F910FC
:1017D000AF0885831985821880088583198582184A
:1017E000D2AFCEF0A3E520F0A37808E608F0A3DEA0
:1017F000FAEFF0A3E58124FBF8E608F0A3E608F091
:10180000A30808E608F0A3E608F0A315811581D027
:10181000E0FED0E0F815811581E8C0E0EEC0E022DE
:10182000C0D02518C582C0E0E51934FFC583C0E0EB
:10183000E518C3958224F310AF08858319858218B3
:101840008008858319858218D2AFC8F0A3E9F0A378
:10185000EAF0A3EBF0A37908E709F0A3D8FAECF0DB
:10186000A3EDF0A3EEF0A3EFF0A3D0E0F0A3D0E05F
:10187000F0A3D0E0F0A3E520F0A3E5F0F0A322125E
:10188000010002020000205104A816090001020311
:10189000010902430002010080190904000001024D
:1018A00002010005240010010424020205240600A0
:1018B00001052401000107058203400040090401DD
:1018C00000020A000000070584024000000705042A
:1018D000024000009A180000BD1800008519838599
:1018E0001882E0C0E0A3E0F9A3E0FAA3E0FBA3784C
:1018F00008E0F608A3DFFAE0FCA3E0FDA3E0FEA306
:10190000E0FFA3E0C0E0A3E0C0E0A3E0F5D0A3E0E7
:10191000F520A3E0A3F5F010AF08858319858218A0
:101920008008858319858218D2AFD082D083D0E019
:10193000F8D0E03274F81217BA7408121C09E0F8F3
:10194000A3E08015A3AA82AB838C828D83A3AC8293
:10195000AD83E824FF18E934FFF9E84960238A825F
:101960008B83E0FE8C828D83E06E8A828B8360D4D1
:10197000E0F88C828D83E0FAE8C39AFA95E0FB8068
:10198000047A007B007F01021A26121C18B900039A
:101990000219DAE479217807B800028004F709D83F
:1019A000FCE490030278BF79038002F0A3D8FCD94D
:1019B000FA9005C0AA82AB8390008E78C37901802B
:1019C00015E493A3AC82AD838A828B83F0A3AA82B1
:1019D000AB838C828D83D8E9D9E7121153121C1383
:1019E00074F71217BA7409121C09E0FEA3E0FFEAAB
:1019F000F8EBF980188C828D83E088828983F0A3CC
:101A0000A882A9838C828D83A3AC82AD838E088F3C
:101A100009E50824FF1EE50934FFFFE508450970C4
:101A2000D47F02021A26851983851882E0A3FEE07E
:101A3000A3F5207808E0A3F608DFFAE0A3FFE0A30F
:101A4000C0E0E0A3C0E0E0A3C0E0E0A3C0E010AFCE
:101A5000088582188583198008858218858319D2A4
:101A6000AFD083D0822274038000CCC0E0EDC0E010
:101A7000E518C39CCCAD1950011D10AF068C188D14
:101A80001980068C188D19D2AF121A93D0E0FDD0B0
:101A9000E0FC22CAC0E0E0A3C582CCC582C583CDEC
:101AA000C583F0A3C582CCC582C583CDC583DAE6E4
:101AB000D0E0CA22C008C3E096F50808A3E0964229
:101AC0000808A3E096420808A3E09645087001D3F1
:101AD000D008222518F58210AF08F5184002151914
:101AE0008008F51840021519D2AF85198322BB0171
:101AF00002E722C082C08389828A83BB0003E08020
:101B000002E493D083D08222C0D0251810AF08F50C
:101B100018500205198008F51850020519D2AFD0E7
:101B2000D0226016080808C6C313C618C613C61804
:101B3000C613C618C613C6D5E0EA22BB000EC08283
:101B4000C0838A838982F0D083D08222BB0101F7CF
:101B500022251810AF08F518400215198008F5184D
:101B600040021519D2AF227403800474028000C0B1
:101B7000E0F404121AD3D0E0121BE422E0667010E5
:101B800008A3E066700A08A3E066700408A3E06694
:101B900022700422600D18C6C333C608C633C6D5EA
:101BA000E0F41822E026F608A3E036F608A3E036B3
:101BB000F608A3E036F622600C08C6C313C618C6A2
:101BC00013C6D5E0F42275D00075814075180275F2
:101BD000190302198AE0F608A3E0F608A3E0F60864
:101BE000A3E0F622CAC0E0E6F0A308DAFAD0E0FAF1
:101BF00022EAF0A3EBF0A3ECF0A3EDF022E0FAA3CD
:101C0000E0FBA3E0FCA3E0FD222518F582E43519F2
:101C1000F5832200000080FB790122E473FFFFFFBF
:101C2000FFFFFFFFFFFFFFFFFFFFFFFFFFFFFFFFC4
:101C3000FFFFFFFFFFFFFFFFFFFFFFFFFFFFFFFFB4
:101C4000FFFFFFFFFFFFFFFFFFFFFFFFFFFFFFFFA4
:101C5000FFFFFFFFFFFFFFFFFFFFFFFFFFFFFFFF94
:0400000500001BC616
:00000001FF
