:020000040000FA
:06000000020A0A0201C021
:03002B000209A81F
:030033000206744E
:0300430002086947
:03004B0002073E6B
:0300530002011295
:03005B0002074D4C
:0300630002075938
:03006B0002065A30
:1000830002015C010101010503010F10FEFF0300E2
:100093000300030003000300030003000300030045
:1000A30005000A00140028004F009E0000002113E1
:1000B300211321132113DD11D71121134620000031
:1000C3000000CE21000000000C0000000C00010A1B
:1000D300D007D00701F305FF01010036120000002D
:1000E3009112E80364006400B801020400080000F0
:1000F30005020A011E02051E020A0C03B80B028048
:100103003E0103320002FFFF010A01E0020206C0C2
:10011300E074F21203CCE5A7FAE5A1FBEA5B541005
:100123006008121A7153A1EF802AEAA2E0C0D0EB53
:10013300A2E092F0120982158182F0501790619823
:10014300E0FA9015A9E0C39AA2D265D0335002EA2F
:10015300F053A1FE7F01020483C0E074F21203CCCA
:100163009061A4E0FA759B00E5915A540860087504
:1001730091F7121AB3802AE5915A541060087591C9
:10018300EF121AB9801BEAA2E0C0D0E591A2E09277
:10019300F0120982158182F05007E0C2E0F0121BD1
:1001A300D99061A3E0FAE5E95A5404600E121BAF3B
:1001B30075E9FB906193E0A2E640F28097C0E0749A
:1001C300F21203CC9061A5E0FAE5BF5A540460062D
:1001D30053BFFB121BF1020157C3E498F8E499F9EA
:1001E30012021D8026C3E49AFAE49BFBE920E7E9A7
:1001F30012021DE498F8E499F922C3E498F8E4990B
:10020300F912021DE498F8E499F9C3E49AFAE49B1D
:10021300FB22EB20E7CFE920E7E0B90010BB0008A1
:10022300E88AF084F8AAF022E4FBC8FA22EB7022F1
:100233007B10C833C8C933C9335007C39AC3DBF231
:1002430080069A50012ADBEAC833F4C8C933F4C9DB
:10025300FA2275F008E4C833C8C933C933C99AC947
:100263009B5004C92AC93BD5F0ECFBC833F4C8E45E
:10027300C9FA22080808EAC0E0EBC0E086F0E7A468
:10028300FA180986F0E7A42AFA180986F0E7A42ADF
:10029300FA180986F0E7A42AFA1986F0E7A4FBE521
:1002A300F02AFA190886F0E7A42BFBE5F03AFA19CD
:1002B3000886F0E7A42BFBE5F03AFA18180986F054
:1002C300E7A4C5F02BFBE43AFA1908E7C5F0C6A486
:1002D30026F6E5F03BFBE43AFA1886F0E7A4F6E5E8
:1002E300F00826F6E43B08F6E43A08F6D0E0FBD043
:1002F300E0FA22E4CFC0E0E4CEC0E0E4CDC0E0E425
:10030300CCC0E075F020C3E633F608E633F608E622
:1003130033F608E633F6181818EC33FCED33FDEE2C
:1003230033FEEF33FFC3EC9709ED9709EE9709EF1F
:1003330097191919400FFFEC97FC09ED97FD09EE8A
:1003430097FE191906D5F0BEECF709EDF709EEF79C
:1003530009EFF7191919D0E0FCD0E0FDD0E0FED089
:10036300E0FF222510C582C0E0E51134FFC583C03C
:10037300E0E510C3958224F8F8E4C5A885831185C8
:100383008210C5A8E8CEF0A3E520F0A37808E6081C
:10039300F0A3DEFAEFF0A3E58124FAF8E608F0A370
:1003A300E608F0A3E608F0A30808E608F0A3E608C9
:1003B300F0A315811581D0E0FED0E0F815811581F9
:1003C3001581E8C0E0EEC0E022C0D02510C582C090
:1003D300E0E51134FFC583C0E0E510C3958224F343
:1003E30010AF08858311858210800885831185826B
:1003F30010D2AFC8F0A3E9F0A3EAF0A3EBF0A3791E
:1004030008E709F0A3D8FAECF0A3EDF0A3EEF0A30C
:10041300EFF0A3D0E0F0A3D0E0F0A3D0E0F0A3E5A9
:1004230020F0A3E5F0F0A322120A54B9000302045A
:100433006DE4900400786479178002F0A3D8FCD9A6
:10044300FA901A63AA82AB83900086788D79018033
:1004530015E493A3AC82AD838A828B83F0A3AA8233
:10046300AB838C828D83D8E9D9E77582F67583BD1A
:1004730074031205657582C175831E7400120565C8
:10048300851183851082E0C0E0A3E0F9A3E0FAA31D
:10049300E0FBA37808E0F608A3DFFAE0FCA3E0FDA5
:1004A300A3E0FEA3E0FFA3E0C0E0A3E0C0E0A3E07D
:1004B300F5D0A3E0F520A3E0A3F5F0E4C5A8858378
:1004C30011858210C5A8D082D083D0E0F8D0E03265
:1004D300D083D082ECC0E0EDC0E0E493A3FCE493CE
:1004E300A3FDED4C600D1205A7EC24FFFCED34FFDA
:1004F300FD80EFE493A3FCE493A3FDED4C600D12A8
:1005030006E9EC24FFFCED34FFFD80EFD0E0FDD0E5
:10051300E0FCE493A3C0E0E493C0E022D083D08264
:10052300E9C0E0E493A3C386F0C5F095F0F908E4CD
:1005330093A386F0C5F095F0700BE493A3C39940A1
:1005430005E9048002A3E475F002A42582F582E59F
:10055300F03583F583D0E0F9E493A3C0E0E493C0DE
:10056300E022F5F0E59F5407C0E0E59F54F845F01D
:10057300F59FE473859FF053F0F8D0E045F0F59FC5
:1005830022D083D082E59F5407C0E0E493C0E07497
:100593000193C0E07402935407F5F0E59F54F845C6
:1005A300F0F59F22C0E0C3E4939608740193961874
:1005B300400FE49366700808740193661870007026
:1005C30019A3A3C3E49396087401939618A3A340B5
:1005D3000DD0E0D0E0D0E002050FA3A3A3A3A3A313
:1005E300D0E022851183851082E0A3FEE0A3F520ED
:1005F3007808E0A3F608DFFAE0A3FFE0A3C0E0E099
:10060300A3C0E0E0A3C0E0E0A3C0E0E0A3C0E0E457
:10061300C5A8858210858311C5A8D083D082020521
:1006230077D083D082C5F0E493A3C5F0C395F0F5EA
:10063300F0E493A3C395F04005E5F0048001E4756D
:10064300F002A42582F582E5F03583F583E493A3D4
:10065300C0E0E493C0E022C0E074F21203CCE58969
:10066300A2E1500312192D758900C2C57F0102044E
:1006730083C0E074F21203CCE58BA2E0500312199D
:100683002D758B00C2E880E474048004740280003A
:10069300CCC0E0EDC0E0E510C39CCCAD1150011D12
:1006A30010AF068C108D1180068C108D11D2AF12F5
:1006B3000787D0E0FDD0E0FC2274028000CCC0E0CC
:1006C300EDC0E0E510C39CCCAD1150011D10AF0689
:1006D3008C108D1180068C108D11D2AF120765D04E
:1006E300E0FDD0E0FC22C0E0C0F088F0E493667047
:1006F300080874019366187000A8F0A3A3700BD0C8
:10070300F0D0E0D0E0D0E002050FA3A3D0F0D0E01A
:1007130022D083D082CCC0E0E493A360061207A862
:100723001470FAE493A360061208801470FAD0E000
:10073300FCE493A3C0E0E493C0E022C0E074F212AF
:1007430003CC1219B17F01020483C0E074F21203D7
:10075300CC1219B780EFC0E074F21203CC1219BDAA
:1007630080E3CAC0E0E493A3C582CCC582C583CD30
:10077300C583F0A3C582CCC582C583CDC583DAE525
:10078300D0E0CA22CAC0E0E0A3C582CCC582C5833B
:10079300CDC583F0A3C582CCC582C583CDC583DA1D
:1007A300E6D0E0CA22C0E0E493A3D39C5010E493C4
:1007B300A3C39C400AD0E0D0E0D0E0020731A3A35A
:1007C300A3D0E0227009080808226016181818C67A
:1007D300C333C608C633C608C633C608C633C6D530
:1007E300E0EA227404800A740380067402800274AF
:1007F30001C0E0F404120801D0E0120A47222510D8
:10080300F58210AF08F510400215118008F510406D
:10081300021511D2AF85118322BB0102E722C082E8
:10082300C08389828A83BB0003E08002E493D08380
:10083300D08222C0D0251010AF08F5105002051148
:100843008008F51050020511D2AFD0D022601608EF
:100853000808C6C313C618C613C618C613C618C6D7
:1008630013C6D5E0EA22C0E074F21203CCC2C0E59D
:10087300D1A2E450031219E77F01020483C0E0E42C
:1008830093A36C7009D0E0D0E0D0E0020731A3A3BA
:10089300D0E022251010AF08F51040021511800892
:1008A300F51040021511D2AF22E066701008A3E0E4
:1008B30066700A08A3E066700408A3E06622C3E03A
:1008C3009608A3E09608A3E09608A3E096A2D26553
:1008D300D03322C3E096F008A3E096F008A3E09695
:1008E300F008A3E096F022E657F60809E657F60863
:1008F30009E657F60809E657F622E056F608A3E09C
:1009030056F608A3E056F608A3E056F622E056F0A2
:1009130008A3E056F008A3E056F008A3E056F0223F
:10092300E026F608A3E036F608A3E036F608A3E0CF
:1009330036F622E627F60809E637F60809E637F61B
:100943000809E637F622E046F008A3E046F008A3DC
:10095300E046F008A3E046F022E647F60809E6473A
:10096300F60809E647F60809E647F622E026F00806
:10097300A3E036F008A3E036F008A3E036F022C087
:10098300E0E8C0E0E58124FCF8E6A2E7D0E0F8D097
:10099300E022700422600D18C6C333C608C633C6EE
:1009A300D5E0F41822C0E074F21203CCC2C7121AC5
:1009B300F57F01020483E4C396F608E496F608E49F
:1009C30096F608E496F622C3E7960809E79608091F
:1009D300E7960809E79622C6F4C608C6F4C608C611
:1009E300F4C608C6F4C622600D08C6A2E713C618EB
:1009F300C613C6D5E0F322C3E09608A3E09608A386
:100A0300E09608A3E0962275D0007581407510002A
:100A13007511040002042B600C08C6C313C618C664
:100A230013C6D5E0F422E6F008A3E6F008A3E6F047
:100A330008A3E6F022E0F608A3E0F608A3E0F60830
:100A4300A3E0F622CAC0E0E6F0A308DAFAD0E0FA9F
:100A53002274F855C74401F5C77901222510F582A0
:100A6300E43511F583221205842224001205844102
:100A730024001205846324001205847524001205E2
:100A830084A324001205840525001205848A250009
:100A9300120584282600120584742600120584B3E7
:100AA3002600120584D02600120584FF26001205B5
:100AB30084552700120584702700120584972700A8
:100AC300120584D2270012058412280012058433EC
:100AD30028001205848328001205843D290012058D
:100AE30084C229001205844C2A001205842D2B0090
:100AF3001205845A2B00120584A92B00120584D1F8
:100B03002B00120584FA2C00120584722D001205A5
:100B130084982D00120584BE2D00120584E22D0059
:100B2300120584F42D00120584FE2D00120584A8FD
:100B33002E00120584142F00120584DB2F001205EA
:100B430084E32F001205846E3000120584A2300066
:100B5300120584B230001205847731001205842512
:100B63003200120584843200120584913300120589
:100B7300840A34001205845E3400120584D33400E1
:100B8300120584713600120584853600120584E748
:100B930036001205846C3700120584B9370012053C
:100BA30084D73800120584C93900120584363A0007
:100BB300120584B23A00120584283B0012058460B2
:100BC3003B001205843D3C00120584603D00120584
:100BD30084BD3D00120584063E001205842E3E00AE
:100BE300120584B73E001205844D3F00120584B3FD
:100BF3003F00120584D83F00120584E93F00120527
:100C030084624000120584F940001205843A4100D1
:100C1300120584CD4100120584F1410012058415AB
:100C23004300120584324300120584454300120534
:100C330084934300120584D443001205846B45005A
:100C4300120584FE460012058413470012058474BE
:100C53004700120584C34700120584E448001205C7
:100C630084AB4A00120584B54A00120584BF4A00CA
:100C7300120584C94A00120584D34A00120584ED83
:100C83004A00120584F74A00120584014B0012053D
:100C9300840B4B001205842C4B001205847A4B0005
:100CA300120584844B00120584A84B00120584CCE2
:100CB3004B00120584254C001205846A4C00120572
:100CC30084884C00120584FF4C00120584494D00B2
:100CD3001205847F4D00120584FE4D0012058487A2
:100CE3004E001205846450001205842C5100120535
:100CF300845251001205843A5200120584125500A1
:100D03001205849F5600120584675800120584ADAE
:100D13005800120584D75900120584285A00120579
:100D230084935A001205849D5A00120584635C0063
:100D3300120584175D00120584695D001205842580
:100D43005E00120584EA5E001205847560001205D8
:100D530084986000120584EC6000120584DA610057
:100D63001205840C6200120584606200120584651A
:100D73006300120584AC6300120584F2630012055C
:100D8300845164001205849E6500120584EA65009F
:100D9300120584F46600120584A16900120584C556
:100DA3006900120584906B00120584E76B0012053D
:100DB30084E36C001205846C6D00120584C66D001B
:100DC300120584266E00120584B56E001205842B6D
:100DD3006F00120584966F00120584A98101120524
:100DE30084FB8101120584F18301120584A084012F
:100DF300120584D48401120584FE8501120584B58D
:100E03008801120584C389011205849C920112058D
:100E130084569501120584429601120584F09601C9
:100E23001205840698011205845899011205845D00
:100E33009A01120584709D01120584829F01120597
:100E430084E29F01120584BAA00112058446A10120
:100E530012058471A1011205840FA201120584ED0C
:100E6300A201120584CEA301120584A5A4011205D3
:100E730084D2A401120584F4A40112058436A701C7
:100E8300120584F0A70112058447A801120584AA5C
:100E9300A80112058460A90112058495A901120510
:100EA30084E9A90112058419AA0112058457AA012C
:100EB300120584A5AA01120584AAAA0112058401B8
:100EC300AB0112058429AB0112058424AC01120580
:100ED30084ACAC011205842DAF01120584EAAF0185
:100EE3001205847FB101120584F4B3011205849CB9
:100EF300B40112058414B5011205843DB70112052E
:100F030084E2B70112058429B801120584F5B901F9
:100F130012058409BA0112058416BA011205844028
:100F2300BA011205844CBA011205846ABA0112058A
:100F3300843FBC011205846BBC0112058478BC019B
:100F43001205848EBC01120584EDBC011205844197
:100F5300BD011205844CBE01120584A8BE01120511
:100F6300845FBF01120584A7BF0112058441C0013C
:100F730012058425C101120584DBC1011205840C0D
:100F8300C301120584F2C3011205849AC401120538
:100F9300842EC50112058445C5011205847EC50151
:100FA30012058488C50112058494C501120584B213
:100FB300C501120584F6C50112058464C601120534
:100FC300848BC601120584A5C601120584FAC701E4
:100FD30012058444C8011205844DC90112058472A7
:100FE300C901120584DCC9011205843ECA01120538
:100FF30084AFCA01120584C1CB011205846CCC01F4
:1010030012058454CD01120584B2CD011205843C2E
:10101300CE011205842DCF011205845CCF01120588
:1010230084C3CF011205849DD001120584C3D0016E
:101033001205842CD10112058451D1011205847744
:10104300D101120584ADD101120584C9D301120562
:1010530084B9D4011205847FD50112058419D701FF
:1010630012058462D7011205848ED70112058415F7
:10107300D8011205847DD801120584CFD801120549
:1010830084F5D8011205843CD90112058468D9017D
:101093001205849DD901120584EDD9011205844BF3
:1010A300DA01120584FEDA01120584C0DC0112059F
:1010B3008432DD011205845BDD01120584CFDD017D
:1010C30012058444DE0112058486DE01120584C202
:1010D300DE01120584E7DE011205842DDF0112050E
:1010E300844ADF01120584E7DF011205847EE703EA
:1010F300120584C9E703120584918002120584BF97
:1011030080021205847D8102120584638202120526
:10111300846A8302120584F584021205846A8502B7
:10112300120584198602120584168702120584812A
:101133008702120584D487021205842888021205C7
:1011430084328802120584788802120584DB8802BF
:10115300120584738902120584E88902120584D476
:101163008A021205844F8B02120584698B021205D1
:1011730084988B02120584C58B021205845C8C0251
:101183001205846C8C02120584BF8C02120584CB79
:101193008C02120584D78C02120584E08C0212059E
:1011A300842B8D02120584868D02120584D78D024D
:1011B300120584F28D02120584288E0212058449D9
:1011C3008E02120584538E02120584688F02120563
:1011D30084868F02120584F88F021205840B900215
:1011E300120584199002120584BA90021205848EA6
:1011F3009102120584AF92021205842B9302120509
:1012030084359302120584A89302120584BF9302C6
:101213001205840194021205843F94021205846E20
:101223009402120584A59402120584C39402120544
:1012330084E7940212058428950212058417960206
:101243001205845D9602120584889602120584FBBA
:1012530096021205842297021205846797021205EB
:1012630084759702120584CE97021205840B9802A7
:10127300120584529802120584839802120584A6EB
:101283009802120584B19802120584CF98021205C0
:10129300848B9902120584959902120584D49902CC
:1012A300120584EA99021205842E9A0212058442D9
:1012B3009A021205842D9B02120584409B0212059B
:1012C30084559B02120584FD9B02120584499C02EE
:1012D300120584FF9C021205840A9D02120584589C
:1012E3009E02120584849E02120584C59E02120585
:1012F30084DF9E02120584509F02120584DC9F0244
:1013030012058413A00212058476A202120584FE3C
:10131300A2021205847EA302120584C1A50212054E
:1013230084D1A502120584D4A502120584E0A50286
:10133300120584F4A50212058413A602120584463D
:10134300A6021205840BA70212058472A7021205D6
:1013530084D6A70212058460A80212058411A9028B
:101363001205843FA902120584CFA902120584DB6A
:10137300A9021205840AAA021205842CAA021205E4
:101383008453AA02120584B8AA021205846BAC0224
:101393001205846EAC02120584D8AC02120584CB0C
:1013A300AD02120584B2AE021205843DAF021205EE
:1013B3008480B00212058443B1021205847CB10219
:1013C300120584ADB102120584B6B1021205849AE6
:1013D300B2021205842AB302120584C8B3021205AD
:1013E3008488B40212058401B502120584EAD4028A
:1013F3001205846DB5021205840080031205840E64
:1014030080031205848A8003120584C080031205B9
:10141300840B81031205843583031205842F85030E
:101423001205841C88031205844A88031205846C00
:101433008803120584D988031205840D89031205D4
:10144300844A8903120584EF2300120584B58903B6
:1014530012058444E60312058438A6031205845456
:10146300A703120584FFA7031205844FA8031205DF
:10147300849BA803120584CAA803120584CDA8037C
:10148300120584D0A8031205842FA903120584D65C
:10149300A903120584BDAA03120584F1DC03120516
:1014A300840ADD0312058455DD03120584A0DD03E0
:1014B30012058443DE0312058453D803120584996D
:1014C300D90312058423E703120584F1D903120516
:1014D3008408DA0312058448DA03120584F7DA0371
:1014E30012058424DB03120584C6C9031205844153
:1014F300CA031205844CCA0312058471CA03120578
:1015030084F38903120584FD8903120584438A0346
:10151300120584EC8A03120584128B03120584DB03
:101523008B03120584C58E03120584CE8E03120528
:1015330084248F031205844F8F03120584B48F0311
:10154300120584259003120584659003120584CA4D
:101553009003120584F3900312058481910312050D
:1015630084E19103120584139203120584239203E9
:101573001205843392031205845292031205840CDC
:1015830093031205842AE2031205840CD303120584
:10159300846BD30312058497D3031205849AD4036F
:1015A3001205843FDA0212058423DB021205845EEE
:1015B300DB0212058416DD021205845ADD021205D0
:1015C30084F5DE021205843CDF0212058418E00272
:1015D300120584A2E0021205843FE10212058497FA
:1015E300E102120584DAE1021205848AE30212059C
:1015F3008441E50212058477E70212058481E7023C
:10160300120584DEE70212058433E80212058471B1
:10161300EB02120584E8E803120584FEE8031205D1
:10162300842DC40312058445C403120584E1C40355
:1016330012058422C5031205843FC5031205846580
:10164300C5031205849BC503120584D2C503120585
:1016530084FCC603120584D4D40312058444D50341
:101663001205845FD503120584A4D503120584CA29
:10167300D50312058461D6031205847BD6031205B4
:101683008495D603120584E86F0012058433700035
:10169300120584137100120584C97100120584DEDA
:1016A30071001205842872001205847672001205F7
:1016B30084897200120584CE7200120584E27200DE
:1016C300120584C37400120584CC750012058407C7
:1016D300760012058405780012058420780012052F
:1016E300846178001205849D7800120584FD7800DA
:1016F3001205840D79001205842B7900120584AE3E
:101703007900120584487B00120584697B00120569
:10171300849D7B00120584D07B00120584E07B004E
:10172300120584EC7B00120584EF7B0012058466AE
:101733007C001205840E7D001205843F7D00120596
:1017430084627D001205847F7D00120584E17D00A3
:10175300120584037E001205846B7E00120584A6A5
:101763007E00120584B87E0012058422E40312056C
:101773008433E403120584C4E40312058421E001E5
:101783001205844FE001120584BBE10112058411A7
:10179300E2011205849AE201120584FDE2011205B9
:1017A300843FE301120584B7E3011205845EE4017B
:1017B300120584D4E40112058414E501120584435F
:1017C300E901120584FCEA01120584CDEB0112053F
:1017D3008419EC011205840EEE0112058485F001D3
:1017E30012058426F10112058461F2011205844C6D
:1017F300F5011205845CF50112058495F6011205C5
:101803008400F70112058413F801120584C2F9015B
:10181300120584B3EB021205846DEC02120584DD1C
:10182300EC021205846EED02120584B1ED0212057D
:101833008486EE02120584FBEE02120584EAF102AD
:1018430012058469F202120584D2F202120584841D
:10185300F4021205843CF502120584BEF50212055A
:101863008463F70212058406F802120584D1F80294
:10187300120584CAE503120584FDE50312058402FB
:10188300E6031205842EE60312058411D103120523
:101893008479D10312058426D2031205848CD203E2
:1018A300120584ADBE0312058406BF031205848DA1
:1018B300C003120584C27E00120584077F0012054F
:1018C30084BB7F0012058498D603120584A6D60331
:1018D300120584EDFF011205845FFF021205846F78
:1018E300FF021205848DFF02120584F5FF02120523
:1018F30084FAE00312058421E103120584AAE103BB
:1019030012058411E203120584DD9D031205847917
:10191300DB0312058497DB03120584FADB0312054C
:10192300841ADC0312058466DC03120584C0DC031D
:1019330012058477AF031205848CAF03120584FB71
:10194300B0031205843CB10312058456B10312059A
:1019530084E0B10312058454B20312058470B20308
:1019630012058485B20312058493B203120584AD74
:10197300B203120584C4B203120584E9B20312054B
:10198300843AB303120584DAAA03120584E8AA038E
:1019930012058466AB031205848CAC031205841212
:1019A300AF031205845CDE0312058494DE03120583
:1019B30084B8DE0312058416DF0312058478DF037F
:1019C30012058422FA02120584A1FA021205845434
:1019D300FB02120584C5FB02120584D7FC02120523
:1019E3008453FE02120584B3FE0212058401FF0232
:1019F3001205840AFF0212058420FF0212058432B5
:101A0300FF0212058444FF021205844DFF021205F2
:101A13008474FA01120584C7FA0112058447FD0193
:101A23001205847FFD01120584A4FD01120584BD06
:101A3300FD01120584D6FD0112058411FF01120573
:101A430084AEFF01120584C59B03120584089C0321
:101A5300120584199C03120584479C03120584779D
:101A63009C03120584B29C03120584229D03120574
:101A730084559D031205841AC70312058445C703C1
:101A83001205848CC7031205849EC703120584BA0A
:101A9300C70312058422C8031205842BC803120549
:101AA300848CC803120584B0C8031205847AC90361
:101AB30012058487C90312058498C903120584B7E4
:101AC300E60312058404E70312058403B703120532
:101AD30084FCB70312058411B80312058424B803E8
:101AE3001205843EB8031205845DB803120584DC35
:101AF300B8031205849CB9031205840EBA031205B8
:101B0300846BBA031205847BBA0312058416E503BA
:101B13001205843BE50312058464E5031205848CF6
:101B2300E503120584CACE03120584E3CE0312052E
:101B330084EFCE0312058403CF0312058427CF035A
:101B430012058433CF0312058442CF031205845553
:101B5300CF031205848ACF03120584C4CF03120571
:101B630084F9CF0312058448D00312058494D0036B
:101B7300120584ACD003120584B6D003120584C7C2
:101B8300D0031205840BD103120584D3E703120596
:101B930084009E031205842C9E03120584489E0331
:101BA3001205845B9E03120584719E03120584DC77
:101BB3009E03120584169F0312058485A203120552
:101BC30084A2A303120584D3A30312058433A403BD
:101BD30012058416A5031205843EA503120584533A
:101BE300A50312058463A503120584A4A5031205A6
:101BF30084F9A5031205840FA603120584B7DF0336
:101C0300120584D2DF03120584FCDF031205841955
:101C1300E00312058441E00312058463E003120527
:101C2300847CE003120584ABE003120584C6E00361
:101C33001205841BE80312058471B303120584782B
:101C4300B30312058485B403120584B7B4031205E4
:101C530084DDB40312058410B50312058422B50391
:101C63001205845DB503120584CDB5031205840AFC
:101C7300B60312058457B60312058485B60312050D
:101C830084A5B60312058476CC031205848ECC0397
:101C930012058495CD031205842BE3031205848179
:101CA300E303120584BFE30312058400E403120572
:101CB300843D93031205844893031205849E930382
:101CC3001205848C9503120584EC9503120584D3C5
:101CD30096031205841797031205843F9703120591
:101CE30084CC9703120584BF9903120584AC9A032D
:101CF300120584429B03120584839B031205848A85
:101D0300BA03120584B2BA03120584FBBA0312059F
:101D1300841DBB0312058445BB031205845BBB030F
:101D230012058467BB0312058483BB031205847009
:101D3300BC03120584A7BC03120584B1BC031205BE
:101D43008465BD031205846FBD0312058479BD0349
:101D530012058483BD031205848DBD0312058426F9
:101D6300C10312058411C40312058491E80312050B
:101D7300845BE803120584C0E80312058408E903C1
:101D83001205841CD40212058434D302120584F58F
:101D9300D202120584C4D202120584A6D20212050D
:101DA3008438D202120584F2D1021205845DD10275
:101DB300120584EECD02120584BACD021205847396
:101DC300CD0212058448CD021205849ECC02120571
:101DD3008451CC02120584C3CA02120584C0CA020C
:101DE300120584E2C902120584AEC902120584E910
:101DF300C8021205841CC7021205840ADA021205FE
:101E030084ECD90212058401D902120584CFC602DB
:101E1300120584A0C6021205849DC6021205849091
:101E2300C60212058466D80212058456C60212053C
:101E33008448C60212058410C5021205848CC402AC
:101E430012058478890312058429D7021205845266
:101E5300C402120584F6C302120584C9C302120523
:101E630084D6C00212058494C00212058488C0027D
:101E7300120584E8BF021205841FBF021205846F96
:101E8300BC021205849BB9021205845CB9021205D7
:101E930084FBB702120584A7B702120584EBB602CE
:101EA300120584BEB60212058415B602120584AE6D
:101EB300B502120584E8B50212058430B5020000AC
:101EC3000080FBE47387000100E81A24000200C2CB
:101ED3001A25000200C41A26000200C61A270002AF
:101EE30000C81A28000100CA1A29000100CB1A846D
:101EF300000400CC1A86000100D01A2A000100D188
:101F03001A2B000100D21A2C000100D41A2D00084C
:101F130000E4122E000100D51A2F000100D61A305A
:101F2300000100D71A31000100D81A32000100EC79
:101F33001233000100ED1234000100D91A350001FB
:101F430000DA1A36000100EE1283000200E61A627C
:101F5300001000F712660010000813630001000769
:101F63001364000100E31265000100D31A4300016A
:101F730000DB1A44000200DC1A45000100DE1A46A9
:101F8300000200DF1A47000800EF1248000100E1D9
:101F93001A49000100E21A4A000200E31A4B000149
:101FA30000E51A04000100E91AA1000100EB1A3749
:101FB300000100EA1A0000000000000001363601AB
:101FC30001000102010001030100010401060605ED
:101FD300020000070100340801000F090401010D8C
:101FE3000100FF0E08000017020000190100FF1A8C
:101FF3000100011B0100051C0100081D0200001F58
:1020030001000120010001210200002301000F242F
:102013000200002601000127010308280200FF2A0D
:102023000100072B0102402C0100002D0100012EAD
:102033000100012F0100FF30010B1C310800003AA1
:1020430001000803007100300160001100700031CD
:10205300022003500480001000610000001400639C
:1020630000730072006200430000001300060000CA
:102073000000000400120000000000000000000443
:10208300000400370037003C024400000000000059
:10209300000000650000003500810000000500001D
:1020A300008300000001017101010101011101011F
:1020B300013101010101018001100161013B0014A3
:1020C3000063017301720162014301000113010600
:1020D300013D01350004011201000100010001006E
:1020E3000104010401330133013C0144013201368F
:1020F30000000100016501000135008101000105B7
:1021030001820183010001030471040204600411CC
:1021130004700402040204010402041004610400B4
:102123000414046304730472046204430400041378
:102133000406040004000404041204000400040060
:102143000400045104640000040004000444040077
:1021530004000400040004650400043504810464DD
:1021630000050400048304000403027102300160CB
:1021730002110270020102020202028002100261D5
:10218300023A0041006302730272026202430200D8
:1021930002130238000002000204021202000200CD
:1021A300020002000204020402370037003C02442A
:1021B30002000239000002000265020002350281BA
:1021C300020002050282028302000201037103017D
:1021D30003010301030103010322030203010310AB
:1021E3000300030003000300030003000300034292
:1021F300030003240306030003000304031203255F
:102203000323032503230304030403000300030040
:102213000344030003000323030003650321003584
:1022230003810300030503000300030003360001D9
:1022330000060000000F0000000000000000000086
:1022430000000003FFFF00000403FFFF0000FFFF87
:102253000FF4010005C4040320000100000B00007B
:102263000000000000000301000037181300D1171D
:102273000100371802009B170300A1170400A717DA
:102283000500AD170600B917FFFF0000010B0E068E
:10229300410E083B0E0B530E109F0D02110E052F1E
:1022A3000E07170E0CF90D0D050EFF0000030003BA
:1022B300000400080010001F003E007B00F600EC45
:1022C30001D703AF075D0FB91E713D0000371267D9
:1022D300123D124312611255124F126D127312798D
:1022E300128512491231122B12D5C5C5B5A5A59574
:1022F300858575756565555545453535252515051B
:102303009C36063A703DD9404344AD47174B814E46
:10231300EA5100160F00000B150B020002220F32C8
:1023230000000656777777777777777777777777BA
:10233300777777000102030405060708090A0B0CE7
:102343000D0E0F21133313391301123F13FB110722
:10235300129913B713BD139F13AB13A5133B113579
:1023630011711177116B11231130301618192023B5
:102373001A1C1E300C0E020B040B0A0708000F0078
:10238300383C3E363B3B352B432C000119161816BF
:10239300161523030000034948424D18172505026B
:1023A300303017181921301B1D1F308D1345134B67
:1023B30013571351135B127F12B1138B12911247F0
:1023C300114D1141117D110005150D09100804006F
:1023D300BE040A53116511150004000E00030928F9
:1023E3000F010809000C040810080C0574F6120309
:1023F3006674FF120896E4851082851183F0858246
:102403000885830978081207EE75080175090078B5
:10241300081207EE123D211208367401023B0A74BA
:10242300F61203668C088D0978081207EE75080BFF
:1024330075090078081207EE123D21023B0A74F673
:102443001203668C088D0978081207EE75080B7560
:10245300090078081207EE123D2C123C35023B0AA4
:10246300C082C0838A828B83E0D2E7F012174102D5
:1024730047B7C082C08379001224FDC082C0839015
:10248300042D12584BD083D082C3E09CA3E09D500F
:102493000C124DB0FAA3E012256E6001090247B792
:1024A30074F71203661224FD1226A9AEF075F00B21
:1024B300EDA42EFD90042FE02CFEA3E03DFF74015C
:1024C30069600574026970208A828B83A31259ADF7
:1024D3001269917402697018122929122A3970102D
:1024E300E48E828F83F08008EA2403FCEB122A2116
:1024F300EEFAEFFB120A750236E2126052EB125C3F
:102503004D2274F41203668A088B091259B37900B9
:102513008A828B83E0604E7E007F00804312256BAE
:10252300703B1226F5F50AA3E039F50B8508828581
:102533000983E08C82850B831240F4F8A3E0F98CC5
:1025430082850B83122A41FCE5091229B7122A2935
:10255300125C52AA0AAB0B120A75125EDF122E9797
:1025630012293140B80240EFEEFAEFFBEA75F00BA7
:10257300A4FAACF075F00BEBA42CFB90042F126DB6
:1025830051F583E0540F2274F51203668A088B0910
:10259300740B120A5F125EE4750A01EC7001ED60C0
:1025A30026EC122B0FED124A867901120A81EE7086
:1025B30001EF606E8E828F83A31259BB7902EEFA0C
:1025C300EFFB120A81805BEE7001EF6031122B0E7C
:1025D300EF124A86EE2403FAEF122A33700CAA088C
:1025E300AB09120A87E9F50A80CAE5082403FAE56C
:1025F30009122A33702C7903AA08AB0980C48A8292
:102603008B83A3E064FE7004A3E064FF7005122AC9
:1026130030700CAA08AB09120A87E9F50A80037522
:102623000A0002376574F712036690042D124D43B6
:10263300EA7001EB6031EA75F00BA4FAACF075F0C7
:102643000BEBA42CFBEAFEEBFF12159790042F1261
:102653004D4390042FE07002A3E06012EEFCEFFD07
:102663007900121513800790042FE4F0A3F00236CB
:10267300E274F612036675080075090078081207FC
:10268300EE90042D1226A9AAF075F00BEDA42AFDF5
:102693007A237B001215FD7402120836E9FE6003EB
:1026A300120A9F023AEA12584FEC75F00BA4FC226F
:1026B30074F71203667E007F00800AEEFAEFFB12C6
:1026C3001447122E9712274940F10236E274F7128B
:1026D30003667E007F0080121226F5FCA3E039FD1D
:1026E300EEFAEFFB120A6F122E9712274940E90206
:1026F30036E2EEF8EFF9122736E0282274F71203D8
:10270300667E007F008020122732125A2088828939
:1027130083E0A2E7500EC2E7F0AC82AD83EEFAEF9E
:10272300FB120A69122E9712274940DB0236E2EEAA
:10273300F8EFF9E875F00BA4F8AAF075F00BE9A42B
:102743002AF990042F2290042D124AA7C3EE98EF82
:102753009922C082C083EC7001ED6005121CAB802E
:10276300097C087D0079001215130247B774F6122D
:1027730003667900EA7001EB60177C008C08EA2598
:1027830008125ED8600479017C080CECC3940840FD
:10279300EB023B0D74F712036674F3120896ECFE1A
:1027A300EDFFE4851082851183F07401120A5F1234
:1027B3003D58120AD57403120A5FAC82AD83EEFA58
:1027C300EFFB120AB1EEFAEFFB120AB70236DD7421
:1027D300F712036674F3120896ECFEEDFFE485101E
:1027E30082851183F0EAFCEBFD7403120A5F123D4C
:1027F3008F7401120A5F122B13124A9074FE6870D1
:102803000374FF6960047901800279000236DD7484
:10281300F7120366EAFEEBFF122860701012286BB2
:1028230064FFFC8A828B83E05CF0120A75024056D7
:1028330074F7120366EAFEEBFF7508008E828F833E
:10284300E06017122860701212286B8A828B83FC57
:10285300E05C7006E04CF0120A75024056120A7BE7
:10286300E9F5087401650822EE126053EF124AA3DA
:10287300122736E028FAA3E039FB8E828F83E02209
:1028830074F41203668A088B097C007D00122929DF
:10289300122A29E508122B0FE5091259B779008589
:1028A3000882850983A3E064FE7004A3E064FF60EB
:1028B300727E007F00806712256B605FEEFAEFFB8C
:1028C300EA75F00BA4FAACF075F00BEBA42CFB90BB
:1028D300042FE02AF50AA3E03BF50B85088285095E
:1028E30083A31259A2850A82850B83A3E06A70032E
:1028F300A3E06B7026E50A2403FAE50B122A337072
:1029030014E50A2403FCE50B3400FDE5082403FA6F
:10291300E509122A29125C52125EDF122E97122940
:102923003140940240EFEA24030A0A0AEB2290049E
:102933002D1259A9C3EE9AEF9B2274F21203668AF1
:102943000A8B0B8A828B83A31259BB1259B3750866
:1029530000122A3070597E007F00804E12273212F7
:102963006D42E0540F60401226F5F50CA3E039F5F3
:102973000DE50C2403FCE50D1229B73400FB121CF2
:10298300A5E964017021850C82850D83A312584447
:10299300850A82850B83A3E8F0A3E9125058125CE1
:1029A3005D750801125EE1122E9712274940ADA909
:1029B3000802397A3400FDE50A2403FAE50B227490
:1029C300F5120366EAFEEBFF8E828F83A31259BBD7
:1029D3007C007D00EE24030A0A0A122A28EEFAEF8D
:1029E300FB120A7BE9F50A7401650A702E12405B3B
:1029F3001258441226F9F508A3E039F5098508822F
:102A0300F583A3122B13122A41FAE509122A337014
:102A13000AE5082403FCE509122A2102376534007C
:102A2300FDEE2403FAEF3400FB120AB12212292926
:102A3300122A396401223400FB120AB7E922A3E8FF
:102A4300F0A3E9F0E50824032274F212036674E6A6
:102A5300120896EAFEEBFF122B0EEF1259B7750818
:102A630001750A00750B00750C00750D00E48510E7
:102A730082851183F0EE2403FCEF3400FD7403120E
:102A83000A5F123F366401702D740B120A5F124CF9
:102A9300F2122B0FEF124A8D7401120A5F122B13DD
:102AA300A3E0687003A3E0696053851082851183F6
:102AB30085820A85830B740D120A5F122B2112582B
:102AC30044740E120A5F124A90740D120A5FAA82AE
:102AD300AB83120AD5E96401700B740D120A5F858A
:102AE300820C85830D780C1207EEAC0AAD0BEEFA5F
:102AF300EFFB120A8D7402120836E9F508EEFAEFBD
:102B0300FB120ACFA908741A023977EE1260532216
:102B1300122B1722E0F8A3E0F98E828F8322E412AE
:102B23002B2622F08E828F83A322C082C083122B96
:102B33004FEC75F012A4FCAAF075F012EDA42AFD77
:102B430079FF7AD17B151215130247B79023DAE484
:102B530093FC740193FD2274F7120366E9FEEAFF06
:102B63007C007D0078007900802DE8FAE9FBEA75A6
:102B7300F012A4FA85F00875F012EBA42508122FC1
:102B8300C8C39E400FE0FAEFC39A4008EC24010C3F
:102B9300ED3400FD1234CA9023DA12345140CBECE9
:102BA300FAEDFB0236E2C082C0837800790080032D
:102BB3001234CA9023DA123451500C122FB264FF2C
:102BC30070EE12305680047A007B000247B774F02F
:102BD30012036674F31208968A0E8B0F8C088D0904
:102BE300890AEC7001ED6015AA08AB09120B238A60
:102BF3000C8B0DAE0CAF0DEE7001EF704B120AF99A
:102C03008A0C8B0DA80CA90DE8FEE9FFE87001E919
:102C130060367401851082851183F0120A5FE50E18
:102C2300F0A3E50FF0AC08AD097403120A5F122D8F
:102C33006B740B120A5F124557124A90122CE7AAC3
:102C43000EAB0F12107B8006EE7001EF60727A00FC
:102C5300E50A6007C3940550027A048E828F83E5E8
:102C63000EF0A3E50F12366AE50AF0EA8E828F832F
:102C7300A3A3A3A3A3F074028E828F83A3A3A3A30E
:102C8300A3A3A3A3F074018E828F83A3A3A3A3A3FF
:102C9300A3A3A3A3126598A3F0EE2410122CE0E4DF
:102CA300F0A31241C1A3A3F012405BE4F090817E34
:102CB3007808120A38EE240C122CE07808120A293C
:102CC300122F02400EE4901A66F07A667B1A79415D
:102CD300121D11EEFAEFFB026911EE240DF582EFDE
:102CE300125C4D22E48E828F83A3A3A3A3A3A3F03C
:102CF30090047D12584F2274F212036674F3120883
:102D030096EAFEEBFF8C088D09750A00AA08AB0949
:102D1300120B238A0C8B0DA80CA90DE87001E96036
:102D23004088828983E06E7003A3E06F60338882FA
:102D33008983A3A3A3A3E0C3940550258882898331
:102D4300125C5D7401851082851183F0120A5F1293
:102D53005C5DAC08AD097403120A5F122D6B750A32
:102D630001A90A740D023977123D9A120AE72274F7
:102D7300F61203661254AB7001E9601488828983EA
:102D8300A3A3A3A3E06009C39405500479018002BF
:102D93007900023B0D74F61203661254AB7001E91D
:102DA300601488828983A3A3A3A3E06009C3940367
:102DB3005004790180027900023B0D74F612036618
:102DC300120B1D8A828B83E5827002E583600BA35D
:102DD300A3A3A3E07004790180027900023B0DC034
:102DE30082C083EAFCEBFD7A007B00120B290247C9
:102DF300B7C082C0837C007D0080F074F412036648
:102E030074F31208968A0A8B0B8C088D097E007F57
:102E1300008021123369120A5F122E9C601374031F
:102E2300120A5FAC82AD83AA0AAB0B121CA5E97030
:102E330038122E97122E8E504912320760F3E50A8C
:102E43007002E50B70CD74FF6508700474FF6509AB
:102E530060DFEEF8EFF9E875F012A4F8123352656B
:102E6300087004A3E0650970C8EE75F012A4FEAA09
:102E7300F075F012EFA42AFFEE24D1FAEF3415FB1C
:102E830080047A007B00740D0240EC9023DA123A3E
:102E9300200227501231F3FF22E8F0A3E9123DB4D8
:102EA300120AE1E92274F412036674F312089675A8
:102EB3000800120B238A0A8B0BAE0AAF0BEE7001CC
:102EC300EF602A740185108285118312470DF8A3E0
:102ED300E0F9740B120A5F123DAC120AC97C127D31
:102EE3000079FFEEFAEFFB121513750801122F029A
:102EF30050097401901A66F0120F5BA90880877A53
:102F0300047900120AF39023DA123A20EA98EB9933
:102F13002274F7120366E9FE74FE6A700374FF6B92
:102F230078007900700580591234CA9023DA12347C
:102F3300BD504EE8FCE9FDEC75F012A4FCAFF07552
:102F4300F012EDA42F126923ED12321F60DAE8FCB0
:102F5300E9FDEC75F012A4FC75F012EDA42FFDEC65
:102F630024D1F582ED3415F583E06A7003A3E06B99
:102F730070B6800A122FB26005C39405401A12344A
:102F8300CA9023DA123451501FEE70E8122FB26444
:102F9300016005E0640370E6E875F012A4F8AAF096
:102FA3001233591259A080047AFE7BFF0236E2E8FD
:102FB300FAE9FBEA75F012A4FAACF075F012EBA48F
:102FC3002C122FC822FBEA24D5F582EB3415F583A6
:102FD300E022120B350247B7C082C083790180F229
:102FE30074F01203668A0E8B0F7A047901120AF3C6
:102FF3008A08AE08EE7001EB6044EAC333FAEB33A0
:10300300FB1215978A0A8B0B8A088B09EA7001EB6E
:1030130060287AFE7BFF120B3B74FE6A700374FF19
:103023006B6021850A82850B83124D43E50A2402D6
:10303300F50AE50B3400F50B80DC7E00800675088D
:1030430000750900EE850E82850F83F0AA08AB098F
:10305300026916E875F012A4F8AAF075F012E9A453
:103063002AF9E824D1FAE93415FB2274F61203662F
:1030730075080075090078081207EE9023DA123BF1
:103083001E740378081209951231FB7B001215FD9B
:103093007402120836E9FE6003120B4D023AEA7419
:1030A300F612036674FE120896123B4B023AEE7454
:1030B300F612036674DF1208967E0085108285116E
:1030C3008385820885830978081207EE7508028EC6
:1030D3000978081207EE7C007D00123C3312083693
:1030E300E960030231708079740F120A5F858208E8
:1030F30085830978081207EE7508087509007808B2
:103103001207EE8E087403780812099574022508D5
:10311300FCE43509FD123C33120836E970427402AF
:10312300120A5F7401F07411120A5F125844740D8D
:10313300120A5F124A907402120A5FAA82AB8312C8
:103143000AE1E9601B7413120A5FE0F97405120ABD
:103153005FAC82AD83740F120A5F1259A2120AFF89
:103163000E8E08123C25E49950030230EBEEF974FD
:1031730021023B0A74F612036674FE120896851048
:1031830082851183E4F0A3F0FE804E12320760467D
:10319300EEF8EFF9E875F012A4F875F012E9A42A35
:1031A300F9E824D1F508E93415F50978081207EE92
:1031B30075080875090078081207EE7404120A5F8F
:1031C300123987740378081209951231FB123D24D2
:1031D300120836123D111231F3FF122E8E40AC85C8
:1031E30010828511838582088583097808023AEE67
:1031F300EE24010EEF34002274022508FCE43509A5
:10320300FD7A2222EEF8EFF9E875F012A4F8AAF09D
:1032130075F012E9A42AF9E8126925E9122FCF649F
:10322300FF2274F71203667A007B00800919EA24EF
:10323300010AEB3400FB122B4FC3EA9CEB9D503A7F
:10324300EAFCEBFDEC75F012A4FCAEF075F012EDA8
:10325300A42E126923ED122FCFC3940550D0E97029
:10326300CCEA75F012A4FAACF075F012EBA42CFBC7
:10327300EA24D1FAEB3415FB80047A007B00023692
:10328300E274F712036674F31208967E007F00025D
:103293003321E508125C2D1259A0EEF8EFF9E87519
:1032A300F012A4F8ACF075F012E9A42CF9E8126658
:1032B300D36A7003A3E06B6044E50875F017A4F8C4
:1032C300AAF0EAF9E8244BF582E93417F583123EB4
:1032D300B1120A5FE0687003A3E0696020E5087536
:1032E300F017A4F8EAF9E8244DFCE93417FD740358
:1032F300120A5FAA82AB83121CA5E96011E5087567
:10330300F017A4244BFAE5F03417FB1210870508D5
:103313009023E5125E165003023295122E97122E59
:103323008E5029EEF8EFF9E875F012A4F8AAF0121E
:10333300335264FF7004A3E064FF60DF1233691249
:103343000A5F122E9C60D475080080C40236DD1219
:103353003359F583E02275F012E9A42AF9E824D160
:10336300F582E93415227401851082851183F0EE0C
:10337300F8EFF9E875F012A4F875F012E9A42AF948
:10338300E824D3F582E93415124AA5740B2274F6A6
:10339300120366123B12FC740193FDEC8508F0A442
:1033A300CCAAF08509F0A42AFA8508F0EDA42AFD39
:1033B30079FF7A187B1A121513900432747DF0A3E7
:1033C300740BF09004347477F0A3740BF09004360C
:1033D30074A1F0A3740BF090043874B3F0A3740BCE
:1033E300F090043A74B9F0A3740BF090043C74BFEA
:1033F300F0A3740BF090043E74C5F0A3740BF0E4D7
:10340300900431F0023B0DC082C0837800790080C4
:10341300031234CA12344E501CE8FAE9FBEA75F081
:103423000EA4FAACF075F00EEBA42C12343F70E14D
:103433001238BB80047A007B000247B7FBEA2418EA
:10344300F582EB341AF583E064FF229023DCE493E6
:10345300FA740193FBC3E89AE99B2274F71203669B
:103463007A007B00780079008045E8FCE9FDEC7583
:10347300F00EA4FCAEF075F00EEDA42EFDEC2418B6
:10348300F582ED1234466024E8FCE9FDEC75F00E9C
:10349300A4FC75F00EEDA42EFDEC241DF582ED3495
:1034A3001AF583E0FCEA2CFAEB3400FB1234CA90E1
:1034B30023DC1234BD40B30236E2E493FC7401937F
:1034C300FDC3E89CE99D22E8240108E93400F922C0
:1034D30074F112036674FC1208967402120A5F12E6
:1034E3004D43890E8C088D0B7E007F00120BDD741B
:1034F30002120A5F1259A2120BE3124D3D7402121B
:103503000A5F1254EC7007750A018E0980058E0A52
:10351300850809851082851183E064FE7004A3E0A9
:1035230064FF70030236408E088002050885080C8C
:103533009023DC12695B40030235D3A808E875F0D9
:103543000EA4A9F01239B2650E70E0E875F00EA46E
:1035530012397F650A70D412583EE50875F00EA43F
:10356300241AF582E5F0341AF583E0687003A3E0CA
:103573006970B8A808E875F00EA4A9F0241CF582B8
:10358300E9341AF583E0650970A1E875F00EA42407
:1035930018FEE9341AFF750800E508C3950B4003CC
:1035A300023640E508C333F8E433F97413120A5FB3
:1035B300123659120B89E97013E508C333F8E43363
:1035C300F97413120A5F123659120B95050880C954
:1035D300120B718A0C8B0DAE0CAF0DEE7001EF6008
:1035E3005C8E828F83E50EF0A3E50A1246F68E8287
:1035F3008F83A3A3E8F0A3E912366AE509F09023C9
:10360300E9E493C3950B5004E493F50B8E828F8307
:10361300A3A3A3A3A3E50BF07413120A5F123987C4
:10362300750A0078081207EAE50BC333FCE433FD9F
:10363300EE2406FAEF3400123652120836EEFAEF91
:10364300FB7404800274121208367F070205E6FB3E
:10365300121507740322126D4612366022E0FCA392
:10366300E0FDEEFAEFFB22122B26A3A3A322C082D6
:10367300C0839023DE122B5279FF121513790102B6
:1036830047B774F7120366EA7001EB60498A828BCD
:1036930083A3A3A3A3A3A3E5827002E58360377E7C
:1036A3000080010E8A828B83A3A3A3A3A3E0FFEE72
:1036B300C39F5022EEC333F8E433F9EA28F582EBD3
:1036C30039F583A3A3A3A3A3A3E06C7003A3E06DC5
:1036D30070D17901800279008005740D1208367F5C
:1036E300010205E674F5120366EA7001EB605F8A76
:1036F300828B83A3A3A3A3A3E06063EA2406F8EB6E
:103703003400F98A828B83A3A3A3A3A3E0F50975ED
:103713000800800DEA2405F582EB125995603F05F8
:1037230008E508C395095026E5081237ADE06C702B
:1037330003A3E06D60DE1237B3125EE488828983EF
:10374300125C5DE824020808E93400F980D18A821A
:103753008B83A3A3A3A3A3E0600479018002790070
:103763008002A90A7F030205E674F7120366EA7072
:1037730001EB60318A828B83A3A3A3A3A3E0C0E000
:103783009023E9E493FED0E0C39E5019EA2405F8A0
:10379300EB126EAC1237AD12699188828983E00413
:1037A300F07901800279000236E2C333FEE433FF8D
:1037B300126D5A02697474F41203668908EAFEEB07
:1037C300FF8C098E828F83A3A3A3A3A3A3A3A3E048
:1037D300640170098E828F8312584B80031239BDA6
:1037E30074FE6C700374FF6D70077A007B000238FF
:1037F3007B78007900801412387E6401700A1238D5
:103803009C7003A3E06D606D1234CA12344E50DA1B
:10381300E8FAE9FBEA75F00EA4FA85F00A75F00EF2
:10382300EBA4250AFBEA2418F582EB341AF583E0AE
:10383300650870D48E828F83A3A3A3A3A3A3A3A39A
:10384300E0640160B212387E70BE12389C7003A32C
:10385300E06D70B4E8FAE9FBEA75F00EA4FA75F0CE
:103863000EEBA4250AFBEA241CF582EB341AF5833C
:10387300E0650970931238BB0240EFE8FAE9FBEA0E
:1038830075F00EA4FA75F00EEBA4250AFBEA2419D1
:10389300F582EB341AF583E022E8FAE9FBEA75F0E6
:1038A3000EA4FA75F00EEBA4250AFBEA241AF5829E
:1038B300EB341AF583E06C221238BF22E875F00E60
:1038C300A4F8AAF075F00EE9A42AF9E82418FAE995
:1038D300341AFB2274F21203668A0A8B0B8A828BD8
:1038E30083A3A3A3A3A3A3A3A3E0640170098A8270
:1038F3008B831239878007120BCB8A088B0974FEDE
:103903006508700474FF650960687E007F00805A53
:10391300850A82850B83A3A3A3A3A3A3A3A3E06424
:10392300017041EEF8EFF9E875F00EA4F8AAF0750E
:10393300F00EE9A42AF9E812397F64017029EEF840
:10394300EFF9E875F00EA4F875F00EE9A42AF9E88A
:10395300241AF582E9341AF583E065087004A3E0BC
:103963006509700312398F122E979023DC122E9162
:10397300409E80031208367F060205E62419F5826D
:10398300E9023896E0F508A3E0F50922EEF8EFF92D
:103993001238BF120B8322EEF8EFF9E875F00EA48C
:1039A300F8AAF075F00EE9A42AF9E81239B2222434
:1039B30018F582E9341AF583E022120BCB8A0A8BBD
:1039C3000BAC0AAD0B2274F3120366890CEAFEEB0F
:1039D300FF750A00750B007508007509008029E55D
:1039E3000875F00EA4F8AAF075F00EE5091239AACD
:1039F300650C7011EEFCEFFDAA82AB83120B89E913
:103A03006003123AA5123A299023DC123A20E50802
:103A130098E5099940C9AA0AAB0B024304E493F859
:103A2300740193F9C322E5082401F508E50934007C
:103A3300F5092274F1120366890EEAFEEBFF8C0985
:103A4300750800750A00750B0080050508123AA574
:103A53009023DC1266E5E50B995040E50A75F00EFC
:103A6300A4F8AAF075F00EE50BA42AF9E82418F5DA
:103A73000CE9341AF50D850C82F583E0650E70CDE3
:103A8300EEFCEFFDAA0CAB0D120B89E960BFE50854
:103A9300C3950940B6AA0CAB0D80047A007B0002E3
:103AA300364DE50A2401F50AE50B3400F50B2274C3
:103AB300F612036675080075090078081207EE12FE
:103AC3003B12123CF67583237582DEE49328FCA334
:103AD300E49339FD7A417B001215FD740212083616
:103AE300E9FE6003120BB9EEF9801F1207EE7508A9
:103AF3000275090078081207EE7C007D007A221215
:103B03003D2412083674021208367F020205E6903D
:103B130023DE123B1E9023DCE49322E493F5087426
:103B23000193F5092274F612036674FE12089612C5
:103B33003B4B1207EE75080275090078081207EE71
:103B43007C007D007A4180B7851082851183E4F083
:103B5300A3123D4285820885830978082274F412F2
:103B6300036674E71208967E007F00851082851134
:103B73008385820885830978081207EE7508028E0B
:103B83000978081207EE7C007D007A41123C351259
:103B93000836E96003023C1C8E0880757402120A21
:103BA3005F85820A85830B780A1207EE9023DE1263
:103BB30006BC123CE4123C35120836E9705074100E
:103BC300120A5FAC82AD837404120A5F1259A21207
:103BD3000BD1E960397408120A5F85820A85830B69
:103BE300780A1207EE7409120A5FE0FD7408120ADC
:103BF3005FE0FC7412120A5FAA82AB837404120A98
:103C03005FE0F9120B7D7402120836122E97123AF6
:103C130029123C25E509994083EEFAEFFB7419025A
:103C230040EC851082851183124AA7C3E5089822C8
:103C33007A227B0012160F74042274F51203667441
:103C4300F0120896851082851183E4F0A3F0FE80BC
:103C53005712399A64FF604D858208858309750A76
:103C63000078081207EA9023DE122B527405120A19
:103C73005FAA82AB831236531208367402120A5FAC
:103C830085820885830978081207EE9023DE1206E1
:103C9300BC7404120A5F123987123CE4123D2412E9
:103CA3000836123D111231F3FF9023DC122E91409E
:103CB300A08510828511838582088583097808127F
:103CC30007EE75080275090078081207EE7C007D7F
:103CD300007A41123D241208367410120836023756
:103CE300679023DEE493123CF6740228FCE439FD6A
:103CF3007A4122F8740193F9E88508F0A4C8AAF080
:103D03008509F0A42AFA8508F0E9A42AF922851086
:103D130082851183E02401F0A3E03400F022123DF8
:103D23002C7B00121609740422EA75F00BA4FAAC7A
:103D3300F075F00BEBA42CFBEAFCEBFD7A232212CB
:103D43003D4622F085108285118322A3A3E508F066
:103D5300A3E509F022EAF0A3EB123DB422C082C02E
:103D63008374F3120896123F3B70128A828B83127C
:103D73003EB1120A5F123DAC120AD5800CEAFCEB8D
:103D8300FD7403120A5F123D8F0247AC123D93226A
:103D9300123D9A120ADB22AA82AB83120AB1851062
:103DA30082851183AA82AB8322E8F0A3E9123DB492
:103DB30022123DB822123D4680EA74F7120366745C
:103DC300F3120896ECFEEDFF7404851082851183CF
:103DD300F0740B120A5FEAF0A3EB122EA0F5086051
:103DE3001D74038E828F83A3A3A3A3A3A3A3A3F012
:103DF300120A5FAC82AD83EEFAEFFB121CABA9088B
:103E03000236DDC082C08374F312089674048510F1
:103E130082851183F0740B120A5F123D58120AE176
:103E230074010247AE1259A9740D2274F612036687
:103E330074F3120896900431E0706E740485108256
:103E4300851183F0900470123EB1120A5F124A90FA
:103E5300120F0DEAFCEBFD7403120A5F122D6B12B5
:103E63000F198A088B09A808A9097401120A5FE0CF
:103E7300687003A3E069602B74FE68700374FF69C4
:103E830060217401120A5F124A907403120A5FAA36
:103E930082AB83120F1F851082851183AA82AB83A5
:103EA300120AE77401900431F0740D023B0A124ABE
:103EB300A7740122C082C08374F3120896123F3B99
:103EC3008A828B83701E123EB1120A5FE8F0A3E967
:103ED300125A8B705B851082851183AA82AB831281
:103EE3000AE7804CA3A3A3A3A3A3A3A3E064037043
:103EF30010EAFCEBFD7403120A5F123F3670318047
:103F0300D48A828B83A3A3A3A3A3A3A3A3E0640163
:103F130070128A828B83125844740B120A5FE8F082
:103F2300A3E9800B740B120A5F74FEF0A374FFF015
:103F33000247AC123D93E9227404851082851183F4
:103F4300126572A3A3A3E064022274F5120366EA66
:103F5300FCEBFD7A007B008A088A097800790080EF
:103F6300031234CA9023DCE493FE740193FFC3E885
:103F73009EE99F5038E8FEE9FFEE75F00EA4FE853A
:103F8300F00A75F00EEFA4250AFFEE2418F582EF70
:103F930012344660CCAE08AF0974012EF508E43F35
:103FA300F509EC6E7002ED6F70B71238BB0237671C
:103FB300C082C0839004457429F0A3740EF090046A
:103FC300477423F0A3740EF090044B7467F0A3744A
:103FD3000CF00247B7C082C083900449741DF0A35C
:103FE300740EF00247B774F7120366EAFEEBFF9014
:103FF300047FE064086019E0640460148E828F8398
:10400300E06401704412405B1254BFE064067039EF
:104013008E828F83A3A3E064FE7004A3E064FF6039
:10402300288E828F83A3A31269647003A3E069704F
:104033000BEE2415F582EF125EDB6008120ED1E958
:10404300F5088008120ED780F67508C2EEFAEFFB6A
:1040530012159DA9080236E2EE240B125C4A227463
:10406300F41203668A088B098A828B83E0F8A3E043
:1040730028FAE43400FB1215978A0A8B0BAE0AAFB9
:104083000BEE7001EF6059850882850983E0FC7DA2
:104093000079001215138E828F83A3A31259BB12CA
:1040A3000F138E828F83A3A3A3A3125D0AF8EE28B6
:1040B300F8EF3400F912405BE8F0A3E91240F4C0D2
:1040C300E0122CDDD0E0F0120F25EE240E122CE0CE
:1040D300E912455DE0C0E0EE2411122CE0D0E0F0DF
:1040E300EEFAEFFB80061243CE1208367F04020578
:1040F300E6124562E02274F412036674EB1208962A
:104103008A088B098C0A8D0B9004807808120A297F
:10411300E99004861243C8120A297405120A5FE95A
:10412300F07404120A5F7401F07407120A5FE4F07A
:10413300740290047F80AF74F412036674EB120868
:1041430096EAFEEBFF900441E07002A3E070687A08
:10415300077B00121597900441124D43900441E0F0
:104163007002A3E0604D90044112584B8F838E82FE
:1041730074071207878E828F837808120A38851096
:10418300828511837808120A298E828F83A3A3A3C1
:10419300A3E0C0E07405120A5FD0E01241C1E0C0A1
:1041A300E07404120A5FD0E0F07407120A5F12434E
:1041B30009800679108002790174150240EC1241DE
:1041C300C522F08E828F83026974C082C0839004FB
:1041D30041E07002A3E0600D900441125E1E900462
:1041E30041E4F0A3F0120E4D1210270247B774F307
:1041F30012036674EB120896ECFEEDFF7422120AAA
:104203005F7808120A387426120A5FE0FC742712DA
:104213000A5FE0FD7428120A5FE0F50C740F6C70FE
:1042230005740F6D6012901AD8E06402700579C1AD
:104233000242FFECC39D40F69004807808120A29DD
:10424300E9900486F0EC900484F0ED900485F0E5A9
:104253000C900487F074FF6A700374FF6B701F90F7
:104263001AE6E064FF7004A3E064FF7005121525ED
:10427300800C901AE61246E4E8F0A3E98007900464
:104283007DEAF0A3EBF0EE7001EF6017EEFAEFFBBF
:104293001210E7E96401700BEEFCEFFD7A917B04E9
:1042A300121CAB900470E4F0A3F0900473F0A3F03D
:1042B300900490F0901AD8E06402700A740F90048E
:1042C30084F0900485F0740590047FF07404120A5E
:1042D3005FE4F09004807808120A38851082851113
:1042E300837808120A29900486E0C0E07405120A54
:1042F3005FD0E0F07407120A5F12430974151208C5
:10430300367F050205E6E412430E22123DB8121D64
:104313002922C082C083E9900440F07A807B009018
:1043230004CAE0F912163F120C2B79000247B7C0FA
:1043330082C083900440E070031217CB120C2B024F
:1043430047B7C082C083900440E07007E4901A65C9
:10435300F080317401901A65F0900440E064FF60CE
:10436300237C41E0C394415002E0FCECFAE0C39AA1
:10437300F0EC75F0E8A4CCAAF075F003A42AFD7A5A
:10438300801269807A657B1A7941121D110247B741
:1043930074F412036674EB1208968A088B098C0A6C
:1043A3008D0B740190047F1243C8120A29740512FD
:1043B3000A5FE9F07404120A5F7403F07407120AC7
:1043C3005FE40240E9123D4278082212430E74155D
:1043D3002274F412036674FC120896E98510828530
:1043E3001183F0EAFEEBFF125848120E478A088B3E
:1043F30009EA7001EB700579CA0245528A828B8300
:10440300A3A3A3A3A3A3A3A3A3E064FE7004A3E0B5
:1044130064FF700579C302455290047D1259A212BC
:10442300108DE508240CF582E5091246DBEEFCEF5E
:10443300FD7A917B04121CAB7402120A5F7402F0C2
:104443007401120A5FAA82AB83120F978A0A8B0B3D
:10445300AE0AAF0BEE7001EF700302454812405BEA
:10446300125844740688828983F0A3A882A9839092
:10447300046A12511FF0EE2417F582EF12504EEE2C
:10448300241A122CE0124D43EE2413122CE0740173
:10449300125C427440F0A3E412455DA3A3A3A3A35B
:1044A300A3A3124557124CF7120BFBE9F50A60035D
:1044B30002454B740990047FF0E5082409FEE509E1
:1044C3003400FFEEFAEFFB794B121D118E828F83BE
:1044D300125844900473124A90900472E0FA8510C3
:1044E30082851183E06A600CE0900472124A977926
:1044F300E1121D11901AC6125844901AC8E0687050
:1045030003A3E069601A900443124A90901AC812F8
:1045130059A2120F3D901AC812584B7A01126980A2
:104523007A007B049004CAE0F912163F901AC8126D
:10453300398774027808120995AC08AD09FA7B042F
:104543001269828003750A10E490122DF0A90A748F
:10455300040240EC122B17A3A322124562A322F0FC
:10456300850882850983A32274F012036674E2121C
:10457300089612698B8A0C8B0D742E120A5FE0F574
:104583000890047FE064046005E06408700579C264
:104593000246D6851082851183E0FC120E478A0AF3
:1045A3008B0BAE0AAF0BEE7001EF700579CA0246B2
:1045B300D68E828F83A3A3A3A3A3A3A3A3A3E06401
:1045C300FE7004A3E064FF700579C30246D674034A
:1045D30090047F124A977950121D11EE2409F50AAF
:1045E300EF3400F50BAA0AFB794B121D11851082DB
:1045F3008511831246E4124A90EE2402F50EEF343D
:1046030000F50F850E82F583E09004721246EB905D
:104613000473124A90E50890046AF0AC0CAD0D7A6D
:10462300917B04121CAB74CE55084480C0E0741215
:10463300120A5FD0E0F0EE240CF582EF1246DB7431
:104643000F120A5F74021246EB7407120A5FE8F056
:10465300A3E91246F67410120A5F124A90850E827D
:10466300850F83E0C0E07405120A5FD0E0F0741B8D
:10467300120A5FE412366AE0900485F07A857B04BF
:104683007954121D118E828F83A3A3A3E090048417
:10469300F07A847B047947121D11900484E0C3945B
:1046A3000F50247405120A5FE0C0E07402120A5F1F
:1046B300D0E0F07404120A5F7401F07402120A5F0E
:1046C300AA82AB83121D357405120A5FAA82AB83DB
:1046D300121D17741E026913124DBA04900490F050
:1046E30022124AA790047D22F0850A82850B831249
:1046F3004AA72212699CF8A3E0F922C082C083EB87
:10470300900487F0120E350247B7122B26A3E0223E
:1047130074F712036674F8120896EAFEEBFF790049
:1047230090047FE06408704085108285118374FDD6
:104733001259BD120F0D7402120A5F124D43740514
:10474300120A5F122B21E0C0E07404120A5FD0E06A
:10475300124770C0E07406120A5FD0E0F0740712CB
:104763000A5F124A96120F7974080236DFF00228A4
:104773007DC082C08390045174EBF0A3740CF0905D
:1047830004EB74CDF0A3740FF0900455741BF0A3E5
:10479300740DF090045774EBF0A3740CF09004596B
:1047A3007421F0A3740DF0800B740B120A5F123E98
:1047B30028120836D083D08202057774070240ECB2
:1047C30074F41203668A088B098A828B83125EE46F
:1047D300EE7001EF70030248E1900411E07002A350
:1047E300E060158A828B83A3A3E0F9EEFAEFFB90D6
:1047F30004111254BF121EC68E828F83A3A3A3A3D8
:10480300A3A3A3A3A3E06402707F8E828F83A3A3D9
:10481300A3A3A3A3E0540270030248B085088285D2
:104823000983A3A3E064E970030248B08E828F83F7
:10483300A3A3A3A3A3A3A3A3A3A3E07014901ADB2E
:10484300E0048E828F83A3A3A3A3A3A3A3A3A3A301
:10485300F08E828F83A3A3A3A3A3A3A3A3A3A3E005
:1048630014F074048E828F83A3A3A3A3A3A3A3A38F
:10487300A3F0901ADC124557A3A3E8F0A3E9126B47
:104883007D7001EB700312657A8E828F83A3A3A3DD
:10489300A3A3A3A3A3A3E0640260128E828F83A3C6
:1048A300A3A3A3A3A3A3A3A3E0640670318E828F63
:1048B30083A3A3A3A3A3A3E0A2E050228508828538
:1048C3000983A3A3E0F9EEFAEFFB121DBF8E828FDB
:1048D30083A3A3A3A3A3A3E054FEF0A3E0F00240A9
:1048E300EF74F012036674DD1208968A0C8B0D8C3C
:1048F3000E8D0F7433120A5F7808120A387F007422
:104903000E120A5FAC82AD831213ED740E120A5FAE
:10491300E0A2E5500D0F12599B121DCBE960030273
:104923004A39740E120A5FE0A2E6500E740F120A9F
:104933005FE0540370047E0180027E00740E120A4D
:104943005FE05403FA74026A700912599B121E073E
:10495300024A3974016A7043EE6003124A6C740EA2
:10496300120A5FA882A9837403120A5FE8F0A3E91D
:10497300124A9B851082851183124A90850C828589
:104983000D83A3A3A3A3A3A3E0C0E07402120A5F51
:10499300D0E0124A97121E9D024A39EA6003024A86
:1049A30039740D120A5F7402124A9B7405120A5F6E
:1049B300124A90EE6008740E120A5F124A6C740E6B
:1049C300120A5FE0540C64047071E50C240FF58245
:1049D300E50D125EDBC0E07420120A5FD0E0F090B8
:1049E3000413E07002A3E0604D120F138A0C8B0DC9
:1049F300A80CA90D7405120A5FE0687003A3E069AF
:104A0300703478081207E6EFF50878081207F27891
:104A13000E1207EEEEF97415120A5FAC82AD8374C1
:104A23000C120A5FAA82AB839004131254BF121EA6
:104A3300C67407120836742302691378081207E64E
:104A4300780E1207EE90047D12068FEFF9740D12A3
:104A53000A5FAC82AD837416120A5FAA82AB83121B
:104A63001DB3740812083680CD124A79125C4D12B8
:104A730059A9121E4922AC82AD83E50C240BF582A1
:104A8300E50D22124AA3126052EB125C4DE8F0A32B
:104A9300E9F022E4123DB422F0124A7D124AA32225
:104AA3003400F583E00246F9C082C0831216FF0288
:104AB30047B7C082C0831217050247B7C082C083BD
:104AC30012170B0247B7C082C0831217110247B7F0
:104AD30074F71203667409120A5FE0F50878081286
:104AE30007F212171D74010236DFC082C08312174A
:104AF300290247B7C082C08312172F0247B7C0826B
:104B0300C0831217350247B774F7120366EAFEEB48
:104B1300FF74016970107900120D5D7C1E7900EE3F
:104B2300FAEFFB120CDF0236E274F412036674F937
:104B33001208968A088B098C0A8D0B7413120A5F6C
:104B43001259A290124FE07002A3E06027E985108A
:104B530082851183F07401120A5F7808120A29EA28
:104B6300F8EBF97405120A5F123DAC90124F125420
:104B7300BF121EC60247BEC082C08312176502471A
:104B8300B774F7120366901A68E0F97F00800B127E
:104B93004DCD540D64017001190F124DC55003E939
:104BA30070ED0236E274F7120366901A69E0F97F3A
:104BB30000800B124DCD548D64817001190F124D7D
:104BC300C55003E970ED0236E274F2120366890AF6
:104BD300E975F006A4F8A9F0740C28FEE439FFEA9D
:104BE3002EFAE43FFB1215978A088B09EA7001EB52
:104BF3006029EEFCEFFD7900121513126047E50AF8
:104C0300F0E5082EF8E5093FF9850882850983A3B5
:104C1300A3A3A3A3A3A3A3A3124A90AA08AB090225
:104C2300397A74F61203668A088B09120CBB901A40
:104C330067E0FAE9C39A400990044D1259A2120C95
:104C4300C1E5082402FEE5093400FF90044F126019
:104C530058F090044FE004F0AA08AB09120CC78E79
:104C6300828F83E0023AEBC082C083790090044DC7
:104C73008001091259A28A828B83E5827002E5833F
:104C830070F00247B774F7120366EAFEEBFFEE70AB
:104C930001EF605890044DE07002A3E0604E900471
:104CA3004D1254D77A007B00800FAA82AB83125433
:104CB300D7E5827002E5836033EE65827003EF65AA
:104CC3008370E790044D124CF2687002EF698E8294
:104CD3008F83700812584490044D8003126B711235
:104CE3004CF7121E6DEEFAEFFB12159D0236E2121F
:104CF3004AA7EE22E8F0A3E9F0023665C082C0833A
:104D030090044D800488828983125844E87001E935
:104D1300600B88828983E07002A3E070E88A828B4B
:104D230083E4F0A3F0E87001E96006888289838058
:104D33000390044D124D430247B7851082851183BA
:104D4300EAF0A3EBF02274F7120366E9FC90044D3A
:104D530080048A828B83124DC07001EB60177E0042
:104D630080010E124DB0FDEEC39D50E6EE124DE6EE
:104D73006C70EF80047A007B000236E274F7120352
:104D830066E9FD7F0080010F124DB0FEEFC39E5018
:104D930019EF124DE66D70EFEF75F006A4F8A9F068
:104DA3001260917411124DF54CF00236E2124DB4BB
:104DB30022EA240BF582EB3400F583E0221259A991
:104DC300EA22124DB4FCEFC39C22EF75F006A4FC5B
:104DD300ADF0EA2CFCEB3DFD74112CF582E43DF5BE
:104DE30083E02275F006A4F8A9F0EA28F8EB39F974
:104DF300741028F582E439F583E02274F612036611
:104E0300120DD57A008011EA125D561259C7124E5F
:104E13007CF0A3126361F00A9023ED12695140E71D
:104E23007A00801B8A0875090074037808120995B3
:104E33001263301259C3A3A3A3A3A3A3A3F00A909D
:104E430023EA12695140DD7A00801A8A0875090045
:104E530074037808120995E50824A3F582E509345B
:104E6300191259B90A12694E40E19023E4E4939070
:104E7300045BF012697A023B0DA3124E8122126386
:104E83006102697574F112036674F5120896EAFEFD
:104E9300EBFF89088C09E9A2E050127EFC7FFFA298
:104EA300E15005D2E4024F51D2E3024F51120DB744
:104EB3008A0A8B0BA80AA90B900470E0687003A3FD
:104EC300E06970057900025033AC087902EEFAEF1D
:104ED300FB120DB1E960EDE508F50A780A1207F255
:104EE300125038120836E96003025031E508C2E572
:104EF300F5089004BDE07058E508A2E6405274033B
:104F0300120A5FAC82AD83EEFAEFFB120ABDE970C1
:104F130039125848EEFAEFFB1210698A0A8B0BA874
:104F23000AA90BE87001E96027E824020A0AE912DA
:104F33002A39601CE50A2402FCE50B3400FD7403E6
:104F4300120A5FAA82AB83121CABE508D2E5F5080F
:104F5300900450E0F50E900470125855780A120729
:104F6300EE7D017C00900450E0F9AA0AAB0B120D10
:104F7300697402120836E9FA900450E004F0EA601A
:104F830003025031E508A2E550047A0E80027A0646
:104F93007401120A5F12606D8A0A8B0BEA7001EBCF
:104FA300700302502D125048E50A241AF582E50BCE
:104FB300122CE3EAF0A3EB125058123EB188828917
:104FC30083F074785508125126E50EF0EE88828935
:104FD30083A3A3A3126347F0E488828983A3A3A3D3
:104FE300A3A3F0E508A2E550147403120A5FAC8290
:104FF300AD83E82406FAE93400FB121CAB850A8270
:10500300850B83A3A374FD1259BDE5096013C394F3
:105013001E500EE50A2413F582E50B122CE3E50975
:10502300F0AA0AAB0B120BFB80067910800279C73A
:10503300740B02364A79027CFE7DFFEEFAEFFB1217
:105043000D27740122EA2417F582EB125C4D7401DB
:10505300F0120F0D22F0E50A126053E50B125C4DBE
:105063002274F41203668A088B09E9FE120FAFE972
:1050730060077AFF7BFF025119901AD8E06402603F
:105083000302510C7900AA08AB091261FF8A0A8B4B
:105093000BA80AA90BE87001E9605888828983A3E9
:1050A300A3A3A3A3E06401701C12511C125123E0BB
:1050B30064FE7004A3E064FF602B88828983A3A34A
:1050C3001259A2805188828983A3A3A3A3A3E06476
:1050D30003602888828983A3A3A3A3A3E064047045
:1050E300047AFE808F88828983A3A3A3A3A3E064A9
:1050F3000270089004BCE06402700E1266EC70014A
:10510300EB6006AA08AB09800DAA08AB099004510D
:105113001254BF121EC60240EF90046FE00254DD2A
:10512300A3A3A3A312635CA32274F7120366EAFE8C
:10513300EBFF120B0BE9700AEEFAEFFB120B17E908
:105143006006EEFAEFFB80047AFE7BFF0236E27420
:10515300F01203668A0A8B0B8C0E8D0FE9FE75081D
:1051630000120FAFE979006003025237AA0AAB0BB2
:105173001261D2A80CA90DE87001E960198882892F
:1051830083A3A3A3A3A3E06402704F9004BCE064D1
:10519300027003025235AA0AAB0B9004571254BF94
:1051A300121EC6120B1D8A0C8B0DA80CA90DE870DC
:1051B30001E9607E88828983A3A3A3A3A3E0A2E07D
:1051C30050707F01A2E150247901AC0AAD0BAA0E05
:1051D300AB0F120D09E97020805888828983A3A33D
:1051E300A3A3A3E06403704A7F02800C88828983AF
:1051F300A3A3A3A3A3D2E1F0900470E0650E70040F
:10520300A3E0650F70107C1EEEF9AA0AAB0B120C1B
:10521300DF750801801CEFF9AC0AAD0BAA0EAB0FCA
:10522300120D09E9700C750801EEF9AA0AAB0B120D
:105233000D5DA90802691674F112036674EE120873
:1052430096124D3D8C088D099004F1E07002A3E0A5
:105253006012126D287002E5836004A3E070057983
:10526300000254A8851082851183E0241DF50CA348
:10527300E03400F50D850C82F5831254D7A3E0F5D5
:105283000A12565BFA88828983A3A3A3A3E0F9EAEF
:10529300FEE9FFAA08AB09120D63E9FA850C8285C2
:1052A3000D8312696DE02AF50B530A78780812070B
:1052B300EE7D00AC0BA90E7402120A5F125509129F
:1052C3000836E9FA74036A6096EA70447418550A5A
:1052D30070030253CFE50AD2E0F50AA2E45004D2E8
:1052E300E1F50AE50AF50C780C1207F27901AC082E
:1052F300AD09E9120A5F125502120836E9701174FA
:1053030021120A5F1254D01269971254E212172322
:105313007421120A5F1254BFE064FF7004A3E064B7
:10532300FF603B9004BCE06402700302526285108C
:1053330082851183E01254E21254BC121EC6EA6540
:10534300087003EB650960030252621254B8121E1F
:10535300C67421120A5F1254BFEAF0A3EBF0780877
:105363001207EE7D01AC0BA90E7402120A5F1255EF
:1053730009120836A90AEEFAEFFB120DB78A088B59
:1053830009A808A909900470E0687003A3E06960A4
:105393000302549BEEFAEFFB1254AB7001E9606C0D
:1053A30088828983A3A3A3A3E06401600D88828913
:1053B30083A3A3A3A3E0640270527402120A5FAC36
:1053C30082AD83EEFAEFFB120ABD8053900469E0CD
:1053D3006019E50AF50C780C1207F27901AC08ADF7
:1053E30009E9120A5F125502120836E50AF50C782C
:1053F3000C1207F2125038120836E96003025313F5
:105403007421120A5F1254D0A3025360120F0DEAE3
:10541300FCEBFD7402120A5FAA82AB83121CAB85FC
:1054230010828511831254EC701C851082851183C0
:10543300E0241512566DFCA3E0FD740A120A5FAA5C
:1054430082AB83121CAB1254F6E04430F5087808A3
:105453001207F27403120A5F8582088583097808AC
:105463001207EE740D120A5F858208858309780896
:105473001207EEE50EF50878081207F27900EEFC44
:10548300EFFD7406120A5F12568D1259A2120D0314
:1054930074061208360252621254F6A3A3A3A3E5BC
:1054A3000BF0120F25023648120B1D8A088B09A830
:1054B30008A909E822EEFAEFFB9004531254C32221
:1054C3001254C722E0F8A3E0F5838882221254C362
:1054D30074FFF022124AA78001F98882898322246B
:1054E3000B12567EFAA3E0FB22126971A3A3A3E079
:1054F300640122125675F8A3E0F5838882A3221271
:1055030059A6125042221259A6120D69740222742E
:10551300F112036674EE120896851082851183EAF0
:10552300F0A3EB126998241D12566DF8A3E0F9124B
:10553300565BFC88828983A3A3A3A3E0FBECF50855
:10554300EBF50988828983A3A3A3A3A3E0FC888244
:105553008983A3A3A3A3A3A3E0FAE4CAFBECFEEB12
:10556300FF88828983A3A3A3A3A3A3A3E0F50A8847
:10557300828983A3E05478F50BA2E4501912567183
:105583002408FCA3E03400FD740A120A5FAA82AB6C
:1055930083121CAB7A08E50BA2E5501D1256712A43
:1055A300F8A3E03400F9740828FCE439FD7402120E
:1055B3000A5FAA82AB83121CABAC0AA90EAA08AB82
:1055C30009120D6FE9FA74036A70030256589004C6
:1055D30070E065087004A3E065096064EA705AE549
:1055E3000BF50C780C1207F27901E9120A5F1256D7
:1055F30083120836E9705E780B1207F27403120AFD
:105603005F85820C85830D780C1207EE740D120AE8
:105613005F85820C85830D780C1207EEE50EF50B82
:10562300780B1207F2A90AEEFCEFFDAA08AB0912E8
:105633000D037406120836801C74046A701780B751
:10564300E50BF50878081207F27901E9120A5F12EF
:10565300568312083602364888828983A3A3E0F56D
:105663000E88828983A3A3A3E02212567E221256B8
:105673007522851082851183E0241D12691BE022A7
:1056830012568D1236601250422212569122E02495
:105693000BFAA3E03400FB8A828B832274F012039B
:1056A3006674F21208967402120A5FE9F0EAFEEBDE
:1056B300FF8C088D09741E120A5FE0F50F74231224
:1056C3000A5FE0F50EA90F120D75124D3D74041219
:1056D3000A5F7408F0E50EA2E450037410F0E50EBF
:1056E300A2E55004E02408F07403120A5FAA82AB17
:1056F30083120F978A0C8B0DEA7001EB700302582B
:105703002A125048E50C241AF582E50D122CE312F7
:105713004D437406120A5FAC82AD838510828511F6
:10572300831259A2120ABDE9600E12582F74061291
:105733000A5FA882A9838020E50EA2E45025851084
:1057430082851183E06E7003A3E06F701612582FE9
:10575300741F120A5F125844E50C2418F582E50DF4
:10576300124A8DE50C122B0FE50D122CE31258553E
:105773007402850A82850B83F0A3E50E12585DE55A
:105783000FF0EE850A82850B83A3A3A3F0EF850AAE
:1057930082850B83A3A3A3A312585DA3A3A3E50848
:1057A300F0E509850A82850B83A3A3A3A3A312694A
:1057B30097FAA3E0FB120D637402120A5FE9FAE0A1
:1057C3002A850A82850B83A3A3A3A3A3A3A3F075AE
:1057D3000800E50EA2E45018741F120A5F12584B1A
:1057E300E50A2408FAE50B3400FB121CAB75080824
:1057F300E50EA2E5501C7421120A5F12584BE50A0C
:105803002508F8E50B3400F9740828FAE439FB128B
:105813001CAB12583E850C82850D83A3A3124A90BC
:10582300AA0CAB0D120BFB740E026913E50C2416C4
:10583300F582E50D125C4D7401F02285108285110D
:1058430083124AA72290047D12584F22E0FCA3E062
:10585300FD22E0F50AA3E0F50B22F0850A82850B11
:1058630083A3A32274F2120366EAFEEBFF8C088D76
:1058730009890A7900120DB78A0C8B0DA80CA90DA2
:10588300900470E0687003A3E069790160199004E3
:1058930070E06E7003A3E06F600DA90AAC08AD0958
:1058A300EEFAEFFB120FE502397A74F41203667E07
:1058B300037F1812697A90045BE014F0700C902354
:1058C300E4E49390045BF0120DC3750800805E8ED0
:1058D300828F83A3A3A3A3E06049EE2404F582EFA0
:1058E300125995703E8E828F83A3A3A3A3A3E06472
:1058F30003701079028E828F831259ADA31259A2BD
:10590300120D098E828F83A3A3A3A3A3E064016076
:10591300128E828F831259BBE48E828F83A3A3A33B
:10592300A3A3F00508EE2407FEEF3400FF125E1375
:10593300409D750800803A85080A750B007403784A
:105943000A120995E50A2463F8E50B3419F9E824EA
:1059530007F582E9125995701685080A750B0074CC
:1059630003780A120995E50A2463F81259C3F0056E
:10597300089023EA125E1640BE7508008009125E85
:1059830001600214F005089023ED125E1640EF0249
:1059930040EF124DBA14F022124A793400F5831203
:1059A30059A922125691E00254E712584F022B27AD
:1059B300126052EB3400F58374FEF0A374FFF022FF
:1059C300888289831259CB22A374FEF0A374FFF05B
:1059D300E40254DD74F6120366E97024790090043E
:1059E300551254BF121EC68A088B09AE08AF09743C
:1059F300FE6E700374FF6F701A9023E7E4936013D5
:105A030079019004551254BF121EC68A088B09AE41
:105A130008AF09120F5BEEFAEFFB023B0DE028F82B
:105A2300A3E039F92274F612036674F3120896128E
:105A330015258A088B09AE08AF09900470E06E70D3
:105A430003A3E06F60E9120F19EA6E7002EB6F6057
:105A5300DEEEFAEFFB120FAFE970D4EE7001EF60E8
:105A6300CEE4851082851183F07401120A5FEEF093
:105A7300A3EF125A8B70B874FE6E700374FF6F60DD
:105A8300AEEEFAEFFB023EAC123DB4120AD5E922A8
:105A9300C082C083120F5B0247B774F2120366EA37
:105AA300FEEBFF8C0C8D0D8908740E120A5FE0F576
:105AB3000974FC6E700374FF6F7005790002397A04
:105AC3007900120DB78A0A8B0BAE0AAF0B900470E4
:105AD300E06E7003A3E06F7006E509A2E650DCA94F
:105AE30009125C207001E9701279007AFE7BFF12C3
:105AF3005C207001E97004790280C2888289831274
:105B03005C5D74FE650C700474FF650D600D888226
:105B13008983A3A3E50CF0A3E50DF088828983A311
