:020000040000FA
:06000000020CA202033B0A
:03002B00020B14B1
:030033000208DBE5
:03004B000209A502
:0300530002028D19
:03005B000209B4E3
:030063000209C0CF
:03006B000208C1C7
:100083000202D7010105030103000300030003007B
:100093000300030003000300030005000A0014002B
:1000A30028004F009E000000BB12BB12BB12BB1204
:1000B3007D117711BB12DE1F0000000040200000FD
:1000C30000000C0000000C0001D007D007019F05C1
:1000D300FF01010100E20D0000003A0EE803640095
:1000E3006400B80102040008000005020A011E02B0
:1000F300051E020A0C03B80B02803E010332000204
:10010300FFFF020A01E00202060500120CEE604F37
:10011300120CC16012E7548066F6120B3F70111285
:100123000D15703B090909F4F618F618F618F622AE
:10013300120B547015120D1F08080860EAE6447F7D
:10014300F618768018E4F618F622120D1F601612C0
:100153000D157012E4F608F608F608E65480F60961
:10016300090918181822EAC0E0EBC0E0ECC0E0ED82
:10017300C0E0E687F0A4FBACF008E687F0A42CFC13
:10018300E435F0FA1809E687F0A42C4B60027401F9
:10019300CA35F0FCE433FB09E687F0D2F7A42CCB95
:1001A30035F0FC1908E687F0A42BCC35F0FBE433DB
:1001B300FD0819E687F0D2E7A42C4ACB35F0CD34FD
:1001C30000FC09E687F0D2E7A42DCC35F0FDE4333B
:1001D300FA0918E687F0D2F7A42CCD35F0CA34001B
:1001E300FC08E687F0D2E7D2F7A42ACC35F07A7E72
:1001F30020E70B0ACB33CBCD33CDCC33CC33CB334E
:1002030050147004ED30E00ED2F1E4CD3DCDCC3C82
:10021300CC3B5005DA05C2F1EB547FC63308E63315
:1002230092F0FBE73309E733C39A502D2B70190C77
:100233000D4C4D70151806E608C333700D20F10AF6
:10024300A2F013F6E418800B4024E4F630F00276B3
:100253008018F618F618F68024D33B14501074FF58
:10026300A2F013F6187680E418F618F6800FA2F0C1
:1002730013F618E63303F618ECF618EDF6D0E0FDA6
:10028300D0E0FCD0E0FBD0E0FA22C0E074F212052B
:10029300D6E5A7FAE5A1FBEA5B5410600812192121
:1002A30053A1EF802AEAA2E0C0D0EBA2E092F012C1
:1002B3000BCC158182F05017906198E0FA900F4EA5
:1002C300E0C39AA2D265D0335002EAF053A1FE7F75
:1002D300010206EAC0E074F21205D69061A4E0FAC6
:1002E300759B00E5915A540860087591F7121963DC
:1002F300802AE5915A541060087591EF12196980AC
:100303001BEAA2E0C0D0E591A2E092F0120BCC155B
:100313008182F05007E0C2E0F0121A8F9061A3E0EF
:10032300FAE5E95A5404600E121A6575E9FB906107
:1003330093E0A2E640F28097C0E074F21205D690F3
:1003430061A5E0FAE5BF5A5404600653BFFB121AD5
:10035300A70202D2C3E498F8E499F912039880261D
:10036300C3E49AFAE49BFBE920E7E9120398E498D3
:10037300F8E499F922C3E498F8E499F9120398E4AC
:1003830098F8E499F9C3E49AFAE49BFB22EB20E79B
:10039300CFE920E7E0B90010BB0008E88AF084F851
:1003A300AAF022E4FBC8FA22EB70227B10C833C800
:1003B300C933C9335007C39AC3DBF280069A50018D
:1003C3002ADBEAC833F4C8C933F4C9FA2275F00842
:1003D300E4C833C8C933C933C99AC99B5004C92A6D
:1003E300C93BD5F0ECFBC833F4C8E4C9FA221204C4
:1003F3003120F01430E72B74FFFCFBFA747F80226A
:10040300E4FCFBFA7480801AB48008BC00F2BB00E1
:10041300EF800F50EBF9E4C39AFAE49BFBE49CFCF6
:10042300E499C6CC18C6CB18C6CA18C6F922E4C9C3
:10043300C608CAC608CBC6D3330308CCC63392F06A
:10044300C3947F402E94184019C9B90704CACBCC72
:10045300225025C309CA33CACB33CBCC33CC33D9CF
:10046300F422F4600DC9CCC313CB13CBCA13CAD97E
:10047300F6CC22E4FCFBFA2214FCFBFA220808085F
:10048300EAC0E0EBC0E086F0E7A4FA180986F0E7DB
:10049300A42AFA180986F0E7A42AFA180986F0E7CD
:1004A300A42AFA1986F0E7A4FBE5F02AFA190886CC
:1004B300F0E7A42BFBE5F03AFA190886F0E7A42B42
:1004C300FBE5F03AFA18180986F0E7A4C5F02BFB10
:1004D300E43AFA1908E7C5F0C6A426F6E5F03BFBB3
:1004E300E43AFA1886F0E7A4F6E5F00826F6E43BCA
:1004F30008F6E43A08F6D0E0FBD0E0FA22E4CFC0F5
:10050300E0E4CEC0E0E4CDC0E0E4CCC0E075F02090
:10051300C3E633F608E633F608E633F608E633F6C1
:10052300181818EC33FCED33FDEE33FEEF33FFC345
:10053300EC9709ED9709EE9709EF97191919400FF1
:10054300FFEC97FC09ED97FD09EE97FE191906D507
:10055300F0BEECF709EDF709EEF709EFF7191919F2
:10056300D0E0FCD0E0FDD0E0FED0E0FF222510C5B6
:1005730082C0E0E51134FFC583C0E0E510C3958276
:1005830024F8F8E4C5A8858311858210C5A8E8CEB0
:10059300F0A3E520F0A37808E608F0A3DEFAEFF075
:1005A300A3E58124FAF8E608F0A3E608F0A3E60839
:1005B300F0A30808E608F0A3E608F0A31581158167
:1005C300D0E0FED0E0F8158115811581E8C0E0EE9A
:1005D300C0E022C0D02510C582C0E0E51134FFC5BC
:1005E30083C0E0E510C3958224F310AF088583111F
:1005F3008582108008858311858210D2AFC8F0A34D
:10060300E9F0A3EAF0A3EBF0A37908E709F0A3D894
:10061300FAECF0A3EDF0A3EEF0A3EFF0A3D0E0F03B
:10062300A3D0E0F0A3D0E0F0A3E520F0A3E5F0F041
:10063300A322E9799EC608CAC608CBC608CCC6C39E
:1006430070207996CACBCC7019798ECBCC70137984
:1006530086CC700EF9802ACA33CACB33CBCC33CCC9
:10066300331930E7F2CCCBCA3350147004EA30E0CC
:100673000DE4CA3ACACB3BCBCC3CCC500209C3E90C
:1006830013C6CC182313C6CB18C6CA18C6F9221230
:100693000D0AB900030206D4E490040078AF790E82
:1006A3008002F0A3D8FCD9FA9011AEAA82AB839052
:1006B3000086788879018015E493A3AC82AD838AA0
:1006C300828B83F0A3AA82AB838C828D83D8E9D9F2
:1006D300E77582DF7583CC74021207CC758295753A
:1006E300831D74001207CC851183851082E0C0E05E
:1006F300A3E0F9A3E0FAA3E0FBA37808E0F608A3DC
:10070300DFFAE0FCA3E0FDA3E0FEA3E0FFA3E0C06B
:10071300E0A3E0C0E0A3E0F5D0A3E0F520A3E0A3CD
:10072300F5F0E4C5A8858311858210C5A8D082D0D1
:1007330083D0E0F8D0E032D083D082ECC0E0EDC0CB
:10074300E0E493A3FCE493A3FDED4C600D12080ECB
:10075300EC24FFFCED34FFFD80EFE493A3FCE49372
:10076300A3FDED4C600D120950EC24FFFCED34FFAA
:10077300FD80EFD0E0FDD0E0FCE493A3C0E0E49380
:10078300C0E022D083D082E9C0E0E493A3C386F023
:10079300C5F095F0F908E493A386F0C5F095F070E1
:1007A3000BE493A3C3994005E9048002A3E475F025
:1007B30002A42582F582E5F03583F583D0E0F9E4E0
:1007C30093A3C0E0E493C0E022F5F0E59F5407C093
:1007D300E0E59F54F845F0F59FE473859FF053F0EF
:1007E300F8D0E045F0F59F22D083D082E59F5407EF
:1007F300C0E0E493C0E0740193C0E0740293540733
:10080300F5F0E59F54F845F0F59F22C0E0C3E4936B
:1008130096087401939618400FE493667008087461
:100823000193661870007019A3A3C3E49396087428
:1008330001939618A3A3400DD0E0D0E0D0E00207C7
:1008430076A3A3A3A3A3A3D0E0228511838510825B
:10085300E0A3FEE0A3F5207808E0A3F608DFFAE0C2
:10086300A3FFE0A3C0E0E0A3C0E0E0A3C0E0E0A3F7
:10087300C0E0E0A3C0E0E4C5A8858210858311C56C
:10088300A8D083D0820207DED083D082C5F0E49360
:10089300A3C5F0C395F0F5F0E493A3C395F0400529
:1008A300E5F0048001E475F002A42582F582E5F009
:1008B3003583F583E493A3C0E0E493C0E022C0E072
:1008C30074F21205D6E589A2E150031217EF758978
:1008D30000C2C57F010206EAC0E074F21205D6E544
:1008E3008BA2E050031217EF758B00C2E880E4740B
:1008F30004800474028000CCC0E0EDC0E0E510C3C6
:100903009CCCAD1150011D10AF068C108D118006CB
:100913008C108D11D2AF1209EED0E0FDD0E0FC2295
:1009230074028000CCC0E0EDC0E0E510C39CCCAD08
:100933001150011D10AF068C108D1180068C108D87
:1009430011D2AF1209CCD0E0FDD0E0FC22C0E0C050
:10095300F088F0E4936670080874019366187000D9
:10096300A8F0A3A3700BD0F0D0E0D0E0D0E0020752
:1009730076A3A3D0F0D0E022D083D082CCC0E0E431
:1009830093A36006120A0F1470FAE493A36006128D
:100993000AFE1470FAD0E0FCE493A3C0E0E493C031
:1009A300E022C0E074F21205D61218A97F010206F4
:1009B300EAC0E074F21205D61218AF80EFC0E074FB
:1009C300F21205D61218B580E3CAC0E0E493A3C5BA
:1009D30082CCC582C583CDC583F0A3C582CCC58235
:1009E300C583CDC583DAE5D0E0CA22CAC0E0E0A35F
:1009F300C582CCC582C583CDC583F0A3C582CCC5D2
:100A030082C583CDC583DAE6D0E0CA22C0E0E49391
:100A1300A3D39C5010E493A3C39C400AD0E0D0E03E
:100A2300D0E0020998A3A3A3D0E022700908080824
:100A3300226016181818C6C333C608C633C608C6BC
:100A430033C608C633C6D5E0EA222510F58210AFB7
:100A530008F510400215118008F51040021511D257
:100A6300AF851183227404800A74038006740280A4
:100A7300027401C0E0F404120A4DD0E0120CFD220E
:100A8300BB0102E722C082C08389828A83BB000341
:100A9300E08002E493D083D08222C0D0251010AF2F
:100AA30008F510500205118008F51050020511D207
:100AB300AFD0D0226016080808C6C313C618C613E1
:100AC300C618C613C618C613C6D5E0EA22C3E0C6C5
:100AD30096F608A3E0C696F608A3E0C696F608A322
:100AE300E0C696F622251010AF08F5104002151146
:100AF3008008F51040021511D2AF22C0E0E493A3A1
:100B03006C7009D0E0D0E0D0E0020998A3A3D0E054
:100B130022C0E074F21205D6C2C753BEFCE5BE1272
:100B230019A57F010206EAC3E09608A3E09608A38D
:100B3300E09608A3E096A2D265D03322181818E6EF
:100B4300084608700AE608C3337005E633F4220842
:100B530022191919E7094709700AE709C333700510
:100B6300E733F4220922E066701008A3E066700AF6
:100B730008A3E066700408A3E06622C3E096F008C9
:100B8300A3E096F008A3E096F008A3E096F022C352
:100B9300E697F60809E697F60809E697F60809E6E0
:100BA30097F622E647F60809E647F60809E647F608
:100BB3000809E647F622E026F008A3E036F008A38A
:100BC300E036F008A3E036F022C0E0E8C0E0E581BB
:100BD30024FCF8E6A2E7D0E0F8D0E022E056F608DD
:100BE300A3E056F608A3E056F608A3E056F622E67D
:100BF30057F60809E657F60809E657F60809E657CF
:100C0300F622E627F60809E637F60809E637F60876
:100C130009E637F622E026F608A3E036F608A3E055
:100C230036F608A3E036F622E056F008A3E056F0C5
:100C330008A3E056F008A3E056F022700422600DEA
:100C430018C6C333C608C633C6D5E0F41822E4C3B6
:100C530096F608E496F608E496F608E496F622C3B8
:100C6300E7960809E7960809E7960809E79622C375
:100C7300E09608A3E09608A3E09608A3E09622C6B0
:100C8300F4C608C6F4C608C6F4C608C6F4C622608D
:100C93000D08C6A2E713C618C613C6D5E0F322751E
:100CA300D000758140751000751104000206926032
:100CB3000C08C6C313C618C613C6D5E0F422E70949
:100CC3004709C3134709336002E733F422E6F00808
:100CD300A3E6F008A3E6F008A3E6F022E0F608A3F3
:100CE300E0F608A3E0F608A3E0F622E6084608C308
:100CF300134608336002E633F422CAC0E0E6F0A3E9
:100D030008DAFAD0E0FA2274F855C74401F5C77936
:100D13000122E7C33319471947194722E6C333189A
:100D23004618461846222510F582E43511F583222C
:100D33001207EBC5D2011207EB11D3011207EB50D7
:100D4300D3011207EB6DD3011207EB9CD3011207FA
:100D5300EBF2D3011207EB0DD4011207EB34D401EC
:100D63001207EB6FD4011207EBAFD4011207EBFFAD
:100D7300D4011207EBB9D5011207EB3ED6011207D6
:100D8300EBC5D6011207EBADD7011207EB06D8016D
:100D93001207EB7ED8011207EB90D8011207EB9AEA
:100DA300D8011207EB77D9011207EBD6D901120745
:100DB300EBD8DA011207EB51DB011207EBA5DB01DC
:100DC3001207EB1ADC011207EBC6DD011207EBDA9F
:100DD300DD011207EB3CDE011207EBC1DE01120756
:100DE300EB0EDF011207EB36E0011207EB21E10105
:100DF3001207EB8EE1011207EB0AE2011207EB6C1B
:100E0300E2011207EBA4E2011207EB7FE3011207F1
:100E1300EB98E4011207EBF5E4011207EB3EE50161
:100E23001207EB66E5011207EBEFE5011207EB850D
:100E3300E6011207EBEBE6011207EBFCE6011207F2
:100E4300EB75E7011207EB02E8011207EB44E80137
:100E53001207EBD4E8011207EB09E9011207EB4A89
:100E6300E9011207EBE3EA011207EB87EC01120732
:100E7300EBA8ED011207EB77EF011207EB81EF010E
:100E83001207EB8BEF011207EB95EF011207EB9FB4
:100E9300EF011207EBA9EF011207EBB3EF01120702
:100EA300EB01F0011207EB25F0011207EB49F0010A
:100EB3001207EBA2F0011207EBE7F0011207EB05B3
:100EC300F1011207EB7CF1011207EBC6F1011207E6
:100ED300EBFCF1011207EB99F3011207EB2D220052
:100EE3001207EB7922001207EB4524001207EB836C
:100EF30024001207EB2525001207EB5925001207E2
:100F0300EB7E25001207EBDB26001207EBDB270045
:100F13001207EBAD2A001207EB9E2B001207EB48DA
:100F23002C001207EB632D001207EB9C3000120715
:100F3300EB2831001207EB6931001207EB3F320057
:100F43001207EBE232001207EB3D33001207EB6AA4
:100F530033001207EB8C33001207EBD23500120774
:100F6300EB8436001207EBDB36001207EB48370041
:100F73001207EB0938001207EB3E38001207EB9219
:100F830038001207EBC738001207EB1539001207B8
:100F9300EB6C39001207EBF739001207EB803B00CB
:100FA3001207EB3D3C001207EB6C3D001207EBD63A
:100FB3003F001207EB7E40001207EBA1420012072D
:100FC300EB3E43001207EB8543001207EB4C450051
:100FD3001207EB6045001207EB6D45001207EB9714
:100FE30045001207EBA345001207EBC145001207AA
:100FF300EB8B46001207EBB546001207EBC2460027
:101003001207EBD846001207EB2747001207EB7ACB
:1010130047001207EB8248001207EB1C4900120736
:10102300EB034A001207EBF54A001207EBA54B004E
:101033001207EB434C001207EB5A4C001207EB93D9
:101043004C001207EBB14C001207EBF54C001207F2
:10105300EB1C4D001207EB184E001207EB934E00EA
:101063001207EBB64F001207EBC850001207EBB99B
:1010730051001207EB2052001207EBFA520012073D
:10108300EB2E53001207EBA453001207EBC95300D6
:101093001207EBEF53001207EB2554001207EB295D
:1010A30056001207EB1B57001207EBE0570012071D
:1010B300EB6059001207EBA959001207EBD5590051
:1010C3001207EB5C5A001207EBC45A001207EB1627
:1010D3005B001207EB5D5B001207EB895B001207F5
:1010E300EBBE5B001207EBE55B001207EB435C0012
:1010F3001207EB205D001207EB885D001207EBB1CE
:101103005D001207EB215E001207EB965E001207EB
:10111300EBE85E001207EB0D5F001207EB535F0075
:101123001207EB705F001207EB0D60001207EBF480
:10113300F3021207EB3FF4021207EB8F820112074F
:10114300EBDA82011207EB3583011207EB86830189
:101153001207EBA183011207EBD783011207EBF808
:1011630083011207EB0284011207EB1785011207B3
:10117300EB3585011207EBA585011207EBB8850155
:101183001207EBC685011207EB6786011207EB3BDB
:1011930087011207EB5688011207EBD28801120769
:1011A300EBDC88011207EB4F89011207EB6689011B
:1011B3001207EBA889011207EBE689011207EB1569
:1011C3008A011207EB4C8A011207EB6A8A011207A4
:1011D300EB8E8A011207EBCF8A011207EBBA8B0160
:1011E3001207EB008C011207EB2B8C011207EB9813
:1011F3008C011207EBBF8C011207EB048D01120760
:10120300EB128D011207EB6B8D011207EBA88D0119
:101213001207EBEF8D011207EB208E011207EB4350
:101223008E011207EB4E8E011207EB6C8E01120733
:10123300EB288F011207EB328F011207EB718F013D
:101243001207EB878F011207EB908F011207EBD484
:101253008F011207EBE88F011207EBD390011207FE
:10126300EBE690011207EBFB90011207EBA3910150
:101273001207EBEF91011207EBA592011207EBB0F6
:1012830092011207EBFE93011207EB2A9401120756
:10129300EB6B94011207EB8594011207EBBC9401ED
:1012A3001207EB1F97011207EBA797011207EB2712
:1012B30098011207EB6A9A011207EB7A9A01120757
:1012C300EB7D9A011207EB899A011207EB9D9A01B4
:1012D3001207EBBC9A011207EBEF9A011207EBB46A
:1012E3009B011207EB1B9C011207EB7F9C0112076A
:1012F300EB099D011207EBBA9D011207EBE19D017A
:101303001207EB719E011207EB7D9E011207EBACF6
:101313009E011207EBCE9E011207EBF59E01120709
:10132300EB5A9F011207EB0DA1011207EB10A1016C
:101333001207EB3FA1011207EB54A1011207EBBE09
:10134300A1011207EBB1A2011207EB96A301120749
:10135300EB21A4011207EB64A5011207EB27A601F9
:101363001207EB60A6011207EB91A6011207EB9A95
:10137300A6011207EB7EA7011207EB0EA8011207C5
:10138300EBACA8011207EB6CA9011207EBE5A9016D
:101393001207EB14AA011207EB51AA011207EB92F1
:1013A300AA011207EB9DF4011207EBABF40112073C
:1013B300EB27F5011207EB5DF5011207EBA8F50129
:1013C3001207EBD2F7011207EBCCF9011207EBB9C5
:1013D300FC011207EBE7FC011207EB09FD01120701
:1013E300EB76FD011207EBAAFD011207EBE7FD0106
:1013F3001207EB15FE011207EB52FE011207EB97E2
:10140300DB021207EB1CDC021207EB40DC021207C3
:10141300EB74DC021207EBA9DC021207EBDEDC0241
:101423001207EBE1DC021207EBE4DC021207EBE745
:10143300DC021207EB209A021207EB2A9A02120728
:10144300EB709A021207EB199B021207EB3F9B0208
:101453001207EB089C021207EBF29E021207EBFB4A
:101463009E021207EB519F021207EB7C9F021207A9
:10147300EBE19F021207EB52A0021207EB92A002CC
:101483001207EBF7A0021207EB85A1021207EBE5A7
:10149300A1021207EB17A2021207EB27A2021207FF
:1014A300EB49CF011207EB56A2021207EB17A30277
:1014B3001207EB87EE021207EB7BE2021207EBDA6D
:1014C300E2021207EB06E3021207EB09E40212073A
:1014D300EB4760001207EB2B61001207EB6661001C
:1014E3001207EB1E63001207EB6263001207EBFDAA
:1014F30064001207EB4465001207EB206600120735
:10150300EBAA66001207EB4767001207EB27D2012D
:101513001207EBE267001207EB9269001207EB492F
:101523006B001207EB7F6D001207EB896D0012074A
:10153300EBE66D001207EB3B6E001207EB797100CF
:101543001207EB9EF4021207EBB4F4021207EBC38B
:10155300F4021207EB0FD0021207EB27D002120797
:10156300EBC1D0021207EB02D1021207EB1FD1022B
:101573001207EB45D1021207EB7BD1021207EBB244
:10158300D1021207EBE0D2021207EB24D3021207B7
:10159300EB43E4021207EBB0E4021207EBCBE402E5
:1015A3001207EB10E5021207EB36E5021207EBCD4B
:1015B300E5021207EBE7E5021207EBBB7100120726
:1015C300EB0672001207EBA772001207EB5D7300C4
:1015D3001207EB7273001207EBBC73001207EBCF19
:1015E30073001207EB1674001207EB2A740012073C
:1015F300EB1776001207EB9476001207EBBE76002A
:101603001207EB6678001207EB8178001207EBC232
:1016130078001207EBFB78001207EB5D79001207E5
:10162300EB7379001207EBF679001207EB877B0067
:101633001207EBBA7B001207EBE37B001207EB43C5
:101643007C001207EB5D7C001207EB607C00120745
:10165300EB7D7C001207EBEF7C001207EB197D009A
:101663001207EB817D001207EBBC7D001207EBFC38
:10167300F2021207EB08F3021207EB52F30212070E
:10168300EB0080021207EB2B80021207EB31810281
:101693001207EB9B81021207EBFE81021207EB4A52
:1016A30082021207EBB882021207EB4B8302120786
:1016B300EBC183021207EB0184021207EB308802AD
:1016C3001207EBC489021207EB458B021207EBB03A
:1016D3008B021207EBC38C021207EB8B8E021207ED
:1016E300EB458F021207EBB58F021207EB46900210
:1016F3001207EB8190021207EB5691021207EBB728
:1017030091021207EBCE92021207EB5093021207DB
:10171300EBB993021207EB5D95021207EB129602E7
:101723001207EB5F97021207EB0098021207EBCB4D
:1017330098021207EB79F2021207EBB2F2021207D8
:10174300EBB7F2021207EBE3F2021207EB80E002BF
:101753001207EBE8E0021207EB95E1021207EBFB3D
:10176300E1021207EB96CD021207EBEFCD0212074F
:10177300EB76CF021207EB24EC021207EB69EC02C3
:101783001207EB1DED021207EB01E6021207EB0F46
:10179300E6021207EB98F5021207EB2EF10212078D
:1017A300EB3EF1021207EB59F1021207EBCCF10207
:1017B3001207EB57ED021207EB7EED021207EB0760
:1017C300EE021207EB6EEE021207EBDD9D0312072A
:1017D300EB5CE9021207EB7AE9021207EBDDE9029F
:1017E3001207EBFDE9021207EB49EA021207EBA32A
:1017F300EA021207EBD4EA021207EBD7EA02120756
:10180300EB31BE021207EB46BE021207EBB5BF0275
:101813001207EBF6BF021207EB10C0021207EB9A96
:10182300C0021207EB0EC1021207EB2AC102120714
:10183300EB3FC1021207EB4DC1021207EB67C10276
:101843001207EB7EC1021207EBA3C1021207EBF4EE
:10185300C1021207EB2DB9021207EB3BB9021207C3
:10186300EBB9B9021207EBDFBA021207EB65BD024F
:101873001207EBCABD021207EB20BE021207EBE010
:10188300FF071207EB2BC2021207EBB3C4021207C6
:10189300EB49C5021207EBC3C5021207EB95FE0124
:1018A3001207EBCDFE011207EBF1FE011207EB4F1E
:1018B300FF011207EBB1FF011207EBB4B3021207EA
:1018C300EB07B4021207EB87B6021207EBBFB602AF
:1018D3001207EBE4B6021207EBFDB6021207EB1692
:1018E300B7021207EB51B8021207EBEEB802120768
:1018F300EBCE7D001207EB117E001207EB227E0078
:101903001207EB507E001207EB807E001207EBBB41
:101913007E001207EBD37E001207EB437F00120712
:10192300EB767F001207EBEBD8021207EB16D90216
:101933001207EB5DD9021207EB6FD9021207EB8B8B
:10194300D9021207EBF3D9021207EBFCD9021207F3
:10195300EB5DDA021207EB81DA021207EB4BDB02D3
:101963001207EB58DB021207EB69DB021207EB8865
:10197300F3021207EBD5F3021207EB58C902120761
:10198300EB51CA021207EB66CA021207EB79CA02CD
:101993001207EB93CA021207EBB2CA021207EB312A
:1019A300CB021207EBF1CB021207EB63CC02120757
:1019B300EBC0CC021207EBD0CC021207EBCFF10243
:1019C3001207EBF4F1021207EB1DF2021207EB45CB
:1019D300F2021207EB39DE021207EB52DE021207A4
:1019E300EB5EDE021207EB72DE021207EB96DE02FB
:1019F3001207EBA2DE021207EBB1DE021207EBC401
:101A0300DE021207EBF9DE021207EB33DF021207E5
:101A1300EB68DF021207EBB7DF021207EB03E0020A
:101A23001207EB1BE0021207EB25E0021207EB366D
:101A3300E0021207EB7AE0021207EB49F402120705
:101A4300EB91F4021207EB48A3021207EB74A30213
:101A53001207EB90A3021207EBA3A3021207EBB941
:101A6300A3021207EB24A4021207EB5EA4021207DF
:101A7300EBCDA7021207EBEAA8021207EB1BA902A0
:101A83001207EB7BA9021207EB5EAA021207EB8691
:101A9300AA021207EB9BAA021207EBABAA021207D8
:101AA300EBECAA021207EB41AB021207EB57AB02B6
:101AB3001207EBE1EA021207EBFCEA021207EB263C
:101AC300EB021207EB43EB021207EB6BEB0212077D
:101AD300EB8DEB021207EBA6EB021207EBD5EB0241
:101AE3001207EBF0EB021207EB7FF0021207EBBFDA
:101AF300F0021207EBC6C5021207EBCDC5021207AF
:101B0300EBDAC6021207EB0CC7021207EB32C7026D
:101B13001207EB65C7021207EB77C7021207EBB296
:101B2300C7021207EB22C8021207EB5FC8021207B3
:101B3300EBACC8021207EBDAC8021207EBFAC802D1
:101B43001207EBBCE7021207EBD4E7021207EBCE56
:101B5300E8021207EB88EF021207EBDEEF0212072F
:101B6300EB1CF0021207EB5DF0021207EB80AB02F5
:101B73001207EB8BAB021207EBE1AB021207EBE0B0
:101B8300AD021207EBC7AE021207EB0BAF0212074F
:101B9300EB33AF021207EBC0AF021207EBB3B10294
:101BA3001207EBA0B2021207EB36B3021207EB7770
:101BB300B3021207EB2CD6021207EB51D60212071F
:101BC300EB9AD6021207EBBCD6021207EBE4D6025D
:101BD3001207EB0AD7021207EBF7D7021207EB0142
:101BE300D8021207EB0ED8021207EBC2D802120773
:101BF300EBCCD8021207EBD6D8021207EB3CD30288
:101C03001207EB27D6021207EB23F5021207EBEDBF
:101C1300F4021207EB52F5021207EB7AF5021207F0
:101C2300EBAECE011207EB71CD011207EB32CB0104
:101C33001207EB64CA011207EB7CC9011207EB3DE3
:101C4300C9011207EB0CC9011207EBA2D10112075C
:101C5300EB40D1011207EBEEC8011207EB80C8017C
:101C63001207EB12D1011207EB00D1011207EB3A75
:101C7300C8011207EBA5C7011207EB43C401120702
:101C8300EB0FC4011207EBCDC3011207EBA2C30193
:101C93001207EBE4C2011207EB97C2011207EB0D27
:101CA300C1011207EB0AC1011207EB1CC0011207A5
:101CB300EBE8BF011207EB23BF011207EB56BD018F
:101CC3001207EB09BD011207EBDABC011207EBD7D0
:101CD300BC011207EBDED0011207EBBFD0011207E4
:101CE300EB8CD0011207EBCABC011207EB8DBC01D0
:101CF3001207EB7FBC011207EB38BB011207EB574E
:101D0300D0011207EBBCBA011207EB89BA01120723
:101D1300EB2DBA011207EB00BA011207EB9F670024
:101D23001207EB39D0011207EB07B7011207EB09D2
:101D3300B6011207EB90B5011207EB5BB501120771
:101D4300EB24B5011207EB18B5011207EB78B401C8
:101D53001207EBB4B3011207EB7AB1011207EB9F41
:101D6300AE011207EB60AE011207EBFFAC011207E5
:101D7300EBABAC011207EBF2AB011207EB58AB0173
:101D83001207EB31AB011207EBF7AA011207EB378E
:101D9300A20200000080FBE473870001002D1224DF
:101DA3000002000712250002000912260002000BA0
:101DB30012270002000D12280001000F1229000152
:101DC3000010128400040011128600010015122A6B
:101DD30000010016122B00010017122C000100193C
:101DE300122D0008008D0E2E0001001A122F000183
:101DF300001B12300001001C12310001001D1232C1
:101E0300000100950E33000100960E340001001E00
:101E130012350001001F1236000100970E830002E5
:101E2300002B1262001000A00E66001000B10E63BA
:101E3300000100B00E640001008C0E650001001863
:101E43001243000100201244000200211245000148
:101E530000231246000200241247000800980E488F
:101E630000010026124900010027124A000200283F
:101E7300124B0001002A12040001002E12A10001DE
:101E8300003012370001002F120000000000000094
:101E930001363601010001020100010301000104C2
:101EA30001060605020000070100340801000F09BE
:101EB3000401010D0100FF0E0800001702000019C4
:101EC3000100FF1A0100011B0100051C0100081D90
:101ED3000200001F01000120010001210200002374
:101EE30001000F2402000026010001270103082836
:101EF3000200FF2A0100072B0102402C0100002DE4
:101F03000100012E0100012F0100FF30010B1C31E4
:101F13000800003A01000803027102300160021157
:101F23000270020102020202028002100261023AFE
:101F33000041006302730272026202430200021351
:101F43000238000002000204021202000200020032
:101F530002000204020402370037003C024402007C
:101F6300023900000200026502000235028102000C
:101F730002050282028302000201017101010101D3
:101F83000111010101310101010101800110016110
:101F9300013B0014006301730172016201430100FC
:101FA30001130106013D0135000401120100010086
:101FB300010001000104010401330133013C014428
:101FC3000132013600000100016501000135008185
:101FD300010001050182018301000103007100304A
:101FE30001600011007000310220035004800010D2
:101FF300006100000014006300730072006200437C
:10200300000000130006000000000004001200009E
:102013000000000000000004000400370037003C0B
:1020230002440000000000000000006500000035CD
:10203300008100000005000000830000000103711F
:10204300030103010301030103010322030203014B
:102053000310030003000300030003000300030055
:1020630003420300032403060300030003040312D3
:1020730003250323032503230304030403000300AD
:102083000300034403000300032303000365032148
:102093000035038103000305030003000300033637
:1020A300000100060000000F000000000000000017
:1020B300000000000003FFFF00000403FFFF000017
:1020C300FFFF0FF4010005C4040320000100000B0F
:1020D30000000000000000000301030003000400EF
:1020E300080010001F003E007B00F600EC01D70340
:1020F300AF075D0FB91E713D00000100FF1602001E
:10210300991603009F160400A5160500AB160600DA
:10211300B716FFFF0000D7110712DD11E3110112FB
:10212300F511EF110D12131219122512E911D11124
:10213300CB11D5C5C5B5A5A59585857575656555BA
:102143005545453535252515050A430F02130F055A
:10215300250F07190F0C010F0D0D0FFF00009C3603
:10216300063A703DD9404344AD47174B814EEA517F
:1021730000160F00000B150B020002220F320000A5
:10218300065677777777777777777777777777776E
:1021930077000102030405060708090A0B0C0D0E5C
:1021A3000FBB12CD12D312A111D9129B11A7113F4C
:1021B300135D136313451351134B13303017181961
:1021C30021301B1D1F30303016181920231A1C1EF6
:1021D300300C0E020B040B0A0708000F00034948DA
:1021E300424D181725050200383C3E363B3B352B44
:1021F300432C00011916181616152303002713DFA5
:1022030012E512F112EB12FB111F1257132B1231AD
:10221300120005150D0910080400BE040A0E00047F
:10222300001500040510080F0C04C082C083E99058
:1022330004B7F0E490046CF0121B439004BBE4F089
:10224300A3F09004B8F0A3F01210B7121B49900446
:102253003CE4F0A3F09004CBE07002A3E0600990AB
:1022630004CB1248D6121D9A90222AE493FA7902DB
:10227300121BEB02437E74F2120570EAFEEBFF744D
:10228300805FF9E47001E9706CEEA2E04003022381
:1022930015900471E0640F700B7900120EE9E96088
:1022A3000312243B74016EFAEFFB0224200CEC753D
:1022B300F003A4A9F0244CF582E93421F583E493D7
:1022C30064FF602AE493FA8508828B83E06A70DDF9
:1022D300AA08EC75F003A4244DF582E93421F583B3
:1022E300E493C0E0740193F583D082121D9AAA0887
:1022F300AB091214659004B7E0F91214718A088BC4
:1023030009EA7001EB60047C0080A3EEFA74806F2D
:102313008097542070030223EC750A007C027D0031
:102323007A201224307C0079047A007B00120F7922
:102333008A088B0980187401850882850983A3A301
:10234300A3A3A3A3A3A3A3F0850C08850D09E50804
:102353007002E509606E7C007904AA08AB09120FCC
:10236300798A0C8B0D750A01E5082404125931246E
:10237300FFF0A3E034FF1235CB7002A3E070C985F0
:102383000882850983A3A3A3A3A3A3A3A3A3A3E071
:10239300640170A2850882850983A3A3A3A3A3A3D1
:1023A300E0540470917406850882850983A3A3A36E
:1023B300A3A3A3A3A3A3F07AB785088285098312F5
:1023C300251A8084120F497C0079017A007B001260
:1023D3000F79EA7001EB7009E50A70057A2012465D
:1023E3008074206EFAEF0222AC74025FF9E470018C
:1023F300E9600A121081EEFA740202231274045F78
:10240300F9E47001E960121249A91244FF7901123B
:102413002B94EEFA74046F80CD7A007B0080031254
:102423000A9D7F0602084DEAFCEBFD7A017B0090D2
:1024330004B7E0F912156D22901207124C24120E04
:10244300FB22C082C08374EA120AE88510828511D8
:1024530083AA82AB83794B121BC17408120D2974B2
:1024630002F07409120D29AA82AB837950121BC1A1
:102473007413120D29124E05121BDF741602437BCF
:1024830074F4120570EAFEEBFF7508018E828F83E8
:10249300A3A3A3A3A3A3E05440600D8E828F831252
:1024A3003B77FAA3E0FB8003120FD974FE6A700333
:1024B30074FF6B60308E828F831248D61246D2121D
:1024C3001045E98E828F836006122508E480051289
:1024D30025087401123238FAA3E0FB121BE5E9F573
:1024E30009700580127509CDAA098E828F83122582
:1024F3001AE96003750800A908EEFAEFFB120F55FD
:10250300A909023158E0240DF8A3E0122512223460
:1025130000F98882898322E0240C124C34F9120ECC
:10252300F52274F6120570E9FEEAFF7A0F7B0012BA
:10253300145FEA7001EB6019740C8A828B83F0EEEE
:10254300A3A3F0EF8A828B83A3F01248E97900807A
:10255300027910024775C082C083900471E0640F52
:102563007016EA7001EB601090046CE0640860057B
:10257300E06404700312242A02437E74F41205708B
:1025830074FD120AE8EAFEEBFF8E828F83A3A3E0B9
:10259300F9120F7F8A088B09EA7001EB7003022698
:1025A300C58E828F83A3E064F160288E828F83A31C
:1025B300E064CD601E8E828F83A3E0641A60148E64
:1025C300828F83A3E064E9600A8E828F83A3E06431
:1025D300E1701E7900120F55E9601685088285099E
:1025E30083A3A3A3A3A3A3E04420F0A3E0F00226C4
:1025F300948E828F83A3E0C0E07402120D29D0E091
:1026030012427D1250A412302E1256158510828567
:102613001183AA82AB837005120E6B800312102DF7
:102623008E828F83A3E064F160678E828F83A3E041
:1026330064CD605D8E828F83A3E0641A60538E82C3
:102643008F83A3E064E160498E828F83A3E064F00B
:10265300603F7402120D29E064B7603585088285F6
:1026630009831226D1750A01780A120A74740312B7
:102673000D29E0F50A780A120A74EE240C122A7660
:102683001239A6A3A3A3A3A312399E12306A120A76
:102693009D850882850983A3A3A3A3A3A3A3A3A3BF
:1026A300E0640270127406850882850983A3A3A3DC
:1026B300A3A3A3A3A3A3F08E828F83A3A3E0F91202
:1026C3000F5B120F4990120B12243E023153E0F8B4
:1026D300A3E0F9E8FAE9FB2274F4120570EAFEEBD1
:1026E300FF7508008E828F83A3A3A3A3A3E0604199
:1026F3007508088E828F83A3A3A3A3A3A3A3A3A375
:10270300123B677001EB601075082C8E828F83A3D8
:10271300A3A3A3A3E0D2E0F08E828F83A3A3A3A3FA
:10272300A3E05403640160030227B44308110227A2
:10273300B4EE24181256126030EE241A1256127098
:102743000F1252E47003A3E069706675082280617A
:10275300EE241B1227CC241A124676EE2419F58296
:10276300EF1239F2120ED780481227B97003750899
:10277300011252E47003A3E0697006E508D2E1F5A3
:1027830008E5088E828F83A3A36011E07006E50835
:10279300D2E5801BE508D2E6F5088003E06012125B
:1027A3003B71F9121033E964016006E508C2E0F5F4
:1027B30008A9080231588E828F83A3A3A3A3A3A3DE
:1027C300A3A3A3124AEB640222F582EF12307F1215
:1027D30027D6221250C4EE2274F012057074DB1255
:1027E3000AE8EAFEEBFF8E828F83A3A3A3A3E06034
:1027F30010901209E07002A3E060069012091224FF
:102803003E7406120D29AC82AD838E828F83122A09
:10281300A01250B6EE241B1253207413120D29126A
:1028230044FF7406120D29AA82AB83120F07E985B0
:102833001082851183F0740C120D29E06022741D3F
:10284300120D29E0FD7407120D29E0FC8E828F839F
:10285300124C1E7901121D23E96003022A6E8014B3
:10286300900454E0600E851082851183E0A2E1405C
:1028730003022A6E851082851183E0A2E6502E742E
:1028830023120D29123B776403700E7423120D2952
:10289300124B9EA3E0640D60147406120D29AA82E4
:1028A300AB83121057E964017003022A6EEE242CE5
:1028B300122A76122D5D7003A3E069701F7508005C
:1028C3007808120A747808120A74EE242EF582EF3F
:1028D3001239F2122A9112306A120A9D7409120DEA
:1028E30029E0FA90045AE06A6003022A6E740C121B
:1028F3000D29E070030229B5122A91124C201210FF
:10290300E17401120D291246D27401120D29E070EF
:1029130002A3E07003022A6E7407120D29E0F88EF9
:10292300828F83A3A3E028F8A3E03400F9740D2871
:10293300F582E439F583E0FA7401120D29122A8530
:10294300E06A601D7401120D29122A7DEAF090815C
:102953004C7808120CDF7401120D29122A8B120C09
:10296300D079047407120D291250AC2AFCA3E03469
:10297300008C82F583A3AA82AB8312144D8A088B41
:10298300098C0A8D0B7401120D29122A85A3780C68
:10299300120CDF780C7908120C625003022A6E9035
:1029A300810C7808120C187401120D29122A8B124B
:1029B3000CD090046CE064046008E06409600302D6
:1029C3002A6E851082851183E0A2E55055EE242EF0
:1029D300125612C0E07403120D29D0E0F0EE242F3A
:1029E300125612C0E07404120D29D0E0F0EE243028
:1029F300125612C0E07405120D29D0E0F0EE242423
:102A0300122A761208F27407120D29AC82AD837470
:102A13000A120D29AA82AB83120E717404120A9D45
:102A23008049A2E650457423120D29124C2A7018CE
:102A3300741D120D29E0640270317406120D29AA67
:102A430082AB8312102180237423120D29124B9E13
:102A5300E064077016741D120D29E06404700C7491
:102A630006120D29AA82AB8312101B7425024F96FE
:102A7300EE240BF582EF12307F22A3124B9FA3A308
:102A8300A322124AD5A3A322123D53780822EE248F
:102A93002A12307C1227D6241212307C22A3A3A33D
:102AA300A3E0F98E828F83A3A32274F712057074B7
:102AB300F7120AE8EAFEEBFF90046CE06403600D92
:102AC300E064016008E064096003022B8F8E828F4B
:102AD30083A3E06003022B6B7C007D007A027B0002
:102AE300121B4FEE2402FAEF1248F21253269004FF
:102AF3005D1244FF7953121BC77900122B94900483
:102B03006CE06409600990046A124C201210DB74B3
:102B130001124879740490046CF07401120D29AA0F
:102B230082AB83794A121BC17401120D29AC82ADA9
:102B3300837A627B04121B6790045D1250C07A0390
:102B43007B00121B4F9004601250C07A047B00126A
:102B53001B4F900457E0A2E35004D2F08002C2F06E
:102B630012485F12243B80218E828F83A3AE82AFF3
:102B730083FC7D007A037B10121B4F8E828F83E0D0
:102B8300F9122B94E490046CF0120F31740902399A
:102B93009690046A124C24120E7D22C082C0839048
:102BA300043CE07002A3E0704190046CE012097BE6
:102BB300000301C02B05CF2B06DE2BED2B90044425
:102BC300E07002A3E0607B9004448070900440E0D6
:102BD3007002A3E0606C9004408061900442E07056
:102BE30002A3E0605D900442805290043CE07002D6
:102BF300A3E06005123045702379009004B8800982
:102C030009EA124F9EEB122A7912388D7001EB708C
:102C1300EF9004B8124C20120E77802690043D12D8
:102C23002A7EA3A3A3E0640270051210758013909B
:102C330004D1E07002A3E060099004D11248D612D7
:102C43001D9A02437E74F412057074FB120AE88A1B
:102C5300088B09122D467001EF7003022D41740297
:102C63008E828F83124E067950121BC1850882858E
:102C73000983A3E06003022D2F90046AE064FF70D0
:102C830004A3E064FF603590046AE064FE7004A36B
:102C9300E064FF6027851082851183122D5D700328
:102CA300A3E069601774EA850882850983A312305B
:102CB300847A6A7B047950121BC7807085108285E1
:102CC30011831253971244FF7A5D7B047953121BCD
:102CD300C190045D1244F67A607B04794B121BC1E8
:102CE3007A5F7B0479E1121BC1900471E0C3940FF6
:102CF300502290045FE0C0E07402120D29D0E0F08E
:102D03007404120D297401F07402120D29AA82AB06
:102D130083121BD9750A00780A120A74780A120AF8
:102D230074901233E0F9123061120A9D850882858E
:102D33000983122D57F0740390046C1248E0740554
:102D43000231557A0F7B0012145F8A0A8B0BAE0A8D
:102D5300AF0BEE22A31244B1A32212539BE06822CD
:102D630074F212057074ED120AE8EAFEEBFF8E822C
:102D73008F83A31239C1851082851183AC82AD8301
:102D83008E828F83A3A3A3A3122AA0124C19120F1E
:102D930037851082851183E0706A8E828F83A3A3A7
:102DA300A3A3A3A3A3A3E0C3940B405885088285E0
:102DB3000983A3A3A3A3A3A3A3A3E06402704590E1
:102DC300046CE064026042E06406603D90043CE011
:102DD3007002A3E06005123045605E90046CE0640D
:102DE300086005E06404701C7402120D29E0F97494
:102DF30007120D29AC82AD83850882850983124CA5
:102E030017120F3D741302242290043CE07002A3B6
:102E1300E07026750A00780A120A74780A120A7496
:102E2300123025122A7912304EFCA3E0FD85088268
:102E330085098312306A120A9D9004B8123D669088
:102E430004B8E0F50AA3E0F50B80378E828F83E0A8
:102E5300F8A312304E687003A3E06970198E828F55
:102E630083A3A3E0FAE508240DF582E509125615BC
:102E73006A7003022EF98E0A8F0BEE124F9EEF1229
:102E83003D63EE7001EF70C37A187B001214C58A9C
:102E93000C8B0DAE0CAF0DEE7001EF7003022E071D
:102EA3009004B8E07002A3E070059004B8800AE5CE
:102EB3000A124F9EE50B122A7912521A8E828F83C1
:102EC30012490BEE240C122A7674FFF0E48E828FE3
:102ED30083A3A3A3A3A31237EEA3A3A3123073E484
:102EE300F0A3F0E508240B12593112301B1235CB35
:102EF300C412301BA3F07401120D291248DAF074C6
:102F030002120D2912303DA3F0E508240DF582E5E8
:102F130009122A79122D58A31249D5A3A312594C89
:102F23001244FF7402120D29E06401601174071248
:102F33000D29AC82AD83EE240D12303480117C0850
:102F43007D0079FFEE240DFAEF3400FB1214477471
:102F530012120D29E0C0E0EE2415122A76D0E0F01B
:102F6300901233E0C0E0123025124679D0E0C39AC4
:102F73004003022E0712302E122A79A3E05480F95F
:102F8300E47001E97009900DD9E07003022E077413
:102F930006120D2912303D700EE070627404120D9A
:102FA30029E07006022E07E060147405120D29E073
:102FB300C0E0EE240C124676D0E0C39A502B85086D
:102FC3008285098312595A1244FD1230251256156F
:102FD300C0E0122A73D0E0F07405120D29E0C0E0BE
:102FE300EE240C122A76D0E0F07406120D29E0606C
:102FF3000D74018E828F83A3A3A3A3A3A3F07404F0
:10300300120D29E07003022E0774018E828F83A3B1
:10301300A3A3A3A3F0022E07540F8E828F83A3A32F
:10302300A322E5082410F582E50922E508240B8094
:10303300F5FAEF3400FB121B672212304122E00243
:10304300373D90043C1232DB640122E0F9850882AB
:10305300850983A3A3A3A3A3A3A3A3A3E02290040B
:103063006A1250C4900460124C24120FEB740222B3
:10307300A3F0EE241612307C22F582EF3400F583A0
:1030830022F07A5D7B04795312308F22121BC77AA8
:10309300607B04794B121BC72274F212057074F81B
:1030A300120AE88A0A8B0B8C0C8D0D890885108215
:1030B300851183AC82AD837583807582E1740812B8
:1030C30009EEF509AC0AAD0B851082851183AA823E
:1030D300AB83124E0070037509019004B880158EFE
:1030E300828F83E0650C7004A3E0650D6023EE24FA
:1030F30016122A76123D66EE7001EF601FE5096035
:10310300DEAC0AAD0BEE240DFAEF3400124DFF6076
:10311300DD8E828F83A3A3E0650870D2EEFAEFFB06
:10312300740802242274F71205709004B8E0FAA31D
:10313300E0800CEA2416123D601214CBEEFAEFFB8A
:10314300EA7001EB70ED9004B8E4F0A3F002399952
:103153007403120A9D7F0402084DA31244B1F022A6
:103163008B83A3A3A32274F2120570EAFEEBFF89FB
:103173000B8C0C8D0D8E828F83E08C828D831237A6
:10318300F3AE82AF83E012432E123237C412432EC2
:1031930012322AE054038C828D83123235A2E2E488
:1031A30092E08C828D83123234131313541F124313
:1031B3002E123233A2E7E492E08C828D83A3A3A381
:1031C300A312322A8E088F09750A007808120A6C36
:1031D3007C087D00E50C2407125059120A9D1250F9
:1031E300838E088F097808120A6C7C037D00E50C36
:1031F300240F125059120A9DE50BC3940F40148EED
:10320300828F83A3A3A3E0C0E0123221122A79D0D4
:10321300E08007123221122A79E4F0022425E50C1A
:103223002412F582E50D22A3A31237F30EAF8322F6
:10323300A3A3A3A3A3F08E828F83E02274F41205C9
:103243007074F9120AE8EAFEEBFF90043CE07002A6
:10325300A3E060101232D464027009EEFAEFFB129D
:10326300106F806890046AE06E7003A3E06F705C77
:1032730074016960097A7E7B04124E00704E7A00F5
:103283007B029004B7E0F9121579EA7001EB703C08
:1032930090046D7808120CDF8510828511837808FD
:1032A300120CD0900473E0C0E07404120D29D0E036
:1032B300F07405120D297401F07406120D297402BD
:1032C300124E06120E4DE96092120E53740702312C
:1032D3005590043C1232DB22123D57A3A3E0227423
:1032E300F6120570EAFEEBFF8E828F83A3858208B8
:1032F300858309E0F9120E95850882850983E064C8
:10330300EB600A8E828F83A3E064E17007E48E8210
:103313008F83A3F012243B7508017808120A748E78
:10332300828F83A3E0F5087808120A7479001230BB
:1033330061120A9D120F4902477574F612057090C7
:1033430004BAE0701F7C0079017A007B00120F79C8
:10335300EA7001EB600E8A828B83E07002A3E06067
:1033630003120EEF024775C082C0831237DF40108D
:1033730079FF120F73E9FA90222BE493C39A500456
:1033830079018002790002437E74F11205708A0A82
:103393008B0B890E7509008A828B83A3A3A3A3A336
:1033A300A3A3A3E0F9120F7F8A0C8B0DAE0CAF0D14
:1033B300750801EE7001EF6003023462850A8285AD
:1033C3000B83A3A3A3A3A3A31250C0850A82850BD7
:1033D30083A3A3A3A3A3A3A3A3E0F9850A82850BD5
:1033E30083124C20120F678A0C8B0DAE0CAF0DEEBF
:1033F3007001EF70030235A18E828F83A3A3A3A371
:10340300E4F0A3F0E50A240BFAE50B1248F2E0C05E
:10341300E0122A73D0E0F012104BEE240C1246CBCC
:10342300750901EE2406F8EF125934547FF0A3E036
:1034330054FC1235CB540460030234E890120FE0BD
:10344300F50A750B007407780A120C3E8E828F837F
:10345300A3A3A3A3A3A3E0450AF0A3E0450BF08E27
:10346300828F83A3A3A3A3A3A3E05480F50AA3E0BD
:103473005403F50B7407780A120CB2E50E607974E5
:10348300028E828F83A3A3A3A3123233240D124C83
:1034930030A2E2500B900458E0F8122AA31244FD24
:1034A300E50A700302356FEE2406F8EF3400F9E8FD
:1034B300FAE9FB8A828B83E0547FFCA3E054FCFD92
:1034C30074FF250AF50A74FF3400F50B7407780AB4
:1034D300120C3EE50A4CF8E50B4DF98A828B8312F8
:1034E30044FF02356F8E828F83A3A3A3A3A3A3E01C
:1034F3004480F0A3E0023461E50A7005750800809A
:103503006B8E828F83A3A3A3A3A3A3E0542060178E
:103513001214598A0A747F550AF8745F288E828FB1
:1035230083A3A3A3A380278E828F83A3A3A3A3A391
:10353300A3E05410600E1214598A0A740F550AF846
:10354300740180D88E828F83A3A3A3A37401F0A3F5
:10355300E4F074048E828F83A3A3A3A3A3A3A3A3E2
:10356300A31237FA7001EB70031235AB74016509CE
:10357300702F8E828F83A3A3A3A3124E75F9EEFA45
:10358300EFFB120F6DE96019EE240C125612700254
:10359300A3E060031235B8EEFAEFFB1214CB750803
:1035A30000A9087F0702084D7A207B009004B7E04A
:1035B300F912148F22EE240C12307C1235C222E051
:1035C300FAA3E0FB1214CB22F088828983E02274F1
:1035D300F4120570750800120F7F8A0A8B0BAE0A6E
:1035E300AF0BEE7001EF70030236778E828F83A3E9
:1035F300A3A3A3A3A3A3A3A3E064067077120F91CD
:103603008E828F83A3A3A3A3A3A3A3E05408F9E407
:103613007001E9605C8E828F831239B57A007B007A
:10362300120F61EA7001EB704812367A121BF17CBB
:10363300007D007A007B0080228E828F831239AF57
:103643007004A3E064FF602912367A1218C1E9649A
:103653001A601E7C007D00EEFAEFFB120F618A08F0
:103663008B09AE08AF09EE7001EF70CD7900121B24
:10367300F77508010227B490046A124E7B124C249A
:103683002274F71205708A828B83E5827002E583C8
:1036930070099004BB80068A828B83A3A312388DA2
:1036A3007001EB602C8A828B83A3A3A3A3A3A3A3A0
:1036B300E05408F9E47001E960DDEC7001ED601598
:1036C3008A828B83123B776C7003A3E06D70C88092
:1036D300047A007B0002399974F21205708A088B10
:1036E30009890AECFEEDFF7A0E7B001214C5EA701D
:1036F30001EB603EE48A828B83A3A3A3A3A3A3A3CA
:10370300A3123738E50A124263A3A31252168A8220
:103713008B83A3A3A3A3E4F01237381242611250A0
:10372300A4EA240CF582EB123B61124262A3A3F0DC
:10373300A3F002242512571480058E828F83A3A33E
:10374300A3A3A3A32274F5120570EAFEEBFF890A73
:103753008C088D09EE7001EF60597401650A7014CD
:103763007901120F73E9FA902229E493C39A500F57
:10377300791180637404650A70331237DF40F18E68
:10378300828F83A3A3A3A3A3A3A3A3A3E50A1237AF
:10379300EE1250A28E828F83A3A3E4F0A3F09004D1
:1037A300BBE07002A3E09004BB601B800A74026557
:1037B3000A60CC79C18020124E887002A3E088820F
:1037C3008983A3A370F1EEF0A3EF1237FA7001EB34
:1037D30070031235AB79007F0302084D7904120F91
:1037E30073E9FA902227E493C39A221237F3A322B0
:1037F300F08E828F83A322F07A207B009004B7E0BF
:10380300F9121579EA22C082C083E9FC7900900499
:10381300BB801D8A828B83A3A3A3A3A3A3A3A3A378
:10382300E06C600574FF6C7001098A828B83A3A32B
:1038330012388D7001EB70DB02437E74F712057052
:103843008A828B83E5827002E58370099004BB80D2
:10385300068A828B83A3A312388D7001EB60248ABE
:10386300828B83A3A3A3A3A3A3A3A3A3E06970E170
:10387300EC60148A828B83E0240D124FADA2E240E8
:10388300D080047A007B00023999124C24EA22C0CA
:1038930082C0839004BB80068A828B83A3A31238E1
:1038A3008D7001EB60128A828B83A3A3A3A3A3A3CE
:1038B300A3A3E06970E280047A007B0002437E12D6
:1038C300532AE82274F11205708A0A8B0B8C0C8D33
:1038D3000D750800750900EA7001EB602E9004BBBA
:1038E30080068E828F83A3A3123D66EE7001EF6084
:1038F3001AAC0CAD0DEEFAEFFB850A82850B831231
:103903001D9AE9640170DB8E088F09AA08AB0902CE
:1039130035A674F71205709004BB1253267C007D04
:1039230000800DE8FCE9FD88828983A3A312532656
:10393300E87001E96030EA687002EB6970E59004B1
:10394300BB124C20E86A7002E96B88828983A3A3C7
:1039530070081253269004BB80091253268C828D63
:1039630083A3A31244FF02399974F7120570EAFE88
:10397300EBFFEE7001EF6016120F8B1239CB700262
:10398300A3E060031235B8EEFAEFFB1214CB023951
:1039930099741F120A9D7F0102084D1250C48A8236
:1039A3008B8322E0F98A828B83023743123B7B6449
:1039B300FF22123B7BFCA3E0FD228E828F83A3A315
:1039C300E0F508A3E0F509228E828F83E0241C1220
:1039D3004C341235C38E828F831235C2EE240C12FF
:1039E30039E622F582EF3400F583E022F582EB120B
:1039F30039E9F92274F212057074FC120AE8EAFE3E
:103A0300EBFF7508FE7509FF120F4FE96005791189
:103A1300023B56EE2415125612603790122AE0C468
:103A23003354E0C0E0E0333354FCFAD0E04AC0E062
:103A3300EE2415122A76D0E01237EE123B6770019E
:103A4300EB600F7508FF1249C1EE2415125612D20E
:103A5300E0F08E828F83124AE56006EE2412123B59
:103A63005EEE24131256127003741EF012560F6486
:103A7300017016900E8CE0600D900454E0700A8E75
:103A8300828F83E07003123B5BEE24141256127094
:103A930015900449E0C0E0EE2414122A76D0E0F039
:103AA300900449E004F08E828F83E064017016EE87
:103AB300240B123B746402700CEE240F1256124452
:103AC30040F0A3E0F0851082851183AC82AD83EED4
:103AD300FAEFFB120FA98A0A8B0B74FE65087004B8
:103AE30074FF64FF70031239BDEA7001EB60608EEE
:103AF300828F83E0C0E07401120D29D0E0F07402DC
:103B0300120D2912521A7401120D2985820C858314
:103B13000D780C120A70EE240F122A761208F6EEB4
:103B2300240E125612F50C780C120A747405120D39
:103B330029E0F9AC08AD09120FA37405120A9DE937
:103B4300FE74106E700BAA0AAB0B1214CB80027EAC
:103B530010EEF97404022422EE2411F582EF1230E0
:103B63007FE4F022124C2479FF121C6FEA22EE2428
:103B73001D12307C123B7B22124B94E022C082C088
:103B83008374DE120AE88A828B83A3A3A3A312534E
:103B930026740E120D29E8F0A3E9123C32740C12BC
:103BA3000D29123C2B240DF582EB125615C0E0743F
:103BB3001A120D29D0E0F0124E81125323742012F1
:103BC3000D29123C2B2415F582EB125615C0E07417
:103BD30008120D29D0E0F0EA241CF582EB125323DE
:103BE3007412120D291244FF74FF8510828511830C
:103BF300F07401120D2974FFF07402120D2974FF81
:103C0300F090814C1208F27404120D29AC82AD833A
:103C13007407120D29AA82AB83120E717404120A5F
:103C23009D7900742202437BE8F0A3E9F0EA22F0D5
:103C33008A828B83A3A312532A2274F01205707411
:103C4300EE120AE87410120D291246D28C088D095F
:103C5300890B7422120D29E0F50C7423120D29121D
:103C63003D667425120D29E0F50EA3E0F50F750AE4
:103C7300107A1E7B001214C57402120D291246D24B
:103C83007402120D29E07002A3E07003023D468521
:103C93001082851183AA82AB837950124588120D55
:103CA30029123D4DA31246D27402120D29E0240BB2
:103CB30012250B7402F0120D29123D4D7402F012FD
:103CC3000D291248D61250A47402120D29E0241BA8
:103CD30012250BE50BF07402120D29E0240C1225BA
:103CE3000BE50CF07410120D29124591120D29E009
:103CF300241C12250B1246D27408120D2912521AD3
:103D0300740A120D29E50CF0850E82850F83C0829B
:103D1300C083740D120D29AC82AD83D083D082741D
:103D2300031209EEF97402120D29AA82AB83120F52
:103D330055E964017005750A0080087402120D29A3
:103D43001235BEA90A7412024F96123D530237432D
:103D5300123D5722124B98023743EA240BF582EBAC
:103D630012307FE0FEA3E0FF2274F0120570EAFE3A
:103D7300EBFF8C088D0974088E828F83123073E0F9
:103D8300600874108E828F83A3F0EE2417125612EC
:103D930060098E828F83A3E02408F0EE2415125667
:103DA3001260088E828F83A3E004F08E828F83A338
:103DB300A3A3A3A3A3E060198E828F83A3A3A3A3CA
:103DC300A3A3A3E0C3332402FA8E828F83A3E02A42
:103DD300F012560F6005750B0E8003750B008E8273
:103DE3008F83A3E0C0E0EE240D122A76D0E0FAE040
:103DF3002A250B8C828D83F012560F600512452CF9
:103E03002AF0850882850983E0C394754003023F45
:103E130088E0FA7B001214C58A0E8B0FEA7001EB5F
:103E23007003023F8EEEFAEFFB120FAFEA850E82AC
:103E3300850F831246D3EE2402F8123F9C123FBB38
:103E4300F0EE24040808123F9CA3A3123FBBA3A3D4
:103E5300F0EE2413123FA7F0EE2414123FA7A3F0B1
:103E6300750C08EE24161256126013EE2418125025
:103E7300BDE50E2408FAE50F123036750C10EE245A
:103E8300171256126019EE241A1250BD850C08E55C
:103E93000E2508FAE50F1230367408250CF50C8E42
:103EA300828F83A3A3A3A3A3A3E060728E828F83D5
:103EB300A3A3A3A3A3A3A3E0C0E0850C08E50E2559
:103EC30008F582E50F122A79D0E0123FB1E0C0E095
:103ED300850C08E50E2508F582E50F122A79D0E056
:103EE300123FB1A3125062120A6C8E828F83A3A376
:103EF300A3A3A3A3A3E0C333FCE433FD850C08E52C
:103F03000E2508FAE50F12505C120A9D8E828F83EC
:103F1300A3A3A3A3A3A3A3E0C333250CF50CEE240F
:103F2300151256126010C0E0E50E250CF582E50F60
:103F3300122A79D0E0F0122A73125062120A6CEE40
:103F4300240D125612FC7D00850B088E828F83A3ED
:103F530012423CE50828FAE439123F95120A9D12F1
:103F6300560F6027EE240D125612FD8E828F83A307
:103F7300E0FCAA0EAB0F7900121D23E9600DAA0E17
:103F8300AB0F1214CB750E00750F00AA0EAB0F0208
:103F93004F99FB12143B740322EF125938850E829A
:103FA300850F832212307C123FC2A3A3A322F00504
:103FB3000C8E828F83025CF3123FCD123FC222E04C
:103FC300850E82850F83A3A3A322A3A3F0888289EE
:103FD30083A32274F6120570EA2415F582EB1256B8
:103FE3001560047C0180027C008A828B83E0FE9052
:103FF300045A12407774027808120C3EE5084EFE0C
:10400300AF09EA241212407174067808120C3EE5D7
:10401300084EF8E5094FF9ECFDE8FCED49FDEA240B
:104023001112407174097808120C3EE5094DFDEA3E
:104033002416124071740B7808120C3EE5094DFDED
:10404300EA2417124071740C7808120C3EE5094DEE
:10405300FD8A828B83A3A3A3A3A3A3124077740A2D
:104063007808120C3EECFAE5094DFB024775F58220
:10407300EB12307FE0F5087509002274F012057029
:1040830074FE120AE88A0E8B0FECFEEDFFE98E82B6
:104093008F831242631244BE850E82850F83A3A3CE
:1040A3001242371244E81242851242371244D712A1
:1040B3004285A3A3E0C0E0EE2411122A76D0E012D9
:1040C300428CA3A3A3E0C0E0EE2412122A76D0E030
:1040D30012453E600AE50E2408F8E50F1245058EE9
:1040E300828F83A3A3A3A3A3A3A3A3E060218E82B0
:1040F3008F83A385820C85830D12423CEE24151217
:104103002A761244FF850C82850D83E02408F08E05
:10411300828F83A3A3A3A3A3E0600F1242488E82DE
:104123008F83A3A3A3A3A3124296EE2418125612BD
:10413300607C124248C0E0EE2419122A76D0E012C5
:104143004296F8E50E28F582E50F125615C0E0EE0B
:10415300241A122A76D0E012429612420FE433FB5D
:104163001242677002A3E060458E828F83A3E0F85A
:10417300E50E28F508E50F124219120A6CEE241910
:10418300125612C333FCE433FD7403120D29124C8F
:1041930020123F96120A9D12420F850C82850D83D1
:1041A300E02A12506AEE241B122A761244FF8E82F2
:1041B3008F83A3E0FA8A08E50E2508F8E50F34009B
:1041C300124223123238C39AC0E0EE2417122A7621
:1041D300D0E0125E0CE06031EE2417F508EF3400F6
:1041E300F509850882F583E024F2F0EE241DF8EF4B
:1041F300125934240EFAA3E03400FB88828983EA3F
:10420300F0A3EB124527C39AF0024F94EE24191240
:1042130039E6C333FA223400F509750A0078082217
:10422300F9EE241D12422B22F582EF3400F583E8C8
:10423300F0A3E922E0FA023FA0E0F8E50E28F8E552
:104243000F3400F9228E828F83A385820C85830D20
:10425300E0F8E50E28F582E50F1239E922A3A3A3BE
:10426300F00239A11214C5851082851183EAF0A3E7
:10427300EB1242782212427DE022F08510828511F2
:104283008322F0A3E912428C22F0850E82850F83EC
:10429300023743F0850C82850D83E004F02274F429
:1042A3001205708A088B09EA124335F0EA13135496
:1042B3003F12432EA3A3A3F0EAC41313124335A35F
:1042C300A3F0EB12431BF08A0A8B0B7409780A12D2
:1042D3000CB2E50A12431BA3F08A0A8B0B740A780B
:1042E3000A120CB2E50A5401C0E0EC2418F582ED81
:1042F300122A79D0E0F08A0A8B0B740B780A120C1D
:10430300B2E50A124328F0740C7808120CB2E508DF
:10431300124328A3F002315812431F2254018C8206
:104323008D8302374212431FA3A322540F8C828D25
:10433300832254038C828D83A3A322C082C08379FA
:10434300008A828B83A3A3A3A3A3A3E09004546056
:104353000FE070228A828B83A3A3E0701909801671
:10436300E060138A828B83124C1790045DE06A70BD
:1043730003A3E06B70E78003120A9DD083D082020F
:1043830007DE74F31205708A0A8B0B890CECFEEDC1
:10439300FF8A828B831244BE850A82850B83A3A383
:1043A3001244B51244E81245161244B51244D7120A
:1043B3004516A3A3E0C0E0EE2411122A76D0E01242
:1043C300451DA3A3A3E0C0E0EE2412122A76D0E099
:1043D30012453E600AE50A2408F8E50B1245058EEE
:1043E300828F83A3A3A3A3A3A3A3A3E0601B8E82B3
:1043F3008F83A31244C5EE2415122A761244FF8537
:104403000882850983E02408F08E828F83A3A3A307
:10441300A3A3E060238E828F83A38582088583090B
:10442300E0F8E50A28F582E50B1244A7A3A3F0857B
:104433000882850983E004F0EEFAEFFB120FC1E96D
:10444300705D8E828F83A3A3A3A3A3122D57702520
:10445300E0FC8C08E50A2508FAE50B3400FBEE24A2
:104463001D1246CBE50CC39CC0E0EE2417122A763E
:10447300D0E0F0802A1244C5740E28F8E4391242C1
:1044830023124527FCE50CC39C24F2C39AFDEE24BA
:1044930017122A76EDF0AA0AAB0B7901121D237FBE
:1044A3000502084D12307F1244B1A3A3A322E002F8
:1044B3005955E0FA850A82850B8322124C24120F88
:1044C300BB22858208858309E0F8E50A28F8E50B15
:1044D3003400F922A3A3A3A3A3E0F9EAF8EE240B83
:1044E30012307CE822A3A3A3E0F9EA8E828F83A390
:1044F300025CF312532A8E828F83A3A3E8F0A3E90D
:10450300F0223400F9EE241312422B1237F3E02485
:1045130008F022F0A3E912451D22F0850A82850BDB
:1045230083023743F012452C22900455E0F9121C04
:10453300FFE9FA850882850983E022F074088E82F8
:104543008F83A3125E10A3E022C082C0837AC07B54
:104553000479E2121BC17AC07B0402437EC082C08D
:104563008390045D124C2002437EC082C08374FE9C
:10457300120AE8851082851183AA82AB83794B12D4
:10458300458802437B121BC1851082851183124C1F
:1045930024740222C082C083794A121BC102437E63
:1045A30074F61205709004C8E0FE04F0EEF9120FE1
:1045B3007FEA7001EB70EEEE60EBF902477574F081
:1045C300120570EAFEEBFF8C0E8D0F890874101232
:1045D3000D29E0F50D7411120D29E0F50C75090094
:1045E3001210E18A0A8B0BA80AA90BE87001E97083
:1045F30013E50C705DA908AC0EAD0FEEFAEFFB12DC
:1046030010FF806CE508601FE82402F582E912467A
:1046130079E5082AFAE4340013EA13F07009740107
:1046230088828983A3A3F0E50C6045E50D701088AB
:10463300828983E0600214F0E49004D7F080319023
:1046430004D7E004F0FA901210E06A7023750901B0
:104653008003E4601BE5096017120FD9EA6E70024C
:10466300EB6F700CEEFAEFFB7901120E8F12467EA0
:10467300024F99F582EF1239E9FA227A017B009011
:1046830004B7E0F912157322C082C08374016A7003
:1046930001EB70077A011235AD80149012071246B0
:1046A300D2EA7001EB600512242A800312467E02CF
:1046B300437EC082C0839012091246D202437EC059
:1046C30082C08390120B80F1F582EF3400F583EA08
:1046D300F0A3EBF02274F61205707508497509040E
:1046E3007808120A707C6E7D007A217B0012152BEC
:1046F3007402120A9DE9F508120D39E94208900483
:1047030034E07002A3E0600C9004341248D6121D0A
:104713009AE94208121C45E94208121741E9420886
:10472300A908804E74F6120570121B497508497565
:1047330009047808120A7075086E75090078081262
:104743000A707C007D007A217B00121537740412F5
:104753000A9D120D3F900436E07002A3E0600990B9
:1047630004361248D6121D9A121C3F8005740D128E
:104773000A9D7F0202084D74F612057074FF120A37
:10478300E87E007508497509047808120A707C6E82
:104793007D007A217B0012152B7402120A9DE960B9
:1047A3000302483F7808120A7075086E8E0978086C
:1047B300120A707C007D007A217B0012153D74047F
:1047C300120A9DE9707690045DE064FE7004A3E034
:1047D30064FF60680E90046CE064086005E06404A4
:1047E3007056EE1248797A747B047943121BC77AA8
:1047F300717B047947121BC77A627B04794A1230B2
:104803008F7A6A7B047950121BC77A5D7B047953D4
:10481300121BC77A727B047954121BC77A5F7B041D
:1048230079E1121BC7900457E0A2E35004D2F08051
:1048330002C2F012485F8004121B491E120D4590FC
:104843000438E07002A3E060099004381248D612DD
:104853001D9A121C33EEF97401024772A2F0E4921E
:10486300E012486D7952121BC7228510828511838D
:10487300F0AA82AB832212486D7942121BC72274BD
:10488300F6120570E9FEA2E0502675084975090481
:104893007808120A7075086E7509007808120A7094
:1048A3007C007D007A217B001215377404120A9D67
:1048B300EEA2E35003120D4BEEA2E2501390043A22
:1048C300E07002A3E0600990043A1248D6121D9AE0
:1048D300024775124B9022123041A3A322F01248D3
:1048E300E522EEFAEFFB9004B7E0F912146B2234E1
:1048F30000FB0239A1F582EF1249FB22A3E0888273
:104903008983F0A308A98322A3A3A3A3A3A3A3A397
:10491300A374FEF0A374FFF02274F41205708A08E6
:104923008B097A007B041246821249A91244FF7450
:104933000990046CF0120FCD8A0A8B0BAC0AAD0BF5
:10494300E5082413F582E509122A79124C20124E48
:10495300006401704E122D467001EF604674028EA2
:10496300828F83F0E508241DF8E509122512124C05
:10497300208A828B83A3E0FC8A828B83A3A3E0FB40
:10498300EC8E828F83A3A3F0A3EB1235CBF8122A0C
:104993007D1244B11249B3FAA3E0FB794A121BC753
:1049A3001248E502315890043E12532A90120B220A
:1049B300A3F0E5082415F582E5091239E922EE246E
:1049C3000F1239E64404F0A3E0F0221249DBA3A35B
:1049D300A3221249CEA3A322F0850882850983A3CB
:1049E300A322EE24171249F8120FCDEE241A123027
:1049F3007CEA0246D3F582EF3400F5837401F0229A
:104A030074F612057074F3120AE8EAFEEBFF7C0DEC
:104A13007D007900851082851183AA82AB831214ED
:104A230047EE241DF582EF124ACEE0F854206008C9
:104A3300740C120D297401F0E854806008740B1291
:104A43000D297401F0E85440600A740A120D2974A8
:104A530001F0800A740A120D29E064017005EE2446
:104A6300138003EE24151250BD7402120D29AA827D
:104A7300AB83121B67122A73124B7F1244FF740A13
:104A8300120D29E064017033124ADA703B120FD918
:104A93008A088B09A808A909EE240B12561268701C
:104AA30003A3E0697022120FCDEAFCEBFD7402123E
:104AB3000D29AA82AB83124E00600D8510828511E9
:104AC30083AA82AB83120E8902477012307F124A87
:104AD300D522124B94A3228E828F83A3A3A3A3A3D5
:104AE300A3A3A3A3124AEB22E0FAA3E0FB1210450F
:104AF300E92274F612057074F3120AE88A088B0926
:104B0300ECFEEDFF7C0D7D0079008510828511831D
:104B1300AA82AB83125B83A3A3A3A3A3A3A3A3A38D
:104B2300124B7FE8F0A3E9124B85A3E0FAA2E5500C
:104B330008740B120D297401F0EAA2E75008740AF5
:104B4300120D297401F0EAA2E6EE50042413800248
:104B530024151250BD7402120D29AA82AB83121BB5
:104B630067850882850983A3A3E0C0E0740C120D56
:104B730029D0E0124E06120E8302477012532A0206
:104B8300427EF0EE241D12307C124B9022124B9485
:104B930022124B9822E0F8124B9E22A3E0F5838861
:104BA300822274F712057074E1120AE8EAFEEBFF41
:104BB3008E828F831232D7A2E050568E828F831259
:104BC30026D38A828B83A3A3A3A3A3A3E054FEF0DB
:104BD300A3E0124C3B8A828B83E0241B124C30F9F6
:104BE3008A828B83E0241CFAA3E01248F2124C2041
:104BF300120FC7E9701B741D120D29124C2A701174
:104C0300851082851183AC82AD83EEFAEFFB12101F
:104C130027023994A3A3A3A3A3A3A3A3A3124C245E
:104C230022E0FAA3E0FB22123B7B640422124C3401
:104C330022F8A3E012593C2212427DAC82AD8322BA
:104C4300E9FA790074046A600A740A6A60057403F5
:104C53006A7001090207DE74F612057074208A82F5
:104C63008B83F07401A3A3F0120E418A088B09AE63
:104C730008AF09EE7001EF600774018E828F83F035
:104C83009004AAE070031249E5EEFAEFFB024775C0
:104C9300C082C08374019004BDF0E9A2E3500374A1
:104CA30003F0E9A2E15004E0D2E2F002437E74F69D
:104CB30012057079007C008A088B09780812078630
:104CC300F8FF07E44CE24CE24CE24CE24CDB4CDFF5
:104CD3004CE44CD84C0C80097C0480050C80F67C99
:104CE300089004BDE05C6003098003EC60010902E5
:104CF300477574F61205708A828B83E07014A3E003
:104D03007002A3E0600C8A828B83124C1F121CF981
:104D130080047A007B0002477574F512057074F302
:104D2300120AE8EAFEEBFF8C088D09750A12EE7091
:104D330001EF70057900024DF190045DE06E7003A0
:104D4300A3E06F7018120FCDEAFCEBFDAA08AB09C4
:104D5300124E007005750A018003750A00E4851080
:104D630082851183F07401120D29EEF0A3EF124E28
:104D730006120D6FE9602B7403120D29AA82AB830F
:104D8300120D57E96401701A750A017403120D2993
:104D9300AC82AD83AA08AB09124E006021750A00EC
:104DA300801C7412650A70169004A9E06402700EE8
:104DB300AC08AD09EEFAEFFB120D8DE970DFAC081C
:104DC300AD09EEFAEFFB1210E7E9FA740A6A70050F
:104DD300750A01801774A06A7012AC08AD09EEFA67
:104DE300EFFB1210F3EEFAEFFB12110BA90A740D8D
:104DF300120A9D0237DA24F0FAE93410FB121B6120
:104E0300E922E4124E0A22124E0E22F08510828508
:104E1300118302487474F7120570EAFEEBFF7508FC
:104E2300008E828F83A3A3A3A3A3A3A3A3E06017EE
:104E3300EE24151227CC122A74124C20121051E9B9
:104E4300640170037508018E828F83A3A3A3A3A3B8
:104E5300A3A3E06018EE2413122A76124E75FAA368
:104E6300E0FB121051E964017003750801A90802FF
:104E73003999124E7B0230561250C4025955EA2416
:104E83000BF582EB2212532A88828983A3A3E022A3
:104E930074F012057074F3120AE87403120D29EC0E
:104EA300F0A3EDF08A0E8B0F890B741D120D29E010
:104EB300F50A7E01EE120D29740AF0E97007E50A7E
:104EC300C333240AF0851082851183AA82AB83122F
:104ED30010398A088B09EA7001EB7003024F8E12B6
:104EE3003D5D740912508C450A125099120D291216
:104EF3005072E50B70307A008026EAC333F8E4334E
:104F0300F9741E120D29E028F8A3E039F988828983
:104F130083124FA38882898312315DA30EAF830A64
:104F2300EAC3950A40D4E5082417F582E509124837
:104F3300FB120FCDE508241AF582E5091246CE745B
:104F430005120D29AC82AD83AA0EAB0F120D5DE9DC
:104F53006021E508124F9EE5091248FB7405120D06
:104F630029A882A983E5082418F582E509122A797C
:104F73001244FF850882850983A3A3E50EF0A3E508
:104F83000FF0AA08AB09120E3BE9FEEEF9740D808F
:104F9300027402120A9D7F0802084D2416F582222C
:104FA3001244B1F0A3AE82AF8322FEA3E03400FF2C
:104FB30002323974F012057074FE120AE885108209
:104FC3008511831246D289088C0E8D0F7412120D2F
:104FD30029E0F50B900DFCE07002A3E06075E50B92
:104FE300C333F8E433F9740E28FAE439FB12145F7F
:104FF3008A0C8B0DAE0CAF0DEE7001EF605574D4BF
:105003008E828F8312506A1244F98E828F83A3A3F8
:10501300A3A3E508F0AC0EAD0FEE2405123034EE79
:10502300240D122A76E50BF07413120D2912506227
:10503300120A6CE50BC333FCE433FDEE240EFAEFE6
:1050430012505C120A9DEEFAEFFB900DFC1248D64B
:10505300121D9A024F94FAE50D3400FB023F96E0CD
:10506300F508A3E002421B124278F8A3E0F92212EA
:1050730027D6FAEFFB12507C22121B6712508322B1
:10508300EE2408FEEF3400FF228E828F83F0A3E527
:105093000BC43354E022F0A3AE82AF83740322A384
:1050A300A3E508F0A3E509F022E0FA8E828F83A33B
:1050B300A3E022124C24120FB52212307C1250C4EA
:1050C30022E00239B874F7120570E9FE7C007D0016
:1050D30078007900800C1251982CFCA3E03DFD125E
:1050E3005ABE125D105037E8FAE9FBEA75F012A4D4
:1050F300FAAFF075F012EBA42FFBEA2478F582EBFC
:10510300340FF583E064FF60D61251987002A3E078
:1051130060CDEE60C112519DE4F0A3F080C1780030
:105123007900800C1251772CFCA3E03DFD125ABE8E
:10513300125D035038E8FAE9FBEA75F017A4FAAFF9
:10514300F075F017EBA42FFBEA125CFEEB125CD1B7
:105153007004A3E064FF60D51251777002A3E0608E
:10516300CCEE60C012517CE4F0A3F080C0ECFAED09
:10517300FB02399912517CE022E8FAE9FBEA75F067
:1051830017A4FA75F017EBA42FFBEA2403F582EBBF
:105193003411F5832212519DE022E8FAE9FBEA7506
:1051A300F012A4FA75F012EBA42FFBEA2484F58223
:1051B300EB340FF5832274F6120570EAFEEBFF90D1
:1051C30004BE801388828983E06E7003A3E06F605E
:1051D3003F88828983A3A31238C27001E970E57AFC
:1051E300047B001214C58A088B09A808A909E87072
:1051F30001E9601C8882898312521A9004BE124C02
:105203002088828983A3A31246D29004BE1244FF4E
:10521300024775A3A3A3A3EEF0A3EFF02274F41245
:1052230005707E009004BE80070E88828983A3A345
:105233001238C27001E970F1EEC333FAE433FB12A2
:1052430052D47001EB70030252CE7F009004BE80F3
:1052530024888289831250C0EFC333FAE433FBE519
:10526300082AF582E5093BF583ECF0A3EDF00F88FE
:10527300828983A3A31238C27001E970D49004B267
:105283001252F17003A3E06978087019120A70EEE4
:10529300F50A780A120A747C7E7D0479009004B2C0
:1052A3001252DD801A120A70EEF50A780A120A7495
:1052B3007C7E7D0479009004B2124C2012105D7440
:1052C30003120A9DAA08AB091214CB120E53023122
:1052D300581214C58A088B09EA22124C241210634F
:1052E300228E828F83A3A3A3A3A3A3A3A3A3125357
:1052F3002A90045DE06822C082C08380128A828B78
:1053030083A3A31253269004BE1244FF1214CB901E
:1053130004BE12388D7001EB70E302437EF582EF19
:1053230012307F12532A22E002506D74F612057078
:1053330090046A123D669004C91253971244FF7A8F
:10534300C97B047950121BC79004C91227D2FAEF04
:10535300FB1211059004C9123D66900DFEE0700228
:10536300A3E0602D7A067B0012145FEA7001EB6004
:105373002074D58A828B83F0E4A3A3F074018A821C
:105383008B83124260125216900DFE1248D6121DE4
:105393009A02477512539B22E0F8A3E0F990046A3E
:1053A30022C082C0839004CB7493F0A37410F09056
:1053B30004CD748DF0A37410F09004CF74ABF0A3FC
:1053C3007410F002437EC082C08390045DE064FEEB
:1053D3007004A3E064FF600E900457E0A2E150065E
:1053E3001210ED12109912109302437E74F61205F7
:1053F300709004ABE060281214598A08A80890043E
:10540300ABE0FA75F0E8A4CAACF075F003A42CFB8A
:10541300747F582AFCE43BFD7A007B01122432029C
:10542300477574F012057074FE120AE8750F008553
:105433001082851183E4F0A3F0120DAB7A04790096
:10544300120D87EAFE7A0279011256067A0379036E
:105453001256061210C9EAF50E2EFF8E0AEA250A25
:10546300F8E43400F9E87001E970030255668F0827
:1054730075090074027808120C3EAA08AB0912429F
:10548300677002A3E070030255648F087509007406
:10549300027808120C3EAC08AD0979FF85108285AD
:1054A3001183E0FA1214477508008056A908120DFB
:1054B300A58A0C8B0DEA7001EB60458A828B83A36E
:1054C300A3A3A3E0600464047036050F8A828B8370
:1054D300A3A3A3A3A3A3A3A3A3A3E0F91210F985F2
:1054E30010828511831208F6EFFD850C82850D83EA
:1054F300A3A3A3A3A3A3A3A3A3E0125619120A9DD4
:10550300050885080A902224E493F8740193F9C3EB
:10551300E50A98E4995006E50FC39E408F7508008D
:10552300E508C3950E503CAA087B001210CF8A0CE5
:105533008B0DEA7001EB60258510828511831208BB
:10554300F6EA240EF582EB125615FEEA240F123901
:10555300EF1210F9EFFDEE125619120A9D0508809D
:10556300BF7F0075096A900455E0600CF9121CFFB7
:10557300E9FA745CC39AF50975F003E50984F50A41
:10558300851082851183E0F50EA3E0F50F750B00FE
:10559300E5096006750B20750900E50AC39F5004F1
:1055A300AE0A8008EFFEE50BD2E6F50BAC0EAD0FAD
:1055B300AA0BEEF91210A5E9F50CE50BA2E6401FC4
:1055C3001E750800800EE50E2404F50EE50F340069
:1055D300F50F0508E508C39E40ECEECFC39FFFE936
:1055E3007006E50BA2E650A5851082851183E07055
:1055F30002A3E060098510828511831235BEA90CD0
:10560300024F94120D87EACEC39EFE22EE2411F5BB
:1056130082EF1239E922FC850C82850D83124C241A
:1056230012109F74022274F2120570EAFEEBFF89D6
:1056330008740E120D29124C20750A00750B0075A3
:105643000900800E8A0A8B0BEA2404FAEB3400FB70
:105653000509E509C39D50218A828B83E064FF70AD
:1056630004A3E064FF70158A828B8312521AEC8ABA
:10567300828B8312570FE508F0022425E50A700296
:10568300E50B600E850A82850B83C3E09EA3E09F32
:1056930050B28A828B83125326C3EE98EF9950A49B
:1056A300EAF8EBF988828983E064FF7004A3E0647D
:1056B300FF6010E82404F8E93400F90509E509C39B
:1056C3009D40E1880A890BE824FCF8E934FFF98856
:1056D300828983E0F50CA3E0F50D850A82850B83AF
:1056E300E50CF0A3E50DF088828983125703123F7E
:1056F300CF125703A3F0C3EA98EB9940C602566A48
:10570300A3A3E0850A82850B83A3A322A3125714C4
:1057130022A3F08A8202316374F312057074FD12BE
:105723000AE889088A09ECFEEDFF750C0175F003A0
:10573300E9A42402C0E07401120D29D0E01257D469
:105743007001EB607C124E81122A791257CE888247
:105753008983F0741F55084509A3F012591E750972
:1057630000803D8E828F83E088828983F0A3A882A4
:10577300A9838E828F831248FF8E828F83A3A3E037
:105783005407C4C0E08E828F83A3A3A3E05407FC15
:10579300D0E04C124901EE2404FEEF3400FF05096A
:1057A300E509C3950840BC8A828B83A3A374FC12CA
:1057B3004916EA2413F582EB1248FB120E3BE9F576
:1057C3000CA90C7403120A9D0244A212532A7408F2
:1057D300221257D9EA22124E0E1210392274F112F4
:1057E30005708A0A8B0B7508007AFE7BFF7CFE7DB1
:1057F300FFE50A241DF582E50B1253238882898372
:10580300A3E0F509741F5509F50C12591EE50C6048
:105813000B88828983E0FEA3E0FBEEFA750D00801E
:105823003088828983E0FCA3E0FFECFEE8240208D1
:1058330008E91259345407F50EA3A882A983EFFD92
:1058430090045DE06E7003A3E06F7003850E08059E
:105853000DE50DC3950C40C9E508700BA90912109D
:10586300B1E9700302591B1259281259428A0C8B51
:105873000DA80CA90DE87001E9600EE48882898304
:10588300125CEBE508F002591B7CFF7DFF125928DF
:10589300122A79124C201210BD8A0C8B0DAE0CAF5C
:1058A3000DEE7001EF7033125DFF7001EF60697CE4
:1058B300177D007900121447125928122A791259B8
:1058C3004C1244FF90046A12595AA31244FDEE2469
:1058D3000F125E14EE240E1248F8EE240E122A76EE
:1058E300E508F0EE240C123B5EEE2402FAEF3400DE
:1058F300FB120D57E97021850A82850B83A3A3A3AD
:10590300A3A3A3A3A3E06010E50A2415F582E50B86
:105913001227CF24021230340235A6E824020808E5
:10592300E93400F922E50A240BF582E50B22F8E5B8
:10593300091259382212593C223400F90235CC128B
:10594300307F124C24120D932212595022E0F8A3F7
:10595300E0F98E828F8322125950025CF4C082C018
:105963008374FE6A700374FF6B700479018034746E
:105973006059646060F5E9A2E5500F90045D12532D
:1059830026C3EC98ED99401980E1A2E690045D509E
:1059930008C3E09AA3E09B80EDC3E09AA3E09B5089
:1059A300DA790002437E74F71205707E00800412D8
:1059B30059C40E90222CE493FAEEC39A40F10239B3
:1059C30099EE75F017A424EEFAE5F03410FB1210EB
:1059D300D52274F7120570780079008003125ABE3D
:1059E30090222CE493FEC3E89EE994005064E8FE01
:1059F300E9FFEE75F017A4FE85F00875F017EFA424
:105A03002508125D7DE06A7003A3E06B70CFE8FEAA
:105A1300E9FFEE75F017A4FE75F017EFA42508FF54
:105A2300EE24F8F582EF3410F583E06C7003A3E005
:105A33006D600A74FF6C700374FF6D70A0E875F0FD
:105A430017A4F8AAF075F017E9A42AF9E8125B5530
:105A530080047A007B0002399974F61205707CFF8A
:105A63007DFF7AFE7BFF1210BDEA7001EB7049786F
:105A7300007900803EE8FCE9FDEC75F017A4FCAE6C
:105A8300F075F017EDA42EFDEC24FDF582ED341036
:105A9300F583E0701BE8FAE9FBEA75F017A4FAACAA
:105AA300F075F017EBA42CFBEA24EEFAEB3410FBB1
:105AB300125ABE125B0940BD024775E82401025920
:105AC3002274F71205707A007B0078007900802E2B
:105AD300E8FCE9FDEC75F017A4FCAEF075F017EDEA
:105AE300A42EFDEC125CFEED125CD17004A3E06405
:105AF300FF6008EA24010AEB3400FB125ABE125B72
:105B03000940CD02399990222CE493FCC3E89CE927
:105B130094002274F61205707E007D0080020E0D43
